:02000002D0002C
:1040000000400D00C8830D00000006000D000501F2
:084010000401BB0400000000E4
:10401800987E0D0009480A49884208B505D0094A22
:10402800824202D0121A03F0C1FE0748074A002153
:10403800121A03F0C6FE014808BD00BF58E303206A
:10404800F0820D0008E4032008E40320F0E70320D1
:1040580070B503F04DF8074C074BE41AA408002587
:104068001E46A54204D056F8253098470135F8E792
:1040780070BD00BFE8820D00B0820D0001F04ABBA0
:1040880008B500F03BF9BDE8084002F0FFBF01F0B9
:10409800C7BE01F0CDBE01F0CBBE0078B0FA80F00B
:1040A80040097047012303707047106870477047D4
:1040B80003681847012A02D0022A02D004E00160EE
:1040C80002E00B6800B1036000207047436913B138
:1040D80083690C301847704713B500210446084619
:1040E80001F07AFC02A90023204641F8043D01F0C2
:1040F8008BFC019C0CB1012323710021012001F0EC
:104108006BFC2CB1236820469B68984700232371D9
:1041180002B010BD037823F07F0319430170704784
:1041280010B50446406801F083FE204610BD10B566
:104138008368044613B1032201469847204610BD00
:1041480007B58068002338B18DE80A00022101F024
:1041580063FCB0FA80F0400903B05DF804FB00008E
:1041680038B5104B036083680446A3B16FF0004173
:104178000022FFF7E5FF0021A06801F065FC237924
:1041880003F0FF0513B101F00FFCF8E72946A0681A
:1041980001F032FCA56004F10C00FFF7C8FF2046CF
:1041A80038BD00BFB47E0D0010B50446FFF7D8FF38
:1041B80020461C2102F0FDFF204610BDB0F90A3050
:1041C80013B100EB031070471846704708B5006834
:1041D8000B4600B119B9C31A5842584108BD03F03B
:1041E80021FEB0FA80F0400908BD37B502AD04469B
:1041F80045F8041D4CB1E1682846FFF7E7FF20B9F0
:104208002046FFF7DBFF0446F4E7204603B030BD45
:1042180038B5054600680C4668B103F030FE63689F
:10422800421CA0689918814207D8616033B1296897
:10423800184603F0BBFD034600E00023184638BDCE
:1042480070B5064600680C4681681144154602F0B0
:10425800FFFC2544AC4205D014F8011B306802F07D
:1042680075FDF7E7002070BD10B54B688A681033FC
:104278009A4201D2002010BDA2F110038B60002BDE
:10428800F8D0416819B15C1A24114C8100E0036030
:104298000021436022F8061C02F8081C42F8041C9E
:1042A800184610BD826810B54AB14368C468A34275
:1042B80002D30023836010BD5C1C4460D15410BD40
:1042C80010B504460021FFF7EDFFA3683BB194E861
:1042D8000600E3684868D31A03444B60E260A068AC
:1042E80010BD00000B780BB9036002E0024B0360BD
:1042F80000234360704700BFB7400D00704710B5FA
:104308000C461146FFF7B0FF20B1037AC46003F0F2
:104318007F03037210BDF7B50023036043600D6887
:10432800064617466DB3EC68E4B195F90830002BE2
:1043380012DA39463046FFF797FF0194044610B366
:10434800394601A8FFF764FFE8B1237AE06063F01B
:104358007F03237220460AE03A4621463046FFF79B
:10436800CEFF03E039463046FFF77EFF58B13A46A4
:10437800294600F00BF830B12846FFF71FFF054625
:10438800D0E7012000E0002003B0F0BD2DE9F341A3
:104398000D7A05F07F05042D04460E4600F1080746
:1043A80013D002D8022D25D040E0202D01D0402D79
:1043B8003CD129463846FFF7ADFE002323606360F1
:1043C80031462046FFF7A7FF39E002A80B6840F8FE
:1043D800043D1146FFF71CFF024628B1294638461E
:1043E800FFF798FE226029E001463846FFF792FE63
:1043F800104624E091E8020191B15668936806EBF3
:10440800080098420CD8506056B14246304603F036
:10441800CDFC29463846FFF77DFE84E840010DE0D3
:1044280038460021FFF776FE002008E02946384686
:10443800FFF770FE96E8030084E80300012002B04D
:10444800BDE8F08110B540B121B90830FFF762FE30
:10445800012010BDFFF79AFF10BD10BD033138B51C
:1044680021F003040546204601F0DAFC10B10119D9
:104478000B4601E0014603466860A860E96005F163
:104488001C002B610021FFF745FE284638BD10B5FA
:1044980002460C4670B1002900F1080003DB062132
:1044A800FFF738FE03E00721FFF734FE644214608B
:1044B800012010BD10BD827C62B9436881688B42BF
:1044C8001FBF5A1C42601B7843744FF0010308BF9A
:1044D80042748374407C704770B5044600252046BA
:1044E800FFF7E9FF0A2803D809281DD2B0B12FE049
:1044F800202819D02F2802D00D2829D114E0A5741E
:104508002046FFF7D8FF2A2802D02F2816D01CE013
:10451800A57400262046FFF7CEFF10B94FF0010022
:1045280070BD2F2802D10EB1A574D8E7A0F12A03D7
:104538005E425E41A574EDE70A28D0D0A5742046F6
:10454800FFF7B9FF0028F7D1E8E74FF0020070BD88
:104558004FF0000070BD70B51646027A12F07F0267
:1045680004460D4605D120210830FFF7D3FD22600F
:104578006260237A03F0200303F0FF004BB1294661
:104588002068FFF732FE20B9324629462046FFF759
:10459800B6FE70BD08B5027A02F0200202F0FF03F1
:1045A8001AB10068FFF721FE08BD184608BD10B50E
:1045B800044603C91030FFF7EDFF62680146206822
:1045C800FFF740FF10BD1FB58DE8030010300392C0
:1045D800FFF7E0FF38B1037A03F07F03033B012BB9
:1045E80003D8016802E0014600E0002103A8FFF7B4
:1045F800EDFD05B05DF804FB38B591E828000446E8
:1046080093E803001030FFF7C5FF014618B12946AB
:10461800FFF7C0FF014694E80500FFF713FF38BD18
:10462800F0B585B0C26800920025019593680E46E2
:10463800516853605B1A044602910393FFF73BFFEE
:10464800A57407462046FFF736FF8742A57423D096
:1046580010B94FF0010029E05C2818D12046FFF777
:104668002AFF0028F5D0752801D0114B05E04FF03E
:1046780004001BE0904204D002331A78002AF9D1D2
:1046880004E0587810B94FF002000FE0A574014615
:104698006846FFF707FED5E76846FFF711FE30606A
:1046A80010B94FF0030001E04FF0000005B0F0BD75
:1046B800C47E0D00A0F15F031B2B13D9A0F14103A9
:1046C800192B0FD9A0F12B03DBB20E2B04D9A0F1C3
:1046D8002E0250425041704747F6E57222FA03F322
:1046E800DB07F4D501207047F0B585B004460E46C7
:1046F800FFF7E1FE27282DD022282BD0E268009270
:104708000025019551689368536020465B1A029111
:104718000393FFF7D0FE0746D0B1FFF7CBFFA8B150
:1047280039466846A574FFF7BDFD2046FFF7C3FE6E
:104738000746FFF7BFFF0028F2D16846FFF7C0FD24
:10474800002830600CBF0320002007E0022005E0AD
:10475800012003E031462046FFF762FF05B0F0BDB7
:1047680000280FDD11490023C20741BFDAB201EB6F
:104778008202D2ED007A20EE270A401003F10103ED
:10478800F2D170470A494042002368B1C20742BFCC
:10479800DAB201EB8202D2ED007A4FEA600048BF3C
:1047A80020EE270A0133F0E7704700BF88E30320B3
:1047B80070E303202DE9F0410B782B2B044604D03D
:1047C8002D2B03D10131012601E0013100260B78A0
:1047D80003F0DF024E2A02D1554B6360A2E0492A5A
:1047E8007ED0A3F13002092A02D92E2B40F089800D
:1047F800504F00234FF00A0E084610F8015BA5F150
:104808003002D2B2092A09D8BB4208D80EFB03F3FA
:10481800D543AB4203D813440146EDE71DB100224E
:10482800454F0A250EE007EE903AF8EE677A002E1B
:104838002360C4ED017A0CBF0623072373E0024608
:10484800B3FBF5F3BB4202F10100F8D8521A501835
:104858000D4611F8017BA7F1300EBEF1090F40B2E9
:10486800F5D92E2F10D1DFF8E4E00A270D460131E3
:104878002A78303AD2B2092A06D87345F6D80138D0
:1048880007FB032340B2F1E72A7802F0DF02452A4A
:1048980034D16A782D2A02D1A91C012704E02B2AD9
:1048A80014BF691CA91C002700224FF00A0C0D46F2
:1048B80011F801EBAEF1300E5FFA8EF8B8F1090F7E
:1048C80019D80CFB02E28518262DF0DD47B19FEDC3
:1048D8001B7ADFED1B7A002E18BFF0EE477A07E04F
:1048E8009FED187ADFED187A002E08BFF0EE477AB0
:1048F800C4ED017A16E017B1524200E0002229788F
:1049080021B100230022236062600CE007EE903A98
:104918001044B8EEE70AFFF723FF0EB1B1EE400AE4
:1049280084ED010A082323722046BDE8F08100BF08
:104938000000C07F99999919FFFF7F00000000804F
:10494800000000000000807F000080FFCBCC0C003E
:104958002DE9F04395B080460D46FFF7ACFD0024E5
:104968000746A1463846E6B2FFF7A4FE58B13F2CE9
:1049780009D004AB88F81290E7544046FFF79BFD36
:1049880001340746EEE714AB3344002403F8404CE7
:104998009DF81030742B07D1052105F10800FFF7A9
:1049A800B9FB01232B600DE0662B09D105F1080046
:1049B8000521FFF7AFFB2C60701F18BF012020E016
:1049C8006E2B01D1301FF8E704A901A8FFF7F2FE0A
:1049D8009DF80C10019A072903D0082907D0062949
:1049E8000DD105F10800FFF795FB2A6005E005F1F8
:1049F8000800029AFFF78EFB2A60204601E04FF07C
:104A0800020015B0BDE8F08370B588B00C460646C4
:104A1800FFF762FD01A98DF8040004A8FFF762FC06
:104A2800049B5BBB059D15F0010527D13046FFF7B8
:104A380042FD5B280BD104F108004021FFF76AFB17
:104A4800256065602146304600F03EF80CE07B2882
:104A58000CD1202104F10800FFF75CFB256065609C
:104A68002146304600F096F8C0B22BE03046FFF7FA
:104A780022FD272805D0222814D102E09DF8040041
:104A880020E003A93046FFF7CBFD02A98DF8080006
:104A980006A8FFF727FC069B4BB9079810F0010200
:104AA80005D107E021463046FFF752FFDCE79DF8C5
:104AB800080007E004F108000421039DFFF72AFB22
:104AC8002560104608B070BD70B5037C88B00446F8
:104AD8000E4613B94FF005005AE0FFF7ECFC5B28CF
:104AE80010D10023A3742046FFF7F6FC01A98DF826
:104AF800040002A8FFF7F6FB029BBBB9039BDA0789
:104B080014D416E04FF0020042E0237C013B2374EA
:104B18002046FFF779FF237C8DF8040001332374C6
:104B280001A904A8FFF7DEFB049B53B19DF804001C
:104B38002EE02046FFF7BFFC5D2820D10020A0749E
:104B480026E0059BDB07F1D42046FFF7C5FC01A949
:104B58008DF8040006A8FFF7C5FB069B002BE5D1DE
:104B6800079B13F00105E1D12046FFF7A4FC5D285F
:104B7800E4D02046FFF79FFC2C28C3D1A5742168F8
:104B88003046FFF771FB01460028BED14FF0030005
:104B980008B070BDF0B5037C8FB004460F4613B95A
:104BA8004FF0050098E0FFF786FC7B287BD10023B7
:104BB800A3742046FFF790FC69468DF8000002A810
:104BC800FFF790FB029B002B4DD1039810F00105D5
:104BD80049D12046FFF76FFC7D2817D1A5742846D8
:104BE8007AE02046FFF767FC2C285CD10023A374E9
:104BF8002046FFF771FC69468DF800000CA8FFF706
:104C080071FB0C9B7BBB0D9BDB072CD421683846C2
:104C1800FFF72AFB054610B94FF003005CE001A935
:104C28002046FFF761FD69468DF8000004A8FFF7EC
:104C380059FB049BBBB9059BD80714D42B7A63F0A6
:104C48007F032B72019BEB602046FFF745FC69460A
:104C58008DF8000006A8FFF745FB069B1BB9079BCC
:104C680013F0010602D09DF8000035E02046FFF75A
:104C780022FC3A2817D1237CA674013B23742946C9
:104C88002046FFF7C1FE237C8DF800000133237412
:104C9800694608A8FFF726FB089B002BE3D1099B70
:104CA800D90703D5DFE74FF0020015E02046FFF7EC
:104CB80013FC69468DF800000AA8FFF713FB0A9B4E
:104CC800002BD0D10B9BDA07CDD42046FFF7F3FB9E
:104CD8007D2886D10020A0740FB0F0BD30B50368E0
:104CE80043600D46C368836087B0044600211830CE
:104CF800FFF710FA2B680B48A9680194002B08BF2E
:104D0800034602930B44039304F11001002301A806
:104D180004948DF814208DF81630FFF775FE07B04F
:104D280030BD00BFCE7E0D007FB5002834D0037A99
:104D380003F07F03033B052B2DD8DFE803F00505BF
:104D480003032C1700680DE0016803A8FFF732FD84
:104D58009DF81430062B04D0082B1CD1DDED047A05
:104D680006E00398FF2816D8C0B215E0D0ED007A07
:104D7800F5EEC07AF1EE10FA0DDB9FED097AF4EE4C
:104D8800C77AF1EE10FA06D8FCEEE77ACDED017A93
:104D98009DF8040000E0002007B05DF804FB00BFA8
:104DA80000007F432DE9F0410B782B2B044604D0FB
:104DB8002D2B03D10131012601E0013100260B78AA
:104DC80003F0DF024E2A02D1554B6360A2E0492A64
:104DD8007ED0A3F13002092A02D92E2B40F0898017
:104DE800504F00234FF00A0E084610F8015BA5F15A
:104DF8003002D2B2092A09D8BB4208D80EFB03F305
:104E0800D543AB4203D813440146EDE71DB1002258
:104E1800454F0A250EE007EE903AF8EE677A002E25
:104E28002360C4ED017A0CBF0623072373E0024612
:104E3800B3FBF5F3BB4202F10100F8D8521A50183F
:104E48000D4611F8017BA7F1300EBEF1090F40B2F3
:104E5800F5D92E2F10D1DFF8E4E00A270D460131ED
:104E68002A78303AD2B2092A06D87345F6D80138DA
:104E780007FB032340B2F1E72A7802F0DF02452A54
:104E880034D16A782D2A02D1A91C012704E02B2AE3
:104E980014BF691CA91C002700224FF00A0C0D46FC
:104EA80011F801EBAEF1300E5FFA8EF8B8F1090F88
:104EB80019D80CFB02E28518262DF0DD47B19FEDCD
:104EC8001B7ADFED1B7A002E18BFF0EE477A07E059
:104ED8009FED187ADFED187A002E08BFF0EE477ABA
:104EE800C4ED017A16E017B1524200E00022297899
:104EF80021B100230022236062600CE007EE903AA3
:104F08001044B8EEE70AFFF72BFC0EB1B1EE400AE9
:104F180084ED010A082323722046BDE8F08100BF12
:104F28000000C07F99999919FFFF7F000000008059
:104F3800000000000000807F000080FFCBCC0C0048
:104F48001FB5037A03F07F03033B052B38D8DFE84E
:104F580003F0070703030522006814E000680DE06A
:104F6800016801A8FFF71EFF9DF80C300198072B78
:104F780004D0082B0CD0062B22D104E0B0F1004F4E
:104F88001ED840421DE0B0F1004F28BF002018E0B5
:104F9800DDED027A01E0D0ED007A9FED0B7AF4EEB8
:104FA800C77AF1EE10FA0BDB9FED087AF4EEC77AB8
:104FB800F1EE10FA04D8FDEEE77A17EE900A00E059
:104FC800002005B05DF804FB000000CF0000004F92
:104FD80038B5044608460D4602F051FF29460246F8
:104FE8002068FFF72DF963681844606038BD10B574
:104FF80003680446186801F0A9FE6368013363601A
:1050080010BD000070B505460C4619B91149FFF7E7
:10501800DFFF70BD2221FFF7EAFF013C14F8011FF2
:1050280071B10D4B13F8026C7EB1023313F8032CE7
:105038008A42F7D15C212846FFF7D9FF314604E0C0
:1050480022212846FFF7D3FF70BD2846FFF7CFFF80
:10505800E4E700BFCF7E0D00C27E0D000000000017
:10506800F8B5DFED557AB4EEE70A0623F1EE10FA4B
:105078002DED028B0446B0EE408A83721CDB4F4B49
:105088004F4AA3F118010025202772ED017AF4EEAA
:10509800C87AF1EE10FA9CBFD3ED057AED19A3F1A9
:1050A80004039CBF28EE278A2DB299424FEA67076E
:1050B800EBD14FF0FF3602E0202705260025B5EE9C
:1050C800C08AF1EE10FA21DD18EE100A02F022FB78
:1050D80037A3D3E9002302F0EDFDB8B1394A3A49C4
:1050E800731C13D0B300D018D0ED007AF4EEC87A50
:1050F800F1EE10FA06DD0B44D3ED007AED1B28EE35
:10510800278A2DB2013E7F1076B2E9E7FCEEC87A15
:105118002E49258117EE903A17EE902AC4ED007AB1
:105128000A26092A07D9B1FBF6F1B2FBF6F2A07AF2
:105138000138A072F5E707EE903AB8EE670A07EE75
:10514800901A38EE408AB8EEE70A28EE008AFCEE9C
:10515800C87AB8EE670A17EE900A38EE408A38EE39
:10516800088ABCEEC88A18EE102A0244914201D976
:1051780062600AE000220133626023602DB1092BCE
:1051880081BF01350123258123600A216368B3FBB0
:10519800F1F201FB12333BB994F90A30002B03DD1D
:1051A800013B6260A372F1E7BDEC028B2046F8BDBB
:1051B800F168E388B5F8E43E8096184B70E3032065
:1051C800A0E3032058E3032088E3032040420F00B4
:1051D80010B5521A04460068FFF732F8636818449D
:1051E800606010BD30B587B00B460DF116010A4658
:1051F8000A25B3FBF5F405FB1433303301F8013D00
:105208002346002CF5D1FFF7E3FF07B030BD0000BF
:10521800F0B52DED028BB4EE400AF1EE10FA8BB02A
:105228000446B0EE408A01D73D4914E0B5EEC00A05
:10523800F1EE10FA04D52D21FFF7D9FEB1EE488A18
:105248009FED387AF0EEC87AF4EE477AF1EE10FA6C
:1052580004DD35492046FFF7BBFE5CE0B0EE480AA6
:1052680001A8FFF7FDFE01992046FFF7BBFF9DF956
:105278000E10C9B108AD029B08462A460A27013814
:1052880040B2461C08D0B3FBF7F607FB16333033A1
:1052980005F8013D3346F2E7C9B2511A2E2301F849
:1052A800013D2046FFF794FFBDF90C30002B17DABB
:1052B8001E492046FFF78CFEBDF90C300DF1260182
:1052C8005B420A460A2593FBF5F005FB10333033A1
:1052D80001F8013D03460028F5D12046FFF778FF85
:1052E800BDF90C30002B16DD65212046FFF77FFE47
:1052F8000DF12601BDF90C300A460A2593FBF5F09D
:1053080005FB1033303301F8013D03B2002BF5D112
:105318002046FFF75DFF0BB0BDEC028BF0BD00BF70
:10532800D47E0D00FFFF7F7FDB7E0D00D87E0D0051
:1053380038B5037A03F07F03052B05460C4667D082
:1053480008D8002B6AD0022B54D901682046FFF7F1
:1053580059FE38BD082B15D00AD8062B53D0072B79
:105368005CD105682D212046FFF741FE29464BE018
:10537800202B1ED0402B51D15B212046FFF737FE52
:105388002D6812E090ED000A0846FFF741FF38BD8E
:1053980028462146FFF7CCFF2846FEF70FFF0546B3
:1053A80028B12C212046FFF722FE002DF0D15D21E7
:1053B8001CE07B212046FFF71AFE2D68ADB1E96895
:1053C8002046FFF71FFE3A212046FFF710FE284629
:1053D8002146FFF7ADFF2846FEF7F0FE054620B14F
:1053E8002C212046FFF703FEE8E77D212046FFF742
:1053F800FEFD38BD90E806002068FEF721FF6368CF
:105408001844606038BD01682046FFF7EBFE38BDE0
:1054180003680BB1044902E0044900E0044920464E
:10542800FFF7D6FD38BD00BFE47E0D00E97E0D0014
:10543800CF7E0D001FB504AB143043F80C1D02934A
:105448004FF00003039303D002A9FFF771FF03E0B5
:10545800034902A8FFF7BCFD039805B05DF804FBFB
:10546800CF7E0D0070B5334B33491B7892B005469B
:105478008DF8003002683C230AA800F0DFFE0B9C80
:105488007CB16368013B63605BB9236820469B6815
:105498009847A368013BA3601BB923682046DB68D3
:1054A80098474FF000024FF480610AA80BAEFEF750
:1054B800D5FF4FF00A0229463046FFF70FFC03A933
:1054C8008DF80C0006A8FEF70DFF069B1BB9079D7B
:1054D80015F0010502D04FF0FF3524E0174C1849AC
:1054E8000591224604F110000496FFF734F804A948
:1054F800089008A80994FFF75AF81249059122461E
:1055080004F110000496FFF726F804A9089008A8EB
:105518000994FFF74CF80C490C4801F0EFFB0B49D4
:10552800201FFFF787FF0B9800F082FC284612B077
:1055380070BD00BF0CE40320EF7E0D0024E40320BF
:10554800F77E0D00FC7E0D00CE7E0D006CE403207E
:1055580070B52DED028B8AB05D4C5E4D04940595B7
:1055680004AB5D4A5D4E93E80300FFF72CF8002872
:1055780057D004F110005A49FFF70CF8044610B14F
:10558800FFF7DEFC0446524A554902F11000FEF7C7
:10559800E2FF611EFEF77BFF002C3AD151495248C9
:1055A800FEF7F8FF20B1FFF7CBFC08B1451E00E07D
:1055B8000225474C4B49224604F11000FEF7CBFF69
:1055C8002946FEF764FF022D06D1484B039302AB30
:1055D80006930294464B0FE0012D06D1434B0393EB
:1055E80002AB06930294434B06E095B93F4B0393F5
:1055F80002AB0693404B029439490793224604F1C3
:105608001000FEF7A8FF06A9089008A80994FEF75D
:10561800F3FF33493448FEF7BDFFFFF785FB707091
:105628001CE00694079506AB344A93E80300FEF79E
:10563800CAFF98B12D4B2B490193224604F1100063
:1056480003910094CDF808D0FEF785FF02A90890D1
:1056580008A80994FEF7D0FFFF237370284800F0CC
:10566800DDFF1B4A274902F11000B0EE408AFEF721
:1056780072FF024628B108210844FEF74BFD82ED6F
:10568800008A214C2149204601F038FB2146204858
:10569800FFF7D0FE01F0B6FC216801F052FA11497B
:1056A8001148FEF777FFFFF73FFB307001F096FBDC
:1056B80008900898C6F8020001F002FC0368074940
:1056C800DB68062298470AB0BDEC028B70BD00BFAC
:1056D80024E40320F77E0D00097F0D005CE403201D
:1056E800117F0D00197F0D0034E40320FC7E0D00AE
:1056F8001F7F0D00297F0D00347F0D003C7F0D00BA
:1057080064E40320437F0D006CE40320CE7E0D008B
:1057180020E4032030B52DED028B89B0002301224F
:10572800184647F230510792082406AA0693ADF8A6
:10573800184000F015FB01F065FC4FF4E13101F071
:1057480055FC01F0BDFB4FF4E13101F0B5FB4FF022
:105758000A023D493D48FFF7C1FA3D4800F05EFFA7
:105768003A4A3C4902F11000B0EE408AFEF7F3FED7
:10577800024628B121462044FEF7CCFC82ED008A7F
:10578800324C3549354D224604F11000FEF7E3FE50
:105798000221FEF77CFE324B039302AB22460493B0
:1057A8003049314B059304F110000294FEF7D3FE03
:1057B80004A9069006A80794FEF71EFF2B49201F90
:1057C800FFF738FE244904F11000FEF7E3FEFFF767
:1057D800ABFA2449287004F11000FEF7DBFEFFF74E
:1057E800A3FA687001F0FAFA04900498C5F8020068
:1057F80001F066FB03681E4CDB68062229469847C1
:105808000823ADF818301B4B0793042206AB174941
:10581800114800F075FA184A1849194800F0D7FBE2
:10582800002211462046FEF78BFCA06840B10023F9
:105838006FF000428DE80C0019461A4600F0ECF8AB
:1058480009B0BDEC028B30BD10E4032024E4032032
:1058580064E40320437F0D00197F0D005CE40320FE
:10586800FC7E0D00117F0D001F7F0D006CE40320EE
:1058780040E40320B3400D004B7F0D006D540D0034
:10588800AB5F0D00F0B5324B324C334E334F89B01D
:1058980000251D7000F000F93149204601F001FA99
:1058A8002046304C3246394601F07EFC2E492046CF
:1058B80001F0F7F920462D4C3246394601F074FCC8
:1058C8004FF000024FF480612046FEF7C7FD2046E6
:1058D800274C2849324601F067FC2946204600F04B
:1058E8005DFE32462449204601F05EFC234B0493BA
:1058F80004AF234C234B236097E8030002AA04F16A
:105908000C0382E8030093E8030087E8030092E8A9
:10591800030083E803001C4B6361A36907931B4BD7
:10592800A3612571A5602346194A01954FF47A7140
:10593800009504F10800069500F056F83846FEF781
:10594800F6FB32461349204601F02EFC09B0F0BDA3
:105958000CE4032010E4032008E403201D6C0D0070
:10596800567F0D006CE40320CE7E0D0020E403205A
:1059780064E4032029410D00C3650D0059550D004D
:1059880040E40320B47E0D00BD400D00B9400D0079
:10599800E1400D0069410D0008B5024B1B689B688A
:1059A800019308BD4802030008B5024B1B68DB6879
:1059B800019308BD4802030008B5024B1B681B6928
:1059C800019308BD4802030008B5024B1B685B69D8
:1059D800019308BD4802030008B5024B1B68DB6948
:1059E800019308BD4802030008B5024B1B681B6AF7
:1059F800019308BD4802030008B5024B1B685B6AA7
:105A0800019308BD4802030008B5024B1B689B6A56
:105A1800019308BD4802030008B5024B1B68DB6A06
:105A2800019308BD4802030008B5024B1B681B6BB5
:105A3800019308BD4802030008B5024B1B685B6C64
:105A4800019308BD4802030008B5024B1B681B6F91
:105A5800019308BD4802030008B5024B1B685B6848
:105A6800019308BD1802030008B5024B1B685B6967
:105A7800019308BD1802030008B5024B1B68DB69D7
:105A8800019308BD1802030008B5024B1B689B6D03
:105A9800019308BD1802030008B5024B1B681B6878
:105AA800019308BD2C02030008B5024B1B685B6913
:105AB800019308BD2802030008B5024B1B689B69C7
:105AC800019308BD2802030008B5024B1B68DB6977
:105AD800019308BD2802030008B5024B1B681B6A26
:105AE800019308BD2802030008B5024B1B685B6AD6
:105AF800019308BD2802030008B5024B1B689B6A86
:105B0800019308BD2802030008B5024B1B68DB6A35
:105B1800019308BD2802030008B5024B1B681B6BE4
:105B2800019308BD2802030008B5024B1B681B6CD3
:105B3800019308BD2802030008B5024B1B689B6C43
:105B4800019308BD2802030008B5024B1B68DB6CF3
:105B5800019308BD2802030008B5024B1B685B6966
:105B6800019308BD6402030008B5024B1B689B68DB
:105B7800019308BD6802030008B5024B1B68DB6887
:105B8800019308BD6802030008B5024B1B68DB6976
:105B9800019308BD3002030008B5024B1B681B685F
:105BA800019308BD3C02030008B5024B1B68DB6883
:105BB800019308BD3C02030008B5024B1B681B6932
:105BC800019308BD3C02030008B5024B1B685B69E2
:105BD800019308BD3C02030008B5024B1B689B6992
:105BE800019308BD3C02030008B5024B1B68DB6942
:105BF800019308BD3C02030008B5024B1B689B6A71
:105C0800019308BD3C02030008B5024B1B68DB6A20
:105C1800019308BD3C02030008B5024B1B681B68D2
:105C2800019308BD4C02030008B5024B1B685B6872
:105C3800019308BD4C02030008B5024B1B681B69A1
:105C4800019308BD4C02030008B5024B1B685B6951
:105C5800019308BD4C02030008B5024B1B689B6901
:105C6800019308BD4C02030008B5024B1B68DB69B1
:105C7800019308BD4C02030008B5024B1B681B6A60
:105C8800019308BD4C02030008B5024B1B681B6852
:105C9800019308BD2002030008B5024B1B685B682E
:105CA800019308BD2002030008B5024B1B68DB6C9A
:105CB800019308BD2002030008B5024B1B685B6D09
:105CC800019308BD2002030008B5024B1B689B6DB9
:105CD800019308BD2002030008B5034B1B68D3F8E5
:105CE8008830019308BD00002002030008B5034B6B
:105CF8001B68D3F89430019308BD0000200203000C
:105D080008B5024B1B681B68019308BD44020300D9
:105D180008B5024B1B685B68019308BD4402030089
:105D280008B5024B1B689B68019308BD4402030039
:105D380008B5024B1B685B69019308BD4402030068
:105D480008B5024B1B681B6A019308BD4402030097
:105D580008B5024B1B681B6B019308BD4402030086
:105D680008B5024B1B689B6B019308BD44020300F6
:105D780008B5024B1B68DB6B019308BD44020300A6
:105D880008B5024B1B685B68019308BD400203001D
:105D980008B5024B1B689B68019308BD40020300CD
:105DA80008B5024B1B68DB68019308BD400203007D
:105DB80008B5024B1B681B69019308BD400203002C
:105DC80008B5024B1B685B69019308BD40020300DC
:105DD80008B5024B1B689B69019308BD400203008C
:105DE80008B5024B1B68DB69019308BD400203003C
:105DF80008B5024B1B681B6A019308BD40020300EB
:105E080008B5024B1B681B6B019308BD40020300D9
:105E180008B5024B1B685B6B019308BD4002030089
:105E280008B5024B1B681B68019308BD1C020300E0
:105E380008B5024B1B685B68019308BD1C02030090
:105E480008B5024B1B689B68019308BD1C02030040
:105E580008B5024B1B68DB6A019308BD1C020300EE
:105E680008B5024B1B681B6B019308BD1C0203009D
:105E780010B5836804460BB901F09DF9C3689847CB
:105E8800A3681BB1032221462046984720461021CB
:105E9800BDE8104001F08DB9002211464068FFF7B7
:105EA80087BF002211464068FFF7A2BF00221146B3
:105EB8004068FFF7ADBF00224068FFF7A1BF00228E
:105EC80081F001014068FFF78BBF00231A4619468D
:105ED8004068FFF77DBF00231A4619464068FFF760
:105EE8006FBF002211464068FFF752BF002202210F
:105EF8004068FFF755BF00231A464068FFF740BFC8
:105F080038B50C4C28252A460021204601F059FFB7
:105F18004FF0FF3363602580074C042320466360FD
:105F28002C25064B40F8083B2A46002101F049FF82
:105F3800258138BDB0E403207CE40320B07F0D0048
:105F480070470020704710B51021044601F031F960
:105F5800204610BD08B508B1FFF7F5FF08BD38B5F4
:105F6800C468ECB12378022B02D1E068FFF760FF28
:105F7800656835B12846FEF7DAF81021284601F0A1
:105F880018F9A56835B12846FEF7D1F8102128463A
:105F980001F00FF920461421BDE8384001F009B995
:105FA80038BD10B588B00446684600F07AFE6946E8
:105FB80004A800F098FE04A8A047044604A800F02E
:105FC80029FE684600F026FE204608B010BDF0B550
:105FD800102485B007460E4615460021224668461D
:105FE80001F0EFFE002269461046ADF80040029726
:105FF80003960195FFF78CFE05B0F0BD38B504682F
:1060080005467CB16368013B63605BB92368204641
:106018009B689847A368013BA3601BB92368204687
:10602800DB689847284638BD13B5044691E8050053
:1060380000234B600B602060626001A8019300930D
:10604800FFF7DCFF204602B010BD0B68036013B1F8
:106058005A6801325A607047F7B50C4602AD54F8D9
:10606800043B45F8083D06460F4601A82146FFF7C0
:10607800ECFF29463046FFF7D7FF01A8FFF7BEFF20
:106088002046FFF7BBFF3846082101F092F830465A
:1060980003B0F0BD13B50B46044603C88DE80300F2
:1060A80093E8030084E803009DE8030083E8030005
:1060B80002B010BD826810B50AB901F07CF8C36857
:1060C800BDE81040184708B5006800F11001FFF757
:1060D800F1FF08BD826810B50AB901F06CF8C36811
:1060E800BDE81040184708B5006800F11001FFF737
:1060F800F1FF08BD38B5002383608B6804460D4660
:106108002BB102229847EB68E360AB68A360204696
:1061180038BD00002DE9F0414FF69C7386B0046845
:10612800B1F904208B8000230F688DF800300B60D4
:106138004FF00200D4E84F1F994203D1C4E8450F3D
:10614800002DF7D102D08DF800106BE014F10C058A
:106158001EBFE76022821F460123BFF35F8F002026
:10616800637004F10803BFF35F8F53E8006F43E8DF
:106178000002002AF9D1BFF35F8F002E52D0FFF73B
:1061880093FD20B129463046FFF794FF43E031469E
:106198006846FFF7AFFFE068B4F9105008B101F0A6
:1061A80053FE04901020ADF81450FDF770FF05461B
:1061B80030B34FF00008C0F808801820FDF767FFDB
:1061C8000446C0B1C0F8088001466846FFF762FF80
:1061D800029BA268A360039B0292E268E360BDF899
:1061E8001430A3824FF69C73ADF81430049B0392CD
:1061F8002361CDF810800E4BEB600E4B2C60AB602A
:106208000498FFF715FE6846FDF791FF002229461E
:106218000948FFF751FD3046FDF789FF1021304648
:1062280000F0C7FF3846FFF703FE06B0BDE8F0816F
:10623800CF600D002D630D00795E0D002DE9F04F44
:106248008BB007AD4FF0000B0646994614200C237F
:106258000F4690469DF850A0C5F804B0C5F808B0A0
:106268000793FDF714FF044638B180F800B080F8B2
:1062780001B0C0F804B0C0F808B00023102003949F
:106288000493FDF704FF28B1012343608360234B87
:106298000360C4600490224B08930820FDF7F7FEC2
:1062A800044628B1039B40F8043B04A9FFF7CDFE40
:1062B80000955FFA8AF34A46414638460994FFF743
:1062C8003FFDB8B9039B5B7803F0FF0293B94FF623
:1062D8009C7305A903A80592ADF81830FFF71AFFBB
:1062E8000598FFF7A5FD05A80999FFF7B5FE06A8CB
:1062F800FFF784FE039B059304A906A8FFF7A5FEF4
:1063080005A93046FFF790FE06A8FFF777FE04A818
:10631800FFF774FE30460BB0BDE8F08FE47F0D0048
:1063280099640D00022AF8B5044606D0032A17D04E
:10633800012A21D10B6803601EE018200E68FDF7C2
:10634800A6FE054650B13146FFF7D4FE3069B6F9CE
:10635800147008B101F078FD2861AF8225600BE068
:1063680004684CB12069FFF763FD2046FDF7DFFEA6
:106378001821204600F01DFF0020F8BD38B5002385
:1063880083608B6804460D462BB102229847EB6860
:10639800E360AB68A360204638BD022A70B50446A6
:1063A80006D0032A11D0012A18D10B68036015E022
:1063B80014200E68FDF76BFE054620B13146FFF745
:1063C800DDFF337C2B74256008E0046834B1204677
:1063D800FDF7ADFE1421204600F0EBFE002070BD55
:1063E800F0B5002387B00C46BFF35F8F50E8006F0D
:1063F80040E80032002AF9D1BFF35F8F002E3FD06A
:106408001846FFF751FC074620B121463046FFF7F2
:1064180061FE2EE0314601A8FFF7B0FF23788DF822
:1064280014301020FDF733FE0546D0B187601420E4
:10643800FDF72DFE044678B18760014601A8FFF7F5
:1064480029FE039BA268A360049B0392E268E360B1
:106458009DF81430049223740A4BEB600A4B2C60AD
:10646800AB6001A8FDF763FE002229460748FFF745
:1064780023FC3046FDF75BFE1021304600F099FE04
:1064880007B0F0BDEF600D00A3630D00795E0D004D
:1064980030B585B004460D4668461146FFF7DCFD69
:1064A8007CB124B228460DB101F0CEFC029002A9BD
:1064B8006846ADF80C40FFF72DFE0298FFF7B8FCD0
:1064C8001DE000988DF808404FF00102D0E84F3FDA
:1064D800A34203D1C0E8412F0029F7D102D08DF89B
:1064E80008300CE010F10C014FF0010318BF0373E2
:1064F800BFF35F8F043000F8033CFFF771FF01A87A
:10650800FFF77CFD05B030BD002211464068FFF75B
:106518006FBC002211464068FFF77ABC0022406831
:10652800FFF76EBC002281F001014068FFF758BCFC
:1065380000231A4619464068FFF74ABC00231A464A
:1065480019464068FFF73CBC002211464068FFF737
:106558002FBC002211464068FFF71ABC0022022116
:106568004068FFF71DBC00231A464068FFF708BCC7
:10657800024B03225A60024A1A607047D8E403208B
:1065880000800D00006800F0C6B810B50446016030
:1065980002710AB1FFF7F6FF204610BD38B5044670
:1065A8000D4600F0BFFD2A4601462046FFF7EDFFE5
:1065B800204638BD006800F0B7B810B50379044626
:1065C8000BB1FFF7F7FF204610BDF8B50446164695
:1065D8001D460F46FFF7D6FF2068362100F094F8D5
:1065E8002068036839469B6898470121206800F0B5
:1065F8008EF8022236210123206800F07CF82068FA
:1066080003685B6998473070206803685B6998473E
:1066180028702046BDE8F840FFF7CCBF07B502ABAD
:10662800002203F8012D8DF8062004210DF1060241
:10663800FFF7CBFF9DF8070001F05AF80022094B3D
:1066480001F0BCF801F054FB9DF8063000EE103A5A
:1066580007EE900AB8EEC00A37EE800A03B05DF87C
:1066680004FB00BF0000703F7047F8B506461546AA
:106678000C468F18BC4206D0336814F8011B9B687F
:1066880030469847F6E72846F8BD0022007CFFF719
:1066980023BA0021007CFFF727BA0021007CFFF70E
:1066A8002BBA0021007CFFF72FBA0021007CFFF7EE
:1066B80033BA10B51421044600F07BFD204610BD06
:1066C80010B504464FF47A730846A3600021044BC2
:1066D800207461602360FFF727FA204610BD00BFD1
:1066E80034800D0013B50024007C0094FFF7DCF91A
:1066F800C0B202B010BDDBB2D2B2C9B2FFF7F2BF6E
:106708000022007CFFF7D8B9C9B2FFF7F9BF002211
:10671800007CFFF7D9B908B50021007CFFF70CFA17
:10672800B0FA80F0400908BD08B50021007CFFF7E9
:106738000BFAB0FA80F0400908BD704710B518216F
:10674800044600F036FD204610BDF0B5037D062B4B
:106758008DB00E4600F104074FF0000402D000F19E
:10676800080518E00CAD394605F8304D2F232A46A8
:106778000A20FFF7F1F9284601F081FB3368024649
:10678800DB682946304698470FE024B12E21304671
:1067980000F0C8F9044415F8011D0A22304600F03B
:1067A80007FABD420444F0D120460DB0F0BD000008
:1067B80010B5054B0446112240F8043B002101F0B6
:1067C80000FB204610BD00BF5C800D000346074A51
:1067D80010B543F8042B01F1100251F8044B43F8AB
:1067E800044B9142F9D10A781A7010BD5C800D00F3
:1067F80010B59DF8084044EA032343EA024242EAFE
:10680800016104234160037510BD37B50D788B789D
:106818004A78C97800912946FFF7EAFF03B030BDEE
:10682800014B024A1A607047E0E403201E810D0004
:10683800002211464068FFF7DBBA00221146406883
:10684800FFF7E6BA00224068FFF7DABA002281F0C3
:1068580001014068FFF7C4BA00231A461946406888
:10686800FFF7B6BA00231A4619464068FFF7A8BAD8
:10687800002211464068FFF79BBA00221146406883
:10688800FFF786BA002202214068FFF789BA002381
:106898001A464068FFF774BA38B5054688B10468E7
:1068A8004CB1A3681BB1032221462046984710210A
:1068B800204600F07EFC28461421BDE8384000F050
:1068C80078BC38BD10B103685B681847704710B5CD
:1068D80003680446BBB15868FFF75EF878B92368C7
:1068E8005A7C12B95868FFF767F823685868FFF7A9
:1068F8006BF820680023236028B1FFF7CDFF2068DC
:1069080008B1FFF7C9FF204610BD000038B50C4B91
:1069180003600446D0F8CC0108B1FDF7BCFBD4F8FD
:10692800C45135B12846FFF7D2FF0421284600F0AC
:1069380040FCA06808B1FFF7C5FF204638BD00BF7E
:1069480050810D0038B50D4C0D4B236000250223F6
:1069580004F5E4706360A560C4F8C451C4F8C85174
:10696800FFF76AF8074BC4F8CC5123602046064A63
:106978000649BDE8384000F017BC00BFE4E4032036
:1069880084810D0050810D0008E4032015690D0075
:1069980000231A464068FFF7F3B900220221406835
:1069A800FFF7FEB9002211464068FFF7F1B900224F
:1069B80011464068FFF7FCB900231A46194640689B
:1069C800FFF7FEB900231A4619464068FFF700BAD8
:1069D800002281F001014068FFF702BA00224068F6
:1069E800FFF70EBA002211464068FFF711BA0022DD
:1069F80011464068FFF7FCB92DE9F043002495B033
:106A080016460D460746FFF7D3FE214620220CA85E
:106A1800009401F0D6F940230C9321466B460CAA4A
:106A28003046FFF7A9F80446002844D10246012160
:106A38006868FFF7BDF90221804622466868FFF7BB
:106A4800B7F9009E81462146002E34D0002932D164
:106A58007368022B02D00A2B09D02AE0B8F1000F84
:106A680027D0716938460431FFF7CFFE20E0B9F12D
:106A7800000F1ED07469112201A801F0A2F90623A3
:106A88008DF8143001AD04F10803183418685968FA
:106A98002A4603C20833A3421546F7D101A906A81E
:106AA80007ADFFF793FE0FCD3C1D0FC42B68237075
:106AB8000121F669C8E70098FFF756F8384615B07F
:106AC800BDE8F083024B034A1A6000225A607047FF
:106AD800B4E6032084810D00F8B506460D468F18EC
:106AE8000024BD420CD0336815F8011B9B68304662
:106AF8009847002801DB0444F3E7002C08BF04464C
:106B08002046F8BD70B505460C46084649B101F067
:106B1800B6F92B68024621462846DB68BDE8704076
:106B2800184770BD03689B68184738B50D2105469E
:106B3800FFF7F8FF0A2104462846FFF7F3FF204431
:106B480038BD38B50546FFF7DDFF04462846FFF790
:106B5800ECFF204438BD30B58BB00B4600218DF8D2
:106B68002410012A98BF0A220DF12304B3FBF2F581
:106B780005FB123303F0FF03092B94BF303337337F
:106B8800DBB2214604F801392B46002DEED1FFF780
:106B9800B9FF0BB030BD10B42AB903685DF8044BD7
:106BA8009B68C9B21847D2B25DF8044BFFF7D3BF50
:106BB800FFF7F1BF10B50446FDF7B9FA204610BD3E
:106BC8000348044A04490023836000F0EDBA00BF7B
:106BD800BCE6032008E40320BD6B0D00704710B528
:106BE8001021044600F0E5FA204610BD70B5084BA8
:106BF8000360044600250E4640F80C5FFEF714FFBC
:106C080030462671FEF7C0FFA560204670BD00BF64
:106C1800B8810D0010B504460068FFF709F9204651
:106C280010BD10B50446006808B1FFF701F900234C
:106C38002360A360636010BD38B504460D46006844
:106C48000131FFF7FDF810B184E82100012038BDBB
:106C580010B50368044613B143688B4207D2204637
:106C6800FFF7EAFF20B1A3680BB92268137001206F
:106C780010BD70B50E46114604461546FFF7E8FFED
:106C880018B92046FFF7CDFF09E02A463146A5602E
:106C9800206801F08BF82268A3680021D1542046AF
:106CA80070BD38B5002304460360436083600373F6
:106CB8000D4639B1084601F0E2F829460246204659
:106CC800FFF7D7FF204638BD884210B50B4604466B
:106CD80007D0096819B19A68FFF7CBFF01E0FFF701
:106CE800A0FF204610BD10B5002304460360436092
:106CF80083600373FFF7E8FF204610BD38B50546EB
:106D08000C4641B1084601F0BAF821460246284629
:106D1800FFF7AFFF01E0FFF784FF284638BD70B5E5
:106D280004460E4609B9002070BD6AB18368D518BB
:106D38002946FFF78DFF0028F5D02068A368314663
:106D4800184401F079F8A560012070BD07B500234B
:106D58008DF80410012201A98DF80530FFF7DFFF37
:106D680003B05DF804FB0000044B00204FF6FF72EF
:106D7800187058809A80FEF78FBF00BFCCE60320BA
:106D880008B50020FEF7E4FF28B1FEF7D1FF80F038
:106D98000100C0B208BD012008BD10B50020FEF7F3
:106DA80073FE044668B9FEF76FFF01280BD1204631
:106DB800FEF78AFF38B9FFF7E3FF30B9FEF7B0FFF7
:106DC800F9E7012010BD002010BDFFF7D9FF002012
:106DD800FEF75AFE003018BF012010BD08B5FFF7B6
:106DE800DCFFBDE80840FEF747BE0000024B1A680A
:106DF800024B1A60704700BFA0E30320D4E60320CB
:106E080070474174704708B5007CFEF7F5FE20EA2C
:106E1800E07008BD08B5007CFEF7CEFE20EAE07001
:106E280008BD08B5007CFEF7D7FE30EA200028BF71
:106E38004FF0FF3008BD08B5007CFEF7C5FE30EA0C
:106E4800200028BF4FF0FF3008BD007CFEF7CCBE05
:106E580010B51421044600F0ACF9204610BD70B5F9
:106E6800457C04460E4625B9007CFEF7C5FE002881
:106E780005DD3146207CBDE87040FEF795BE28460A
:106E880070BD000010B50446084611460022626035
:106E98004FF47A72A260054A22600122207462745B
:106EA8001A46FEF779FE204610BD00BFF4810D009A
:106EB8000023007CFEF7A8BE0022FFF7F9BF000000
:106EC800F8B5194C25684DB98420FDF7E0F8064659
:106ED80018B18422294600F074FF2660134D2E68ED
:106EE8004EB98420FDF7D3F8074618B184223146FD
:106EF80000F067FF2F600E4F396811F0010611D1BD
:106F08003846FDF7CAF868B122682B680948314647
:106F1800FFF7B8FF3846FDF7C5F8074A074905489F
:106F280000F042F90348F8BDF4E60320ECE603203C
:106F3800F0E60320D8E6032008E40320096E0D00DC
:106F480041747047704708B50021007CFEF784FE45
:106F580030EA200028BF4FF0FF3008BD08B50121F6
:106F6800007CFEF779FE30EA200028BF4FF0FF30A2
:106F780008BD08B5007CFEF767FE20EAE07008BD92
:106F880008B5007CFEF758FE20EAE07008BD007CDA
:106F9800FEF772BE10B51421044600F00AF9204627
:106FA80010BD38B50446007C0D46FEF74DFE00289E
:106FB80001DC607C28B12946207CFEF755FE20EADA
:106FC800E07038BD10B50446002363604FF47A734F
:106FD800A360054B2360012308462174637411469E
:106FE800FEF71AFE204610BD24820D000022007C08
:106FF800FEF71ABE10B514220446002100F0E1FE87
:10700800204610BD30B50E4D87B001A8FFF7F2FF3E
:10701800296811F0010410D12846FDF73EF860B147
:1070280001AA21460748FFF7CDFF2846FDF73AF8A1
:10703800054A0649034800F0B7F8024807B030BDD2
:10704800F8E60320FCE6032008E403204D6F0D005A
:1070580008B50C4B33B1FFF7D5FF03681B69984798
:10706800002809DC084B63B1FFF72AFF03681B6996
:107078009847002803DC08BDAFF30080F2E7AFF3C0
:10708800008008BD000000000000000008B5FFF700
:10709800DFFFFEF7E9FC014B186008BD14E7032089
:1070A80007B5002300931A466FF07701FEF71EFE1E
:1070B80003B05DF804FB000007B543880A2B08D02D
:1070C800502B09D1094B1B683BB103B05DF804EBA9
:1070D8001847FFF7E5FF06E0002300931A466FF014
:1070E8007701FEF703FE03B05DF804FB10E7032009
:1070F80010B5FEF7B1FC044600F06CFE074B13B167
:107108002046AFF3008000210448FEF731FE00213D
:107118000348BDE81040FEF7DFBD00BF00000000D7
:10712800C1700D0010B50B4C2368DB070FD4204647
:10713800FCF7B3FF58B101210748FFF7C1FA204611
:10714800FCF7B0FF054A0649034800F02DF802484D
:1071580010BD00BF2CE7032018E7032008E4032034
:1071680071660D0070B50C4C0C4E0D4D002120467B
:10717800FFF73CFD20460B4C3246294600F014F838
:1071880001212046FFF732FD324629462046BDE858
:10719800704000F009B800BF30E7032008E403207E
:1071A800E56B0D0040E703200B460146184600F04A
:1071B800EFBDFCF76EBF08B5FEF74AFE244B1A6810
:1071C800D0075CBF01221A60224B1A68D1075CBF46
:1071D80001221A60204B1A68D2075CBF01221A608C
:1071E8001E4B1A68D0075CBF01221A601C4B1A6834
:1071F800D1075CBF01221A601A4B1A68D2075CBF1C
:1072080001221A60184B1A68D0075CBF01221A6065
:10721800164B1A68D1075CBF01221A60144B1A6812
:10722800D2075CBF01221A60124B1A68D0075CBFF4
:1072380001221A60104B1A68D1075CBF01221A603C
:107248000E4B1A68D2075CBF01221A60704700BF54
:107258007CE7032078E7032074E7032070E7032026
:107268006CE7032068E7032064E7032060E7032056
:107278005CE7032058E7032054E7032050E7032086
:10728800184B1A68D1075CBF01221A60164B1A689E
:10729800D2075CBF01221A60144B1A68D0075CBF82
:1072A80001221A60124B1A68D1075CBF01221A60CA
:1072B800104B1A68D2075CBF01221A600E4B1A687D
:1072C800D0075CBF01221A600C4B1A68D1075CBF5B
:1072D80001221A600A4B1A68D2075CBF01221A60A1
:1072E800704700BF9CE7032098E7032094E703203A
:1072F80090E703208CE7032088E7032084E7032036
:1073080080E70320184B1A68D1075CBF01221A6076
:10731800164B1A68D2075CBF01221A60144B1A6810
:10732800D0075CBF01221A60124B1A68D1075CBFF4
:1073380001221A60104B1A68D2075CBF01221A603A
:107348000E4B1A68D0075CBF01221A600C4B1A68F2
:10735800D1075CBF01221A600A4B1A68D2075CBFCA
:1073680001221A60704700BFBCE70320B8E703207A
:10737800B4E70320B0E70320ACE70320A8E7032025
:10738800A4E70320A0E70320244B1A68D0075CBFBA
:1073980001221A60224B1A68D1075CBF01221A60C9
:1073A800204B1A68D2075CBF01221A601E4B1A686C
:1073B800D0075CBF01221A601C4B1A68D1075CBF5A
:1073C80001221A601A4B1A68D2075CBF01221A60A0
:1073D800184B1A68D0075CBF01221A60164B1A684E
:1073E800D1075CBF01221A60144B1A68D2075CBF30
:1073F80001221A60124B1A68D0075CBF01221A607A
:10740800104B1A68D1075CBF01221A600E4B1A682C
:10741800D2075CBF01221A60704700BFECE7032067
:10742800E8E70320E4E70320E0E70320DCE70320A4
:10743800D8E70320D4E70320D0E70320CCE70320D4
:10744800C8E70320C4E70320C0E7032081F0004118
:1074580002E000BF83F0004330B54FEA41044FEA31
:10746800430594EA050F08BF90EA020F1FBF54EACC
:10747800000C55EA020C7FEA645C7FEA655C00F068
:10748800E2804FEA5454D4EB5555B8BF6D420CDD39
:107498002C4480EA020281EA030382EA000083EABC
:1074A800010180EA020281EA0303362D88BF30BD5C
:1074B80011F0004F4FEA01314FF4801C4CEA1131B2
:1074C80002D0404261EB410113F0004F4FEA033311
:1074D8004CEA133302D0524263EB430394EA050F9C
:1074E80000F0A780A4F10104D5F1200E0DDB02FA0B
:1074F8000EFC22FA05F2801841F1000103FA0EF29F
:10750800801843FA05F359410EE0A5F120050EF164
:10751800200E012A03FA0EFC28BF4CF0020C43FA95
:1075280005F3C01851EBE37101F0004507D54FF0A2
:10753800000EDCF1000C7EEB00006EEB0101B1F5F2
:10754800801F1BD3B1F5001F0CD349085FEA300038
:107558004FEA3C0C04F101044FEA445212F5800F43
:1075680080F09A80BCF1004F08BF5FEA500C50F1E0
:10757800000041EB045141EA050130BD5FEA4C0CC3
:10758800404141EB010111F4801FA4F10104E9D14C
:1075980091F0000F04BF01460020B1FA81F308BF43
:1075A8002033A3F10B03B3F120020CDA0C3208DD0F
:1075B80002F1140CC2F10C0201FA0CF021FA02F1EA
:1075C8000CE002F11402D8BFC2F1200C01FA02F15A
:1075D80020FA0CFCDCBF41EA0C019040E41AA2BF7F
:1075E80001EB0451294330BD6FEA04041F3C1CDA47
:1075F8000C340EDC04F11404C4F1200220FA04F067
:1076080001FA02F340EA030021FA04F345EA030110
:1076180030BDC4F10C04C4F1200220FA02F001FAD2
:1076280004F340EA0300294630BD21FA04F0294654
:1076380030BD94F0000F83F4801306BF81F48011ED
:107648000134013D4EE77FEA645C18BF7FEA655C60
:1076580029D094EA050F08BF90EA020F05D054EA32
:10766800000C04BF1946104630BD91EA030F1EBF37
:107678000021002030BD5FEA545C05D1400049413B
:1076880028BF41F0004130BD14F580043CBF01F52E
:10769800801130BD01F0004545F0FE4141F4700114
:1076A8004FF0000030BD7FEA645C1ABF19461046EF
:1076B8007FEA655C1CBF0B46024650EA013406BFF0
:1076C80052EA033591EA030F41F4002130BD00BFAF
:1076D80090F0000F04BF0021704730B54FF480646C
:1076E80004F132044FF000054FF0000150E700BFED
:1076F80090F0000F04BF0021704730B54FF480644C
:1077080004F1320410F0004548BF40424FF0000138
:107718003EE700BF42004FEAE2014FEA31014FEA7B
:1077280002701FBF12F07F4393F07F4F81F06051CA
:10773800704792F0000F14BF93F07F4F704730B539
:107748004FF4607401F0004521F0004120E700BFCC
:1077580050EA010208BF704730B54FF000050AE053
:1077680050EA010208BF704730B511F0004502D554
:10777800404261EB41014FF4806404F132045FEA56
:10778800915C3FF4DCAE4FF003025FEADC0C18BFFB
:1077980003325FEADC0C18BF033202EBDC02C2F1F1
:1077A800200300FA03FC20FA02F001FA03FE40EA83
:1077B8000E0021FA02F11444C1E600BF70B54FF083
:1077C800FF0C4CF4E06C1CEA11541DBF1CEA135565
:1077D80094EA0C0F95EA0C0F00F0DEF82C4481EACD
:1077E800030621EA4C5123EA4C5350EA013518BFED
:1077F80052EA033541F4801143F4801338D0A0FBDA
:1078080002CE4FF00005E1FB02E506F00042E0FB86
:1078180003E54FF00006E1FB03569CF0000F18BF8C
:107828004EF0010EA4F1FF04B6F5007F64F5407434
:1078380004D25FEA4E0E6D4146EB060642EAC621C7
:1078480041EA55514FEAC52040EA5E504FEACE2E34
:10785800B4F1FD0C88BFBCF5E06F1ED8BEF1004F37
:1078680008BF5FEA500E50F1000041EB045170BDB3
:1078780006F0004646EA010140EA020081EA0301F7
:10788800B4EB5C04C2BFD4EB0C0541EA045170BDF3
:1078980041F480114FF0000E013C00F3AB8014F16D
:1078A800360FDEBF002001F0004170BDC4F10004B6
:1078B800203C35DA0C341BDC04F11404C4F1200537
:1078C80000FA05F320FA04F001FA05F240EA020092
:1078D80001F0004221F0004110EBD37021FA04F6C8
:1078E80042EB06015EEA430E08BF20EAD37070BD82
:1078F800C4F10C04C4F1200500FA04F320FA05F0E1
:1079080001FA04F240EA020001F0004110EBD370E2
:1079180041F100015EEA430E08BF20EAD37070BD52
:10792800C4F1200500FA05F24EEA020E20FA04F32B
:1079380001FA05F243EA020321FA04F001F00041DA
:1079480021FA04F220EA020000EBD3705EEA430E4B
:1079580008BF20EAD37070BD94F0000F0FD101F07A
:107968000046400041EB010111F4801F08BF013CB3
:10797800F7D041EA060195F0000F18BF704703F0F1
:107988000046520043EB030313F4801F08BF013D78
:10799800F7D043EA0603704794EA0C0F0CEA135534
:1079A80018BF95EA0C0F0CD050EA410618BF52EAEE
:1079B8004306D1D181EA030101F000414FF00000F4
:1079C80070BD50EA410606BF1046194652EA430602
:1079D80019D094EA0C0F02D150EA013613D195EA76
:1079E8000C0F05D152EA03361CBF104619460AD1BE
:1079F80081EA030101F0004141F0FE4141F47001C8
:107A08004FF0000070BD41F0FE4141F4780170BDB7
:107A180070B54FF0FF0C4CF4E06C1CEA11541DBF1C
:107A28001CEA135594EA0C0F95EA0C0F00F0A7F81E
:107A3800A4EB050481EA030E52EA03354FEA01314B
:107A480000F088804FEA03334FF0805545EA13135E
:107A580043EA12634FEA022245EA111545EA106526
:107A68004FEA00260EF000419D4208BF964244F1BD
:107A7800FD0404F5407402D25B084FEA3202B61ADC
:107A880065EB03055B084FEA32024FF480104FF4B0
:107A9800002CB6EB020E75EB030E22BFB61A754624
:107AA80040EA0C005B084FEA3202B6EB020E75EBB7
:107AB800030E22BFB61A754640EA5C005B084FEA1F
:107AC8003202B6EB020E75EB030E22BFB61A7546EC
:107AD80040EA9C005B084FEA3202B6EB020E75EBF7
:107AE800030E22BFB61A754640EADC0055EA060EB8
:107AF80018D04FEA051545EA16754FEA06164FEAFB
:107B0800C30343EA52734FEAC2025FEA1C1CC0D1A6
:107B180011F4801F0BD141EA00014FF000004FF033
:107B2800004CB6E711F4801F04BF01430020B4F1F4
:107B3800FD0C88BFBCF5E06F3FF6AFAEB5EB030CAC
:107B480004BFB6EB020C5FEA500C50F1000041EBA9
:107B5800045170BD0EF0004E4EEA113114EB5C0476
:107B6800C2BFD4EB0C0541EA045170BD41F4801149
:107B78004FF0000E013C90E645EA060E8DE60CEA51
:107B8800135594EA0C0F08BF95EA0C0F3FF43BAF6E
:107B980094EA0C0F0AD150EA01347FF434AF95EA25
:107BA8000C0F7FF425AF104619462CE795EA0C0F09
:107BB80006D152EA03353FF4FDAE1046194622E7D6
:107BC80050EA410618BF52EA43067FF4C5AE50EAB0
:107BD80041047FF40DAF52EA43057FF4EBAE12E7A0
:107BE8004FF0FF3C06E000BF4FF0010C02E000BF81
:107BF8004FF0010C4DF804CD4FEA410C7FEA6C5C64
:107C08004FEA430C18BF7FEA6C5C1BD001B050EA06
:107C1800410C0CBF52EA430C91EA030F02BF90EAF1
:107C2800020F0020704710F1000F91EA030F58BFB0
:107C3800994208BF90422CBFD8176FEAE37040F012
:107C4800010070474FEA410C7FEA6C5C02D150EAB0
:107C5800013C07D14FEA430C7FEA6C5CD6D152EA6B
:107C6800033CD3D05DF8040B704700BF8446104630
:107C780062468C461946634600E000BF01B5FFF72F
:107C8800B7FF002848BF10F1000F01BD4DF808EDFF
:107C9800FFF7F4FF0CBF012000205DF808FB00BFD0
:107CA8004DF808EDFFF7EAFF34BF012000205DF82A
:107CB80008FB00BF4DF808EDFFF7E0FF94BF012077
:107CC80000205DF808FB00BF4DF808EDFFF7CEFF78
:107CD80094BF012000205DF808FB00BF4DF808EDB7
:107CE800FFF7C4FF34BF012000205DF808FB00BF88
:107CF8004FEA4102B2F1E04324BFB3F5001CDCF1C6
:107D0800FE5C0DD901F0004C4FEAC0024CEA5070FD
:107D1800B2F1004F40EB830008BF20F0010070472C
:107D280011F0804F21D113F13872BCBF01F000402F
:107D3800704741F480114FEA5252C2F11802C2F161
:107D4800200C10FA0CF320FA02F018BF40F00100E2
:107D58004FEAC1234FEAD32303FA0CFC40EA0C0094
:107D680023FA02F34FEA4303CCE77FEA625307D1D1
:107D780050EA01331EBF4FF0FE4040F44000704708
:107D880001F0004040F0FE4040F40000704700BFA2
:107D980010B5054C13462CB10A4601460220AFF334
:107DA800008010BD204610BD0000000010B5431E25
:107DB8000A44914204D011F8014B03F8014FF8E747
:107DC80010BD02440346934202D003F8011BFAE7B0
:107DD8007047000038B5124B1C68A36B0546D3B931
:107DE8001820FEF71DF843F20E33A06303804AF60D
:107DF800CD33438041F2342383804EF26D63C380D8
:107E08004DF6EC630381052343810B238381012213
:107E18000023C0E90423A36B00221D615A6138BD09
:107E280004E4032010F8012B11F8013B012A28BFB4
:107E38009A42F7D0D01A7047034611F8012B03F87D
:107E4800012B002AF9D17047024B0146186800F04F
:107E580003B800BF04E4032070B5064608460C4684
:107E680000F00DF8451C29463046FDF7F9FF064697
:107E780018B12A462146FFF799FF304670BD0346E0
:107E880013F8012B002AFBD1181A0138704700009B
:107E98001D400D0059400D0085400D0089400D0022
:107EA80000000000000000000000000069410D0013
:107EB800B1410D00D5400D0022225C5C6208660CC1
:107EC8006E0A720D7409006E756C6C004E614E007E
:107ED800652D00496E66696E6974790074727565FE
:107EE8000066616C7365006E6577436F6E66006D42
:107EF8006F64650073706563696669634461746182
:107F08000064796E616D69630074696D656F75747D
:107F180000737461746500677265656E54696D6598
:107F28000079656C6C6F7754696D6500726564548F
:107F3800696D650073746174696300626174746566
:107F48007279006368616E6765436F6E66007B22B5
:107F58006D6F6465223A2264796E616D6963222CC3
:107F68002022737065636966696344617461223AAB
:107F78007B2272656454696D65223A33302C22790C
:107F8800656C6C6F7754696D65223A362C2267727E
:107F980065656E54696D65223A33307D7D00000059
:107FA8000000000000000000FF5E0D00F55E0D00FF
:107FB800EB5E0D00A15E0D00DF5E0D00D35E0D00CF
:107FC800C75E0D00BF5E0D00B55E0D00AB5E0D0017
:107FD800016A0D000000000000000000495F0D006C
:107FE8004F5F0D00675F0D005D5F0D004B5F0D007B
:107FF80000000000000000006F650D0065650D00C1
:108008005B650D0051650D0045650D0039650D0076
:108018002D650D0025650D001B650D0011650D0012
:10802800016A0D00000000000000000071660D00EC
:10803800BB660D0093660D0073660D009B660D0010
:10804800A3660D00AB660D00B3660D0000000000CE
:108058000000000053670D0043670D0045670D00E1
:108068006C6E00666E00636F6465006465746169B8
:108078006C000D0A00253031307520005D20002588
:1080880064002C200028293A2000205B00636F64DC
:1080980065203D200025690064657461696C732062
:1080A8003D2000626175640053657269616C00531C
:1080B800657269616C310074797065007061726114
:1080C8006D00636D6400696400686E6400737472A7
:1080D8006D0066696C74006C766C0061646448615C
:1080E8006E646C65720072656D6F766548616E646A
:1080F8006C657200656E756D48616E646C6572734F
:10810800004A534F4E53747265616D4C6F674861F6
:108118006E646C657200617070006E6F6E650074DD
:108128007261636500696E666F007761726E0065E3
:1081380072726F720070616E696300616C6C00002E
:10814800000000000000000097680D008D680D0019
:1081580083680D0079680D006D680D0061680D0079
:1081680055680D004D680D0043680D0039680D0015
:10817800016A0D00000000000000000099690D0070
:10818800A3690D00AD690D00B7690D00C1690D0047
:10819800CD690D00D9690D00E5690D00ED690D0087
:1081A800F7690D00016A0D000000000000000000E2
:1081B800E56B0D00E76B0D005A00252B3033643A50
:1081C800253032750025592D256D2D2564542548F7
:1081D8003A254D3A2553257A0061736374696D65B4
:1081E800000000000000000000000000096E0D0003
:1081F800596E0D00676E0D00E16A0D001D6E0D00D1
:108208003F6E0D002B6E0D00536E0D000B6E0D00B2
:108218000F6E0D0000000000000000004D6F0D0003
:108228009D6F0D00AB6F0D00E16A0D00896F0D00A9
:108238004F6F0D00656F0D00976F0D007B6F0D0080
:10824800496F0D0000000000000000000000000061
:108258000000000000000000000000000000000016
:108268000000000000000000000000000000000006
:1082780000000000000000000000000000000000F6
:1082880000000000000000000000000000000000E6
:1082980000000000000000000000000000000000D6
:1082A80000000000430000008D580D00095F0D001C
:1082B80079650D0029680D004D690D00CD6A0D0026
:1082C800C96B0D00716D0D00F56D0D006D710D0020
:1082D800C5710D0089720D000D730D0091730D00AD
:0882E80000000000000000008E
:1082F0000000803FCDCCCC3D6F12833A95BFD63382
:108300007D1D9026B3CE010CCDCCCC3D0AD7233CAD
:1083100017B7D13877CC2B329595E6241FB14F0A89
:10832000000020410000C84200401C4620BCBE4C5A
:10833000CA1B0E5AAEC59D74E1810D0000000000FD
:108340004C820D006C820D008C820D00000000003C
:10835000000000000000000000000000AC820D00E2
:10836000000000000000000000000000000000000D
:1083700000000000000000000000000000000000FD
:1083800000000000000000000000000000000000ED
:10839000000000000000000000000000A4E3032033
:1083A000FFFFFFFF00000102030405060708090A9A
:1083B0000B0C0D0E0F101112131415161718191A95
:0883C0001B1C1D1E1F202800DC
:0483C800785634129D
:04000003D0004018D1
:00000001FF
