:020000022000DC
:1060000000000420B5620200DD620200DF620200CF
:10601000E1620200E3620200E562020000000000AB
:10602000000000000000000000000000E762020025
:10603000E962020000000000EB620200ED62020073
:1060400015A20200EF620200E1A70200EF62020067
:10605000EF620200EF62020079A20200EF6202002A
:10606000EF620200EF620200EF620200EF620200E4
:10607000EF620200EF620200EF620200EF620200D4
:10608000EF620200ED700200EF620200EF620200B8
:106090008D710200EF62020041EF0200EF62020028
:1060A000EF620200EF620200EF620200EF620200A4
:1060B000EF620200EF62020000000000000000003A
:1060C000EF620200EF620200EF620200EF62020084
:1060D000EF620200EF620200EF620200EF62020074
:1060E000EF620200EF620200EF62020000000000B7
:1060F00000000000EF62020000000000EF620200FA
:10610000000000000000000000000000000000008F
:10611000000000000000000000000000000000007F
:10612000000000000000000000000000000000006F
:10613000000000000000000000000000000000005F
:10614000000000000000000000000000000000004F
:10615000000000000000000000000000000000003F
:10616000000000000000000000000000000000002F
:10617000000000000000000000000000000000001F
:10618000000000000000000000000000000000000F
:1061900000000000000000000000000000000000FF
:1061A00000000000000000000000000000000000EF
:1061B00000000000000000000000000000000000DF
:1061C00000000000000000000000000000000000CF
:1061D00000000000000000000000000000000000BF
:1061E00000000000000000000000000000000000AF
:1061F000000000000000000000000000000000009F
:1062000010B5054C237833B9044B13B10448AFF3F0
:1062100000800123237010BD242400200000000012
:106220006008030008B5034B1BB103490348AFF3F3
:10623000008008BD00000000282400206008030042
:10624000154B002B08BF134B9D46A3F5803A002148
:106250008B460F461348144A121A08F04FFF0F4B93
:10626000002B00D098470E4B002B00D09847002001
:10627000002104000D000D48002802D00C48AFF3A7
:10628000008008F0DDFE2000290005F0C3F808F0CA
:10629000C3FE00BF00000800000004200000000052
:1062A0000000000024240020B82F0020000000007F
:1062B000000000000649074A074B9B1A03DD043B18
:1062C000C858D050FBDC03F01FFDFFF7B9FF0000FA
:1062D000980903001022002024240020FEE7FEE796
:1062E000FEE7FEE7FEE7FEE7FEE7FEE7FEE7FEE786
:1062F000F0B595B0002415460F4608461E4603F03B
:10630000DBFB384623460895082205A91A9D099605
:106310000D950A948DF82C400C9403F027FC9DF801
:1063200014308DF81140DDE9061003F00302012A54
:10633000CDE9020127D0022A04D0384603F0C0FB81
:1063400015B0F0BDBDF81650C3F3C2038DF8103080
:10635000AD090826082D2C4628BF082433462246BE
:106360000EA9384603F002FC2D1B214608AB02AAF9
:106370000EA8264400F0C6FD002DEBD1384603F0F0
:106380009FFB15B0F0BDBDF81460059DC6F38316E4
:10639000C3F3C204B2000EA9384608238DF810409A
:1063A000C5F3952503F0E2FB08AB324628460EA95B
:1063B000009302AB00F000FD384603F081FB15B0FE
:1063C000F0BD00BF014B01221A70704784240020E9
:1063D000704700BF00B583B0044B0093044A4023CC
:1063E000FFF786FF03B05DF804FB00BFF563020012
:1063F0004424002038B50E480E4D03780E4CEB5C5B
:106400000025D2B2257053B90C3004F075FC58B990
:106410000A4B1B7813B12378002BFCD038BD043015
:1064200004F0EEFE0028F3D000F018FEF0E700BF05
:1064300010220020B42F00208424002040240020BB
:1064400070B51348134A0378D35C88B0DBB90C30BD
:1064500004F0D4FB104D0FCD6C460FC495E80F002F
:1064600008AD062645F8206D84E80F002946002275
:10647000074803F045FE08B100F0F0FD074B00228D
:106480001A7008B070BD043004F03AFEE2E700BFB5
:1064900010220020B42F002054F1020040240020DC
:1064A00070B50D4D0FCD88B06C460FC495E80F0048
:1064B00008AD062645F8206D84E80F002946074AF6
:1064C000074803F01DFE08B100F0C8FD054B01228E
:1064D0001A7008B070BD00BF54F10200C56302001D
:1064E000102200204024002008B5FFF7D9FF042126
:1064F000034800F017FC034B01225A7108BD00BF8E
:106500008009030024220020F0B5324C85B004F548
:10651000836002F0AFFA04F2144002F0ABFAD4E95F
:10652000013703EA0702D01C04EB800114F82000B5
:1065300010F0040044D003F1020C0E7806F00306BC
:10654000012E654635D0022E02F1030621D004EB60
:1065500086010028F1D104EB82020133D268019256
:106560003B4004EB830302F00302012ADE6829D0DA
:10657000022A23D1BDF806309B090333360C05EB04
:106580009305154802F082FA00B16560304605B007
:10659000F0BD4B880CEB931307EA0302D11C03F107
:1065A000020C14F82100654604EB810100F00400A0
:1065B000CFE70B88C3F383136344EDE70026E0E7DE
:1065C0009D1CC8E7BDF80430C3F38313360C1D448B
:1065D000D7E700BF582500206C2900200B4B0C4842
:1065E00010B50022FF21C3F818249960C3E90022E6
:1065F000C3F8142483F8202403F01AFA044610B9CF
:10660000044803F027FB204610BD00BF582500209A
:10661000BC08030094F1020021B9124B03EBC00047
:1066200000687047104A0F49521AD20815D030B48A
:106630000E4D2B88834212D0002303E035F823400F
:10664000844205D001339A42F8D1002030BC704713
:1066500001EBC300006830BC704710467047084625
:10666000F8E700BFD00803008009030024240020BD
:10667000094B013903EBC00003290BD8DFE801F017
:10668000020806040220704740797047007970477D
:106690000420704700207047D00803002DE9F04324
:1066A00083B002AB002203F8012DDFF8DC9007462F
:1066B00018468846D9F8084001F028F8D9E901328F
:1066C000D9F80060134401339B1B012B58D809F201
:1066D0001C450121284602F0B5F9FFF715FF0146D8
:1066E000284602F0AFF9D9E90132D9F80010134475
:1066F00001335B1A012BECD90A4003320523023126
:106700009DF8070049F82230C9F8001001F024F87C
:1067100000211C4802F05CF980F31000731C234038
:1067200009EB830300043440033440EA1740D86087
:1067300019F8243067F3C50309F8243039F82430F8
:106740006FF3891329F8243059F8242068F39F2225
:106750001346012161F301036FF3820349F82420FA
:1067600009F8243099F820341BB906E000F00EF83F
:1067700018B1D9E900329A42F8D103B0BDE8F083EC
:106780003146B9E774290020582500202DE9F0474B
:10679000934C002384B0C4F81834BFF34F8FD4E96E
:1067A000015605EA0602D31C04EB830114F82330DA
:1067B000580719D527680B7803F00303012B43D042
:1067C000022B03D14B88023505EB931506EA05022F
:1067D000D4F81804D31C04EB830128B9AF4239D98B
:1067E00014F823305B07E6D404EB82026B1CD268FA
:1067F0000192334004EB830302F00302DB6802934F
:10680000022A05F1020700F08D80012A26D0D4F873
:1068100010543DB12B6828469B689847EB681D686B
:10682000002DF7D16F48704B7049C01AC0080004A2
:1068300040F00200FFF732FFD4E90030C01A18BF61
:10684000012004B0BDE8F0870B880235C3F3831341
:106850001D44BBE7676004B0BDE8F087BDF80420C5
:106860006348C2F38313062B28BF062363F3891200
:1068700002339900ADF8042003F0DCF880460028CC
:10688000C5D003F019F90023082201A9404603F0FE
:1068900039F9BDF8043013F4707F00F09F806FF079
:1068A000010AAAEB050A082506EA070103312B466F
:1068B000042204EB8101404603F024F9BDF80430C2
:1068C00007F101090AEB0902C3F3831393424F4610
:1068D00005F10405E8D8D4F81834002B68D1D4F8B1
:1068E000105465B1EB685A7928464146002A5BD0BE
:1068F0002B681B689847EB681D68002DF2D1404655
:1069000003F0DEF804A8002300F80D3D00F0FEFEC1
:10691000D4F818340BB9C4F804909DF8030000F0C3
:106920001BFF89E7BDF8063031484FEA93194D4601
:10693000502D28BF502565F38F1305F10801ADF8E0
:10694000063003F077F8804600283FF460AF26EA6F
:10695000070A0AF1010A03F0AFF84FEA8A0A002396
:10696000082201A9404603F0CDF855452BD9EBB2DA
:10697000BAF1000F20D006EA0701A3EB0A030331A6
:1069800004EB8101DDB252460823404603F0BAF819
:106990002A460AF108031749404603F0B3F809F103
:1069A000030907EB990996E71D68002D9AD1A6E720
:1069B000404603F085F83FE72A4608230D49404644
:1069C00003F0A0F8EBE706EA0701033104EB8101CD
:1069D0002A460823404603F095F8E0E7B9467AE7EF
:1069E00058250020F8080300D0080300A0F1020099
:1069F000BC080300642500202DE9F04782B002ABFB
:106A0000002403F8014DDFF8ECA007461846914634
:106A10008846DAF8084000F079FEDAE90132DAF85F
:106A20000060134401339B1B022B5ED80AF21C4505
:106A30000121284602F006F8FFF766FD01462846C8
:106A400002F000F8DAE90132DAF8001013440133F9
:106A50005B1A022BECD90A400332033145239DF81F
:106A600007004AF82230CAF8001000F075FEB31C87
:106A700023400AEB830300211D48C3F80C9001F06A
:106A8000A7FF80F31000731C23400AEB830300046C
:106A90003440033440EA1740D8601AF8243067F3D2
:106AA000C5030AF824303AF82430012161F3891330
:106AB0002AF824305AF8242068F39F22134661F301
:106AC00001036FF382034AF824200AF824309AF86D
:106AD00020341BB906E0FFF759FE18B1DAE900329D
:106AE0009A42F8D102B0BDE8F0873146B3E700BF63
:106AF00074290020582500202DE9F04F83B002AD05
:106B0000002405F8014D3B4C8046284693469A46A2
:106B10008946A56800F0FAFDD4E9013227681344DC
:106B20000133DB1B032B63D804F21C4601213046E2
:106B300001F088FFFFF7E8FC0146304601F082FFD4
:106B4000D4E901322168134401335B1A032BEDD9D8
:106B50000A400332852344F8223004319DF80700AF
:106B6000216000F0F9FDBA1CFB1C2A402B4004EB0D
:106B7000820204EB830300211F48C2F80CB0C3F863
:106B80000CA001F025FF80F310007B1C2B4004EBD0
:106B9000830300043D40033540EA1840D86014F8F0
:106BA000253068F3C50304F8253034F82530022277
:106BB00062F3891324F8253054F8252069F39F22C5
:106BC0001346012161F301036FF3820344F825208A
:106BD00004F8253094F820341BB906E0FFF7D6FD01
:106BE00018B1D4E900329A42F8D103B0BDE8F08F71
:106BF0003946ADE758250020742900202DE9F04FD3
:106C000083B002AE002406F8014D3E4C804630466B
:106C100093469A46A568894600F078FDD4E901328A
:106C2000276813440133DB1B042B69D804F21C468C
:106C30000121304601F006FFFFF766FC01463046B1
:106C400001F000FFD4E901322168134401335B1ADB
:106C5000042BEDD90A400332C52344F82230053114
:106C60009DF80700216000F077FDB81CFA1C284051
:106C70002A403B1D2B4004EB800004EB820204EB16
:106C80008303C0F80CB00021C2F80CA01E480C9A77
:106C9000DA6001F09DFE80F310007B1C2B4004EBBA
:106CA000830300043D40033540EA1840D86014F8DF
:106CB000253068F3C50304F8253034F82530032265
:106CC00062F3891324F8253054F8252069F39F22B4
:106CD0001346012161F301036FF3820344F8252079
:106CE00004F8253094F820341BB906E0FFF74EFD78
:106CF00018B1D4E900329A42F8D103B0BDE8F08F60
:106D00003946A7E75825002074290020044BD3E911
:106D100000239A4201D0FFF739BD0020704700BF21
:106D20005825002030B4184DD5F8104400215CB12E
:106D3000E3681A798A4204D116E0DB681A798A423C
:106D400012D01B68002BF8D1C3681971D5F8103424
:106D500093B1DA68C36812681A60D5F81034DB683A
:106D6000186030BC0846704701310A29DFD14FF066
:106D7000FF31084630BC7047C5F81004C268136084
:106D8000084630BC704700BF5825002038B5094B75
:106D9000D3F81044012583F820544CB1E3685D71A9
:106DA000236820465B689847E3681C68002CF5D18F
:106DB00038BD00BF582500202DE9F04784B01D469E
:106DC0000C9C002394F80C802373EB8881460E46BC
:106DD0001746002B40D1297A05290ED06B7AA88856
:106DE00073BB404B53F821A00021FFF715FC52461E
:106DF00003463D49204601F0C1FE062F09D8DFE8D1
:106E000007F0046A4249525D33004946204601F0CA
:106E1000B5FE2B7A052B05D06B7A5BB9334920463A
:106E200001F0ACFE204601F09DFE84F80C8004B019
:106E3000BDE8F0872E4A2F49204601F09FFEEDE77E
:106E4000FFF716FC2C4B2B4953F82020204601F06D
:106E500095FE297AA888C4E7254A00922749284A3E
:106E6000204601F08BFEB6E7D6E90410D6E90023F0
:106E70000390D6E902070291CDE900074946204672
:106E800001F07CFEC5E74946D6E90023204601F023
:106E900075FEBEE7B168D6E9002320460091494659
:106EA00001F06CFEB5E7D6E90201D6E900230191B5
:106EB00000904946204601F061FEAAE7D6E9037139
:106EC000B068D6E900230291CDE900074946204683
:106ED00001F054FE9DE732684946204601F04EFE1F
:106EE00097E700BF2CF202001CF2020028F2020019
:106EF00010F2020018F20200B8F10200F8F10200EC
:106F0000F0F10200082900D970472DE9F04F1D4625
:106F1000904600232A7B2B7385B0B8F80630039285
:106F200007460E46002B77D198F80810052911D096
:106F300098F80930B8F80400002B5FD13A4B53F8A9
:106F400021400021FFF768FB2246034637492846C7
:106F500001F014FEDFF8F4B0DFF8F490002405E04F
:106F60003A5D013401F00AFE082C09D0A6424946D8
:106F70002846F5D85946013401F000FE082CF5D119
:106F80002B49DFF8D090DFF8D0B0284601F0F6FDAD
:106F9000002411E017F804A008F076F85044594690
:106FA000437813F0970F14BF52462E22284601341F
:106FB00001F0E4FD082C08D0A64249462846E9D84D
:106FC000013401F0DBFD082CF6D198F80830052BD0
:106FD00002D098F809305BB91649284601F0CEFD79
:106FE000284601F0BFFD039B2B7305B0BDE8F08F71
:106FF000114A1249284601F0C1FDEDE7FFF738FBC1
:107000000F4B0E4953F82020284601F0B7FD98F8A1
:107010000810B8F8040091E7074A009209490A4AA3
:10702000284601F0ABFD7FE72CF202001CF20200C3
:10703000E8F1020028F2020010F2020018F2020049
:10704000B8F10200F8F10200F0F10200E4F10200F0
:10705000DCF1020024F20200ECF1020000B585B080
:1070600000230390194601AA44F20100CDE901333F
:1070700000F004F805B05DF804FB00BF10B572B66F
:10708000FFF784FEFFF742FE0028FBD1104B114CA6
:107090001149E41AE408240444F00100FFF7FEFA61
:1070A0000E4B1B68DB0700D500BE44F002000C4904
:1070B000FFF7F4FABFF34F8F0A490B4BCA6802F48B
:1070C000E0621343CB60BFF34F8F00BFFDE700BF0B
:1070D000D0080300F808030098F20200F0ED00E089
:1070E000A4F2020000ED00E00400FA05F8B5204A21
:1070F000204B0024C2F84041C2F84441C2F8484144
:10710000C2F84C41C2F80041C2F804411B6833B3D5
:107110001949D2F804550A68AD1A1A6825F07F4556
:10712000AA4227460DD8197CDE69AD1A144419B15C
:107130001F74D3E9052090471EB133461A68AA424E
:10714000F1D90E490E4A0B7812789A4208D00D49AF
:107150000D4A41F823404FF48013C2F80031F8BDC6
:10716000531CDBB2022B08BF00230B70EFE700BFFC
:1071700000100140342B0020302B00202D2B00204C
:107180002C2B0020242B002000E100E02DE9F04F03
:107190008C4A8D4913780978DFF85082994285B07E
:1071A000D8F800A000F07B810133DBB2022B08BFCE
:1071B000002386481370864A076852F823107B180C
:1071C00023F07F4300240360534626462046A4460E
:1071D000ABB11A688A4200F26581DC68C3F800C06E
:1071E000891A1044DA6934B13D1825F07F45C3E9A6
:1071F0000154DE611E4613460124002BE9D1002C08
:1072000040F07C8101230093724B734FDFF8E091D3
:1072100043F00103019355464FF0000B46B3D6E906
:1072200001C13446F669694B6C481A68ACEB02033D
:1072300023F07F43834248D80B442360002201217E
:10724000C4E90122E2612174002D5DD02A689A42CE
:107250004DD2284603E00A689A424FD20846C169D7
:107260009B1A0029F7D12360E161C461002ED6D1B9
:1072700078783978884264D00B4603EB43034C1C82
:10728000BA7807EBC303E1B28A421A79397004BFB6
:1072900000213970022A9C6844D0032A38D0012A80
:1072A000E8D1227C002AE5D1D3F80CC0C4F804C090
:1072B0001969A1605869E06099F800009B69A361B1
:1072C0000028B0D062609446ADE7A2EB0C0222F039
:1072D0007F428A4202D28B1A2360AFE70023012249
:1072E000C4E90033A360E36122746DB12A68C8F871
:1072F0000040D31A2B60E56125468FE7D21A0A6059
:107300002360E161C461B1E7C8F80040254685E724
:10731000002DAFD000232B74ED69002DFBD1C8F8F0
:107320000050A5E74DB1AC422B4603D1E4E09442B6
:107330002FD01346DA69002AF9D10023237488423A
:107340009AD1BBF1000F01D1554553D0002D56D134
:10735000234E244A1F4C4FF480334FF40031012751
:10736000C2F880103C43C6F848334FF43C60C6F87E
:1073700008337760A047154BB7604FF43C601D6041
:10738000A047194B1D70002389F8003005B0BDE8F7
:10739000F08FA34200F09180E0692168D861002855
:1073A00000F086802A4603680B440360AA424FF02F
:1073B00000033978787823741CBF15464FF0010B11
:1073C000BDE700BF2C2B00202D2B0020302B0020F0
:1073D000242B0020C0F20200142A0020FEFF7F00B0
:1073E0000010014000E100E0212B0020342B0020A0
:1073F000202B0020009B002BC5D0002DA8D0434B94
:10740000434A1C68D2F80465424FD5F800A0397889
:10741000331B23F07F43DD1CB9B93F493F4B4FF489
:107420008030C2F844034FF00108C2F804034FF45F
:107430000030C1F8800143F001030860C2F8008009
:107440004FF43C60984787F80080AA452CBF04EBB6
:107450000A0363192E4923F07F43C1F84035D1F860
:107460000425921B9B1B22F07F4223F07F430332B3
:107470009A4288D9294BD1F80425C1F8402543F018
:1074800001034FF43C609847234B4FF40032C3F89C
:107490000021002389F8003005B0BDE8F08F0026F8
:1074A0000096B1E674BB521A1A6001230093ABE652
:1074B000002339787878237441E71946EA69C8F8D7
:1074C000002092B9CDE90231114BDFF840C0012014
:1074D0009860019B89F80000CCF800204FF43C60D4
:1074E0009847DDE90231D8F80020C8690968D861F9
:1074F00000287FF458AF59E72946DFE7C8F8003085
:107500009A467FE6C8F800309A46CCE7302B002038
:1075100000100140212B002000E100E0C0F2020039
:107520002DE9F8431F4D204E204FDFF898804FF48F
:1075300080334FF400324FF001090024C6F8802058
:1075400047EA0907C5F848334FF43C60C5F80833EB
:10755000C5F80490B847C5F808904FF43C60C8F8E7
:107560000040B847124A134B13491C601470134B68
:10757000134A0C700B2114701C8099704FF4801208
:10758000C023C6F8802186F814333260C5F8084558
:1075900086F81133D5F80435C8F800302046BDE828
:1075A000F88300BF0010014000E100E0C0F20200DB
:1075B000212B0020342B00202C2B0020142A00200B
:1075C0002D2B0020302B0020074B9B784BB132B184
:1075D00028B10368187C20B959745A617047072094
:1075E00070470820704700BF142A00202DE9F0479B
:1075F000264CA37882B0002B3CD000283AD0042936
:107600003CD94369002B35D0814602A899F8113046
:107610000026012B00F8016D0CBF8846B0461746C6
:107620008A4600F073F86378A17822789DF8070005
:107630005D1CEDB2A94208BF3546AA4222D003EB39
:10764000430304EBC3030121114AC3F808901971E5
:10765000D2F804256570C3E9032AC3E9058700F061
:107660007BF80C4B4FF480123046C3F8002102B077
:10767000BDE8F087082002B0BDE8F087072002B01F
:10768000BDE8F08700F068F80420F0E7142A002035
:107690000010014000E100E0F0B51A4CA37883B07F
:1076A00043B338B343692BB3064602A8002500F85C
:1076B000015D357400F02AF86278A77821789DF88A
:1076C0000700531CDBB29F4208BF2B46994214D0DF
:1076D00002EB420204EBC202022196601171637058
:1076E00000F03AF8084B4FF480122846C3F8002106
:1076F00003B0F0BD082003B0F0BD00F02DF8042069
:10770000F9E700BF142A002000E100E070B4EFF3B5
:10771000108472B60D4B9A68AAB90D490D4E012519
:107720009D60D1F8805035401D60C1F88060D1F86F
:1077300084505D604FF0FF33C1F88430027004B9AB
:1077400062B670BC704701230370F8E7A82F0020D1
:1077500000E100E0FC06FFBD094B9A687AB170B900
:1077600010B4EFF3108172B6064A1C6814605C68AE
:107770005460986001B962B65DF8044B7047704779
:10778000A82F002000E100E0F0B443681BB1384AA4
:10779000D468A34246D20023364F0B807A684FF05C
:1077A000010C02F580544FF6FF76083294420ED851
:1077B000BCF1020FA1F800C007F1140754D07A6899
:1077C00002F58054083294424FF0020CF0D913684D
:1077D0000133EDD05388033302EB83039C42E7D39C
:1077E0009588B5420AD0158845B1956803689D42D1
:1077F00011D05388033302EB8302D7E79C42D7D9D9
:107800001A6801321A46D3D05D88033503EB85032D
:107810009C42E5D2CCE7184B42601B8903810120D2
:10782000F0BC704712699342B5D813F00305B2D18A
:10783000114A048912899442ADD104689A6894422D
:10784000A9D10C484268934203D902F58052934271
:1078500007D38269934207D902F58052934203D23B
:1078600001250D800120DBE70020F0BC704700BF40
:1078700010240020782B00205C2B0020F0B5334C26
:10788000334DB4F802C062684FEA8C0606EB0C0375
:1078900005EB830383B0596801F58050002A52D06C
:1078A0005388033302EB8302904213D8664405EBFE
:1078B0008605EB68002B3DD0264B2748196802222D
:1078C0009A80052500230122257003B0BDE8F04011
:1078D00001F066BD13680133E8D05388033302EB2F
:1078E00083038342E2D84FF6FF7E9788774514D012
:1078F000178897B162605388164D1748AE8829687B
:10790000033300259BB200959B0001EB8601032504
:10791000257001F0A7FC03B0F0BD9842C6D91A68E3
:1079200001321A46C2D05F88033703EB87039842BF
:10793000DBD2BBE7084804250122257003B0BDE86F
:10794000F04001F02DBD01F10802ADE75C2B0020F5
:10795000782B0020B42B0020102400202DE9F04FBC
:10796000AC4E89B004464FF6FF773568002D00F025
:10797000D9802A78531E052B67D8DFE803F05931E8
:10798000311D1D03002C40F0C380DFF8B0C29CF80D
:107990000C209CF80030002A00F05281013B8CF84A
:1079A0000C40062B51D8DFE813F0E703F80203027E
:1079B000D8015000FB02C802002C40F0A9802B79AE
:1079C000012B00F04A81C0F0DE800DF10C08022B83
:1079D0000394C8E90244C8F810403ED120463DE077
:1079E000B5F81490AB7D002C00F0A380022BEA8840
:1079F00040F2C4804FEA8904DFF8388204EB0901C1
:107A000008EB8101D31C0A8913440B81EA884C449A
:107A100008EB84040DF10C086389033B9B1A0022D8
:107A20006381C8F808200392C8E90322012015E009
:107A3000002C40F097802B79032B00F2DF80DFE8E9
:107A400013F080013D015501600100230DF10C0888
:107A5000C8E90333C8F8083003930F2004902B784B
:107A6000023B042B0AD8DFE803F0472F230343002F
:107A700004238DF80C30EB88ADF81830664C04F117
:107A8000100554F8043B404603B19847A542F8D18D
:107A9000624963480024346000F018FF0121614806
:107AA00000F0DCFF00287FF460AF09B0BDE8F08F84
:107AB00003238DF80C30EB88ADF818302B89ADF826
:107AC0001A30EB680593D9E702238DF80C302B8927
:107AD000ADF81830AB88ADF81A30EB680593AB7D84
:107AE000A3F10603B3FA83F35B098DF81C30C5E7F5
:107AF00005238DF80C30C1E701238DF80C302B895C
:107B0000ADF81830AB88ADF81A30EB680593B5E7DF
:107B10000DF10C080023C8F808300393C8E90333BB
:107B200001209BE73D493E4800F0A2FE054630603B
:107B30001FE74FEA8904DFF8FC8004EB090108EB3A
:107B40008101B1F808A0496801EB8A0A062B00F20E
:107B5000B682DFE813F0CC019301A501B801410121
:107B60006C0186010DF10C082F4A0023536003932A
:107B7000C8E90233C8F8103001206FE7DFF8B4809D
:107B80004FEA890443E702232B71CDE904440DF148
:107B90000C08EB68039340460DF10A01FFF7F4FD72
:107BA000002800F0C1810499204A8B88EB800B8863
:107BB0002B811F4800940423BDF80A4001F052FBBA
:107BC000002840F0DE821B4B04EB840403EB8404AA
:107BD0000123237469E701239A001A4408EB820306
:107BE000002059680090082308F82200124A104823
:107BF00001F038FB00283FF458AF35680A4A0DF110
:107C00000C08002353600393C8E90233C8F810300E
:107C10000E2023E7742B0020442B00206C2B002027
:107C2000A02B0020B02B0020542B0020C8F2020013
:107C300010240020782B0020CCF202005C2B0020C6
:107C4000072B00F28382DFE813F0FA018102810240
:107C50009D01E60178017801C001BF4B1B78002B24
:107C600000F05381DFF8F4E2BEF80490B9F1010F9F
:107C700015D8DFF80C8309EB890208EB8202043285
:107C800012F8043C002B00F0088209F1010399B2BC
:107C900001299946AEF8043002F11402F0D90DF131
:107CA0000C0808220021AD4807F028FA0020C8F887
:107CB00008000390C8E903003568CFE6DFF8C0820A
:107CC00098F80030022B00F0688298F81430022BEC
:107CD00081D0A14B0DF10C08002001221A700390F5
:107CE0005860C8E90200C8F81000B7E69C4A9D48F1
:107CF0001168002302242B719480012201F050FBB3
:107D000078E7974C984A21689648DFF874824FF0DC
:107D1000000985F804900823CDF8009001F0A2FA3C
:107D2000924B25685B88A18803EB830308EB8302F1
:107D300008F8239053682360022355601181A380C3
:107D400058E7874B8A4A1968864801232B7100231C
:107D50000093082301F086FA4CE7BCF80230DFF804
:107D6000208203EB830308EB8308D8F80C30002B48
:107D700000F0DC817A4B7B48196802229A80052248
:107D80008CF800200023012201F00AFB00283FF4B8
:107D90008CAE0DF10C08002341F61D523568C8F871
:107DA00008300393C8E90333904208BF184655E6EC
:107DB000DCF804206A48538884880168694801EB2C
:107DC00084010333002400949BB203249B008CF8AD
:107DD000004001F047FAD9E7664BAA6966491A6084
:107DE0004FF0000B1846C3F804B0FFF7CDFC002895
:107DF00000F0CA810223AB7504235146CDF800B0D0
:107E0000EA18584801F02EFA00283FF44EAEAB7D38
:107E1000EA88022B4FF00E0026D84C4408EB840869
:107E2000B8F80A30033B9B1AA8F80A30B1E7524B66
:107E3000504AB3F800A051684A48504A00234FF016
:107E4000060C85F816C00093042301F00BFA0028F5
:107E5000DDD10AEB8A0A08EB8A08012388F8103082
:107E600023E6EA8841F61D5004EB090108EB810185
:107E7000D31C0A8913440B81EA88CEE7032A0CBF7E
:107E8000052306230022AB750AF1040100920423A6
:107E900005F10802334801F0E5F90028B7D104E6FE
:107EA0002B693048002B14BF032301230022AB753C
:107EB0000AF108010092042305F10C0201F0D2F945
:107EC0000028A4D1F1E5EB882A6926484FF0010C7F
:107ED00085F816C04FF0000C0AF10C019B00CDF89C
:107EE00000C001F0BFF900283FF4DFAD8FE70223A7
:107EF0000022AB75042300925146EA18194801F09C
:107F0000B1F900283FF4D1AD81E70DF10C0808224A
:107F10002146124807F0F2F80394C8E90244C8F871
:107F200010403568022099E50A200023C8E9003393
:107F3000C8E90233C8F8103090E5094B0C4A1968BB
:107F4000084800230093CCF8043007238CF8003055
:107F5000082301F087F919E7542B0020C02B0020DB
:107F6000B42B002010240020CCF202005C2B002057
:107F7000D4F20200382B0020BC2B0020C8F20200F3
:107F8000782B0020884ADCF8041093884988033352
:107F90000B44022193808CF80010FFF76FFCF5E68C
:107FA000BCF80220DFF810829300134408EB83082A
:107FB00006200023D8F804107C4A00938CF80000B7
:107FC00008237B4801F04EF9E0E601238CF80030ED
:107FD0009CF80A304BB1DFF8E081D8F80C30002271
:107FE0008CF80A20002B00F0AB809CF80B30002BA3
:107FF00043D0DFF8C481D8F8203000228CF80B2061
:10800000002B3AD198F82430BBB30123ACF80230EE
:10801000FFF734FCBAE6BCF80220DFF89C81624C22
:108020009300991808EB810120684D68B4F804E0CA
:10803000486002202560A1F808E0A080B5E7DFF8DD
:108040007881BCF8081098F8142098F80030B2FA3B
:1080500082F252090131B3FA83F35B098CF80B20E9
:10806000ACF80810002201218CF80A30ACF802208C
:108070008CF80C208CF80010ACE70DF10C080020F7
:10808000C8F808008CF80000ACF80200CCF8040036
:108090000390C8E903003568E0E41368DEF80010D7
:1080A00003F5805C03F1080A002968D04B8803338C
:1080B00001EB83018C4505D8CEF80040E5E5EA8860
:1080C0000F20D1E60B680133F6D04B88033301EB68
:1080D00083039C45F0D38888B8421AD0B1F800B029
:1080E000BBF1000F15D0EB88CEF800108342DBD136
:1080F000002300932F4A2E48042301F0B3F80028F0
:108100004DD109EB890908EB8908012388F8103063
:10811000CBE49C45D0D9196801311946CCD0588898
:10812000033003EB80039C45D5D2C5E704228CF8CD
:108130000020D8F804101E48012201F031F925E68C
:1081400098F81020002A3FF450AF5FE7013B062B60
:108150003FF67BAC01A252F823F000BF7981020008
:108160009B7F0200B17D02005B7D02004B7A020022
:10817000A17F02003B7F02009CF80A302AE75146AB
:1081800098E735680E20D0E60DF10C080390C8E999
:108190000200C8F810000A2060E400231CE53568DE
:1081A0000E200DF10C08C0E6B42B0020CCF202002A
:1081B00010240020C8F20200782B00204068FFF74E
:1081C000CDBB00BF08B301B370B582B00C460DF152
:1081D00006010546FFF7D8FAA0B1BDF806000C4B22
:1081E0006E6800EB800003EB800001210C3000F092
:1081F00029FC26606B6801220C3300206360AA72A0
:1082000002B070BD0A2002B070BD0520704700BFEB
:10821000782B0020E8B110B582B00DF106010446BC
:10822000FFF7B2FA90B1BDF806300C4A03EB8303B6
:1082300002EB8303DA6872B1A27A62B1DA680021D4
:10824000013A0846DA60A17202B010BD0A2002B0FD
:1082500010BD05207047062002B010BD782B00200D
:10826000484B1B78002B32D0002934D00A884FF6B7
:10827000FF739A4229D04B883BB34B689B072CD1A4
:108280002DE9F043B1F8088008F103039BB240F2F6
:10829000FD32934283B01CD83B4A17783FB95689C8
:1082A000148934441C44A4B2B4F5806F17D3147DF0
:1082B0003CB9D68B948B34441C44A4B2B4F5806F83
:1082C0005DD3072003B0BDE8F0830420704702208F
:1082D00070470920F6E70520704703207047BC4629
:1082E0004FEA8C09E14402EB890933440C46054608
:1082F00001A92648A9F80A3000F07EFA1C22064699
:10830000002106F0FBFE5EB302234FF00009B782A6
:10831000337086F816906368336101211C4800F0C1
:1083200091FBF060238833816388B38001A9A6F8AC
:108330000A90A6F80680154800F08AFA45B1C5F8FB
:108340000490F268134B2A601B8985F80A902B81F0
:108350000121114800F06AFB044660B10020B1E73A
:10836000B9F80A30C8F57F4808F1FD089844A9F823
:108370000A800820A6E7FFF7F1FA2046A2E70127C6
:10838000BC46ADE7542B0020782B0020A02B00200A
:10839000702B00205C2B0020B02B0020002836D052
:1083A000484B1B78002B30D0002930D00A884FF67C
:1083B000FF739A422FD04B886BB34B689B0728D131
:1083C0002DE9F043B1F8089009F103039BB240F2A4
:1083D000FD32934283B020D83B4A15783DB9578986
:1083E00014893C441C44A4B2B4F5806F17D3147DA7
:1083F0003CB9D78B948B3C441C44A4B2B4F5806F39
:108400005BD3072003B0BDE8F0830220704705204E
:10841000704703207047042070470920F2E7A84600
:10842000AC464FEA8C05654402EB85053B440646A5
:108430000C4626486B8101A900F0DEF91C22074694
:10844000002106F05BFE57B300250323A7F8148034
:108450003B70BD7563683B6101211D4800F0F2FA75
:10846000F86023883B816388BB800423A7F80690CB
:10847000BB753368BB6101A97D81144800F0E8F940
:108480007560FA68134B32601B89B5723381012124
:10849000114800F0CBFA044658B12846B2E76B8980
:1084A000C9F57F4909F1FD099944A5F80A9008200A
:1084B000A8E7FFF753FA2046A4E74FF00108C446A7
:1084C000AFE700BF542B0020782B0020A02B00200A
:1084D000702B00205C2B0020B02B0020184B1B7849
:1084E00023B34FF6FF7398421ED070B582B001A936
:1084F0000446144800F080F91C220546002106F0CD
:10850000FDFDADB105230126EC8001A92B702E7174
:108510000C4800F09DF931460B4800F087FA0446FC
:1085200048B1002002B070BD04207047022070479F
:10853000082002B070BDFFF711FA204602B070BDEE
:10854000542B0020A02B0020B02B00202DE9F0435D
:10855000344C2478002C60D03AB333B39F88012F79
:108560005ED8314C07EB870C013704EB8C0CBFB2A3
:108570004FF6FF7E4FF000089CF8004074B91C686D
:10858000DCF8045005F58056002C43D0658803358F
:1085900004EB8504B4420BD3C3F80080022F9F8004
:1085A0000CF1140C3CD00227E6E70520BDE8F0836F
:1085B00025680135F0D06588033504EB8505AE42AA
:1085C000EAD3B4F80490F14515D0B4F80090B9F1AD
:1085D000000F10D01C60A5888542D1D125888D421E
:1085E000CED1A16811601968104B51601B891381AD
:1085F0000020BDE8F083AE42CED92C6801342C4671
:10860000CAD0B5F8029009F1030905EB8905AE421D
:10861000D7D2C1E705F10804BCE70220BDE8F0832A
:108620000A20C3E7542B0020782B00205C2B00206D
:10863000334B1B78002B5CD051B34AB32DE9F0418A
:108640009588012D5AD82F4F05EB850307EB83073B
:1086500001353B78ADB24FF6FF7C4FF0000E43B1D1
:10866000022D958007F1140748D03B780225002B96
:10867000F6D113687C6804F58056002B3BD05C88EB
:10868000033403EB8403B34204D3C2F800E0E7E70A
:10869000052070471C680134F7D05C88033403EB75
:1086A0008404A642F1D3B3F80480E04512D0B3F8B5
:1086B0000080B8F1000F0DD013601C888442D9D11E
:1086C0009B680B601268104B4A601B890B8100206D
:1086D000BDE8F081A642D8D9236801332346D4D01F
:1086E000B4F8028008F1030804EB8804A642DAD249
:1086F000CBE70220704704F10803C4E70A20E7E74C
:10870000542B0020782B00205C2B0020334B1B784F
:10871000002B5CD051B34AB32DE9F0419588012D6F
:108720005AD82F4F05EB850307EB830701353B78BC
:10873000ADB24FF6FF7C4FF0000E43B1022D958095
:1087400007F1140748D03B780225002BF6D11368B7
:108750007C6804F58056002B3BD05C88033403EB27
:108760008403B34204D3C2F800E0E7E70520704772
:108770001C680134F7D05C88033403EB8404A64200
:10878000F1D3B3F80480E04512D0B3F80080B8F11B
:10879000000F0DD013609C888442D9D19B680B6078
:1087A0001268104B4A601B890B810020BDE8F081E4
:1087B000A642D8D9236801332346D4D0B4F8028026
:1087C00008F1030804EB8804A642DAD2CBE70220C2
:1087D000704704F10803C4E70A20E7E7542B0020A0
:1087E000782B00205C2B002020B119B103680B60AE
:1087F000002070470520704730B482B050E8013F38
:108800009DB2C48925448489A54228BF2D1B0489B3
:10881000A54202BFBFF32F8F002207E0C5EA030580
:1088200040E80154002CE9D14FF001028DF80320FB
:108830000193019B9DF803200B602AB10B8800680F
:10884000184402B030BC704702F0FF031846F8E746
:108850000A884B889A4201D00020704750E8012FC7
:10886000C2EA024240E80123002BF7D10120704701
:1088700030B482B050E8023F1FFAA3F5C488A54285
:1088800002BFBFF32F8F00220DE0C48925448489E5
:10889000A54228BF2D1BC3EA054540E80254002C21
:1088A000E8D14FF001028DF803200193019B9DF860
:1088B00003200B602AB14B880068184402B030BC1A
:1088C000704702F0FF031846F8E700BF0A884B889C
:1088D0009A4201D00020704750E8022FC2EA22429B
:1088E00040E80223002BF7D10120704701F01F025E
:1088F0004B09012100EB8300914000F07FB800BFDD
:1089000010B5012301F01F04490900EB810003FAAF
:1089100004F100F067F8E04000F0010010BD00BF76
:1089200001F01F0201234909934000EB8100D94364
:1089300000F070B84B0901F01F0150F82300C84047
:1089400000F00100704700BF2DE9F84F01F1FF3939
:108950004FEA591300F104090F46064609EB830953
:10896000044600254FF0010823686FEA030B9BFAC9
:10897000ABFBBBFA8BFBBBF1200F20D0AB445F45B8
:108980000CD81CE02368DB4393FAA3F3B3FA83F318
:10899000202B05EB030B12D05F4510D90BF01F0AFB
:1089A0004FEA5B1008FA0AF106EB800000F01AF8B3
:1089B00020FA0AF0C307E5D45846BDE8F88F04341E
:1089C0004C4505F12005CFD1BB465846BDE8F88F90
:1089D00050E8002F0B4640E8003C9CF0000FF7D118
:1089E0001046704750E8002F42EA010340E8003C7F
:1089F0009CF0000FF6D11046704700BF50E8003FD2
:108A000043EA010240E8002C9CF0000FF6D110462A
:108A1000704700BF50E8003F03EA010240E8002C25
:108A20009CF0000FF6D11046704700BF50E8002FB1
:108A300002EB010340E8003C9CF0000FF6D1104629
:108A4000704700BF50E8003F03EB010240E8002CF4
:108A50009CF0000FF6D11046704700BF50E8003F71
:108A6000A3EB010240E8002C9CF0000FF6D1104669
:108A7000704700BF012350E8002F42EA030C40E892
:108A800000C191F0000FF6D160467047002350E816
:108A900000CF0CEA030240E8002191F0000FF6D16C
:108AA00060467047B8B130B4D0E90112521A046878
:108AB000D2B2531E2160DBB242B101680A685C1E6B
:108AC000551C0D601370E3B2FF2BF6D10368002034
:108AD000187130BC70470E20704700BFF0B583B0EE
:108AE00002AB002503F8015D04461846FEF70EFEB2
:108AF000D4E900311A688A4210D9511E19602168E0
:108B0000A3680F6812F8015C0A79268AE068DB1B0B
:108B1000DBB29A4206FB050538BF0B719DF80700D2
:108B2000FEF71AFE284603B0F0BD00BF30B583B093
:108B300002AB002203F8012D054618460C46FEF74D
:108B4000E5FD2A681368591C1160E9682A8A641ACD
:108B5000B4FBF2F41C709DF80700FEF7FDFD03B0B6
:108B600030BD00BF826842B110B504464369016858
:108B7000006998470023A36010BD70470EB400B58C
:108B800082B0039929B102AA04AB42F8043D00F077
:108B90008BF802B05DF804EB03B070472DE9F84F95
:108BA00088469045174605461E46DDE90AB175D34D
:108BB00043464FF00109B3FBF7F39F4209F1010966
:108BC000F9D9B14538BFB14611F0010AAA6802D1FE
:108BD000BBF1000F43D1012402E0013E07FB04F486
:108BE000012EFAD8B8FBF4F18F42F7D92D4E05E0EB
:108BF000B4FBF7F4A4B1B8FBF4F1AA68705C531CA1
:108C0000AB602B689854D5E901329A4204FB118875
:108C1000EED32846FFF7A6FFB4FBF7F4002CEAD109
:108C2000BAF1000F15D0BBF1000F12D0CB4510D90F
:108C30002024AB682A68591CA960D454D5E90132B4
:108C40009A420BF1FF3B06D2BBF1000F01D0CB459E
:108C5000EFD1BDE8F88F2846FFF784FFF4E78B07D4
:108C600017D42024CB45B6D92B68511CA9609C543D
:108C7000D5E901329A420BF1FF3B05D2BBF1000F5F
:108C8000A9D0CB45F0D1A6E72846FFF76BFFAA682D
:108C9000F4E7002E0CBF30242024E3E74FF0010955
:108CA0008FE700BFDCF20200002900F0F4812DE91B
:108CB000F04F054685B092460C460B78DFF8A0B51C
:108CC00001E0237893B1013483B1252B15D0AA6834
:108CD0002968501CA8608B54D5E901329A42F0D320
:108CE0002846FFF73FFF2378002BECD12B7B002B8E
:108CF00040F0148105B0BDE8F08F2146002711F83F
:108D0000012B2D2A00F0E180302A00F0E2802B2A8E
:108D100000F0D2802A2A00F0E080A2F13006F3B2FF
:108D2000092B03D9B8E1A3F130060146084606EB4A
:108D3000860310F8012BA2F13004092C02EB430347
:108D4000F1D92E2A00F0D5800023013101E011F87D
:108D5000012B02F0FB0068280C46F8D0253A532A74
:108D6000AFD801A151F822F0298F0200C38C020074
:108D7000C38C0200C38C0200C38C0200C38C0200AF
:108D8000C38C0200C38C0200C38C0200C38C02009F
:108D9000C38C0200C38C0200C38C0200C38C02008F
:108DA000C38C0200C38C0200C38C0200C38C02007F
:108DB000C38C0200C38C0200C38C0200C38C02006F
:108DC000C38C0200C38C0200C38C0200C38C02005F
:108DD000C38C0200C38C0200C38C0200C38C02004F
:108DE000C38C0200C38C0200C38C0200C38C02003F
:108DF000C38C0200C38C0200C38C0200C38C02002F
:108E0000C38C0200C38C0200C38C0200C38C02001E
:108E1000C38C0200C38C0200C38C0200C38C02000E
:108E2000C38C0200C38C0200C38C0200C38C0200FE
:108E3000C38C0200438F0200C38C0200C38C02006B
:108E4000C38C0200C38C0200C38C0200C38C0200DE
:108E5000C38C0200C38C0200C38C0200C38C0200CE
:108E60005D8F02007F8F0200C38C0200C38C020062
:108E7000C38C0200C38C02007F8F0200C38C0200EF
:108E8000C38C0200C38C0200C38C0200C38C02009E
:108E9000C38C0200CF8F0200C38C0200C38C02007F
:108EA00043900200C38C02007D900200C38C02003C
:108EB000C38C0200438F020047F004070C46214692
:108EC00011F8012B2D2A7FF41FAF47F001070C4644
:108ED000F5E747F002070C46F1E7DAF800301A1D13
:108EE000CAF8002062781E682E2A04F102007FF47E
:108EF0002BAF4A78A2F13003092B00F250810023F6
:108F000003EB830302EB430310F8012FA2F13001BE
:108F10000929A3F13003F3D9014616E7284605B025
:108F2000BDE8F04FFFF71EBEAB682A68591CA96068
:108F30004FF02501D154D5E901329A42FFF4C1AE78
:108F4000CEE6DAF80020111DCAF800101168284694
:108F5000CDE900671022FFF721FEB2E6DAF8002023
:108F6000131DCAF80030AB6829681278581CA86035
:108F7000CA54D5E901329A42FFF4A3AEB0E6DAF85A
:108F80000020111DCAF80010D2F8008088EAE872AB
:108F9000A2EBE872092A4FF0010107DDAF48A0FB00
:108FA0000202D208092A01F10101F7DC994238BF17
:108FB0001946894607F00202002E71D12AB1002B12
:108FC00000F04781FA0700F18D8000268AE0DAF888
:108FD0000020131DCAF80030AB6829681768581CB8
:108FE0003022A860CA54D5E90123934280F0288139
:108FF0002A68581C7821A860D154D5E901239342EE
:1090000080F019810F2F03D93A4612090F2AFCD894
:109010004FF0805603E036093FF453AEAB68296841
:10902000B7FBF6F2581CA8601BF80200C854D5E93B
:109030000131994206FB1277EDD32846FFF792FDE6
:10904000E9E7DAF800301A1DCAF80020D3F80080EA
:10905000FB077ED54746A7EB080917F8013B002B15
:109060005DD0AA682968501CA8608B54D5E90132EC
:109070009A42F0D32846FFF775FDECE7DAF80020B6
:10908000111DCAF8001011682846CDE900670A22B0
:10909000FFF784FD15E6704708460026214650E696
:1090A000B8F1000F01DB780700D5013E02B1CBB16A
:1090B000F90717D4002E88D0B14513D2202203938C
:1090C000A9682B68481CA8605A54D5E90131994217
:1090D00006F1FF365DD2002E00F0BD80B145EFD124
:1090E000039B4E46B8F1000FC0F292807A070AD572
:1090F000A9684A1CAA602A682B205054D5E901218E
:10910000914280F0928007F00302022A5FD0CDE9FD
:10911000006741460A222846FFF740FDD1E54E454B
:109120007FF6CFAD202705E04E453FF4CAAD002EB7
:109130003FF4C7ADAB682A68591CA960D754D5E97C
:1091400001329A4206F1FF36EED32846FFF70AFDB8
:10915000EAE7B8F1000F24D0404605F0D7FF0746F4
:10916000BE4220D9FEB14FF0200902E0BE421AD023
:10917000CEB1AB682A68591CA96002F80390D5E902
:1091800001329A4206F1FF36F0D32846FFF7EAFC97
:10919000ECE728460292FFF7E5FC029A9BE70146BE
:1091A000D2E54746DCE708F1FF3818F8013F002B0D
:1091B0003FF487ADAA682968501CA8608B54D5E994
:1091C00001329A42F1D32846FFF7CCFCEDE7002BA1
:1091D0009DD1002E3BD0B14599D2029323464C46F7
:1091E0009946AA682B68501C4FF03001A86099542A
:1091F000D5E901329A4206F1FF3605D22EB3B442C8
:10920000EFD1029B4C4682E72846FFF7ABFCF5E71F
:10921000A9684A1CAA602A682D205054D5E901216A
:109220009142C8F10008FFF46EAF28460293FFF7A1
:1092300099FC029B67E72846FFF794FCAB68E1E6E0
:109240002846FFF78FFCAB68D2E6029B4C4600260F
:109250005DE71E4646E7039BB7E600BFCDCCCCCC0E
:10926000DCF202002DE9F04182B0002854D0002A3F
:1092700064D0D0F800C0BCF1000F69D01C46002BB0
:1092800033D04768D7F80480B3FBF8F708FB1737EB
:10929000002F3CD18F0723D112F0030F53D1C768A1
:1092A000B94211D23248334C334B344A3449001B53
:1092B000C0081024000440F001000094FDF79EFC5B
:1092C000204602B0BDE8F0814E1E05693444AC4230
:1092D000E8D8DCF80C40A44602B0BDE8F041604795
:1092E0002348244C244B274AE0E72148214C224BB9
:1092F000254A2349001BC0080924000440F001004E
:109300000094FDF77BFC204602B0BDE8F0811848D0
:10931000184C194B1D4AECE71548164C164B1C4AC5
:109320001749001BC0080E24000440F001000094FF
:10933000FDF764FC204602B0BDE8F0810C480D4CFE
:109340000D4B144AECE70A480A4C0B4B124AADE7A6
:10935000084C0748084B114A0949001BC00808245B
:10936000000440F001000094FDF748FC2046A8E707
:1093700010090300D0080300ECF2020090F4020090
:1093800094F3020054F40200D0F3020028F4020027
:109390008CF3020020F402006CF4020014F40200CA
:1093A000F0B583B0002843D0D0F800C0BCF1000F66
:1093B0004ED03AB34768D7F800E00EF1FF370F42BE
:1093C00031D1C768B94210D229482A4C2A4B2B4ABE
:1093D0002B49001BC0081024000440F00100009439
:1093E000FDF70CFC204603B0F0BD4D1E04690EFBDA
:1093F0000255A542E8D8DCF81040A44603B0BDE809
:10940000F04060471B4C1A481B4B1E4A1C49001B6E
:10941000C0080924000440F001000094FDF7EEFBB1
:10942000204603B0F0BD1248124C134B164ACFE74A
:10943000104C0F48104B154A1149001BC0080E2450
:10944000000440F001000094FDF7D8FB2046CAE775
:10945000084C0748084B0E4A0949001BC00808245D
:10946000000440F001000094FDF7C8FB2046BAE775
:1094700010090300D008030000F302003CF30200CF
:1094800094F30200D0F3020014F302008CF3020004
:1094900014F4020029DF704728DF7047034B187A65
:1094A0000122B0FA80F05A7440097047D82B00208E
:1094B00030B55E4C237A87B0002B3AD05C4B1B68EA
:1094C000022222721A79002A3ED0012A0CD1D3E955
:1094D00003021044FFF7E0FF002849D0112803D110
:1094E0000123237207B030BD19688A68C2B1002217
:1094F00068460092C0E902220325026101959A683C
:1095000005921A79002A4BD0012A07D102228DF840
:109510000020DA68120302925B6904938B68984713
:1095200000234449444823726360FFF7CFF907B032
:1095300030BD40494048FFF79BF93D4A0346106063
:109540000028BDD16060F2E7D3E90525521BB2F5D2
:10955000805F28BF4FF48052D3E903109208012A9C
:1095600038BF012229442844FFF794FF0028B5D1D1
:10957000227C002ADBD1227A002AD8D0022A0AD102
:10958000E0601A79DAB1012A05D1D3E90421013268
:109590008A421A611FD0637C73B105F0BBFCC6E739
:1095A00001228DF800201A690292DA6803925B6941
:1095B00004938B689847B3E7FFF77AFFB7E7D3E9DF
:1095C0000512881AB0F5805F94BF121802F5805218
:1095D00091429A61DFD10022227219688868A8B18D
:1095E00068460092C0E90122C0E903229A68059208
:1095F0001A7982B1012A07D102228DF80020DA6897
:10960000120302925B6904938B68984709490A48E0
:10961000FFF75CF9BFE701228DF800201A6902927A
:10962000DA6803925B690493EEE700BFD82B002051
:10963000F02B0020EC2B0020C82B002000F0FD03B5
:10964000012B00D0704730B5604CA0F10100B0FA9A
:1096500080F0237A4009002287B020746274002BC6
:109660003AD05B4B1B68022222721A79002A3ED044
:10967000012A0CD1D3E903021044FFF70DFF0028A3
:1096800049D0112803D10123237207B030BD1968D6
:109690008A68C2B1002268460092C0E9022203250E
:1096A000026101959A6805921A79002A4BD0012A25
:1096B00007D102228DF80020DA68120302925B695A
:1096C00004938B68984700234249434823726360A0
:1096D000FFF7FCF807B030BD3E493F48FFF7C8F838
:1096E0003B4A034610600028BDD16060F2E7D3E931
:1096F0000525521BB2F5805F28BF4FF48052D3E995
:1097000003109208012A38BF012229442844FFF798
:10971000C1FE0028B5D1227C002ADBD1227A002AA2
:10972000D8D0022A0AD1E0601A79CAB1012A05D13B
:10973000D3E9042101328A421A611DD0637C63B1EE
:1097400005F0E8FBC6E701228DF800201A690292B5
:10975000DA6803925B690493B3E7FFF7A9FEB9E700
:10976000D3E90512881AB0F5805F94BF121802F58C
:10977000805291429A61E1D1002222721968886870
:10978000A8B168460092C0E90122C0E903229A68A4
:1097900005921A7982B1012A07D102228DF80020A0
:1097A000DA68120302925B6904938B68984709494F
:1097B0000948FFF78BF8C1E701228DF800201A69EC
:1097C0000292DA6803925B690493EEE7D82B0020DB
:1097D000F02B0020EC2B0020C82B0020831E012B37
:1097E00000D9704730B58E4C237A87B0002B31D02A
:1097F000022B2BD103286BD1E3680133082B79D9D5
:10980000884B00221B68E26022720D2519688A6865
:10981000C2B1002268460092C0E9022202610195AD
:109820009A6805921A79002A00F0B980012A07D1B6
:1098300002228DF80020DA68120302925B69049319
:109840008B68984778497948FFF740F8637C1BB1EB
:1098500005F060FB07B030BD237A002B5BD0714B65
:109860001B68022222721A79002A5FD0012A0BD1CA
:10987000D3E903021044FFF70FFE002869D0112836
:1098800002D101232372E5E719688A68C2B1002278
:1098900068460092C0E902220325026101959A6898
:1098A00005921A79002A70D0012A07D102228DF878
:1098B0000020DA68120302925B6904938B68984770
:1098C00000235949594823726360FEF7FFFFC1E73F
:1098D000544B00221B68E2601A796AB1012AB5D1A3
:1098E000D3E9042101328A421A6111D0637C002B32
:1098F000AED1B4E7E360F9E7D3E90512881AB0F511
:10990000805F94BF121802F5805291429A61EDD1A6
:10991000002525727AE744494448FEF7A9FF414AE9
:109920000346106000289CD1606093E7D3E90525C9
:10993000521BB2F5805FD3E9031028BF4FF4805269
:109940009208012A38BF012229442844FFF7A2FDCA
:1099500093E7227C002A7FF47DAF227A002A3FF42D
:1099600079AF022A0AD1E0601A7912B3012A05D12F
:10997000D3E9042101328A421A6126D0637C002B8C
:109980007FF466AFFFF794FD64E701228DF80020B5
:109990001A690292DA6803925B6904938EE70122E6
:1099A0008DF800201A690292DA6803925B690493C9
:1099B00046E7D3E90512881AB0F5805F94BF121804
:1099C00002F5805291429A61D8D100222272196820
:1099D0008868A8B168460092C0E90122C0E9032264
:1099E0009A6805921A7982B1012A07D102228DF86C
:1099F0000020DA68120302925B6904938B6898472F
:109A000009490A48FEF762FFB8E701228DF80020F5
:109A10001A690292DA6803925B690493EEE700BF69
:109A2000D82B0020F02B0020EC2B0020C82B00208E
:109A3000FFF738B82DE9F041058ACE1C043D2E44CD
:109A40000746B6FBF5F6FFF749F878B3F6B24FF4E0
:109A50008073013E0446C5800760838027D080461E
:109A6000002509E06379AE4203F101036371C8F890
:109A70000000076080461AD03846FFF72FF80135FE
:109A80000028EFD16679721E14D02346013082423D
:109A90001B68FBD11F684EB10025236821460135A4
:109AA00038461C46FFF742F8AE42F6D10024204665
:109AB000BDE8F0812768EFE704300121FEF7C2BF5F
:109AC000F8B5012104460430FEF7C8FFC0B200B16A
:109AD000F8BD6679721E12D02346013082421B689F
:109AE000FBD11F68002EF3D00025236821460135E5
:109AF00038461C46FFF71AF8AE42F6D1F8BD276883
:109B0000F2E700BF2DE9F843C788467907FB06F660
:109B1000043E02EB030C0446664503F104001546BF
:109B20008846B0FBF7F238BFF51A07FB120012B1F6
:109B3000013A2468FCD13E1AAE4228BF2E469DB1A0
:109B40004FF000090430AD1B2044324608EB0901F8
:109B500005F0C9FAAF42B14424683E464FF0000018
:109B600028BF2E46002DEDD1BDE8F8832DE9F8433E
:109B7000C7884679154607FB06F6043E05EB030C3D
:109B80001A1D664504468846B2FBF7F038BFF51A41
:109B900007FB102110B101382468FCD17E1AAE42B7
:109BA00028BF2E469DB14FF0000904312144AD1B62
:109BB000324608EB090005F096FAAF42B14424683A
:109BC0003E464FF0000128BF2E46002DEDD1BDE8E6
:109BD000F88300BF41DF7047064A074B10B50024E9
:109BE00014701C60BFF35F8F0449054800F040F813
:109BF000204610BDFC2B0020002C0020C8F40200E1
:109C0000F42B002000B583B002A8002300F8013D2A
:109C1000FDF77CFDF1EE103A23F09F03E1EE103AE0
:109C2000BFF35F8F0A4B4022C3F884219DF80700E1
:109C3000FDF792FD05F07EF928B920BF40BF20BF97
:109C400003B05DF804FBFFF7C5FF03B05DF804FB4C
:109C500000E100E0826800239360826813618268FB
:109C600053618268D3608268536082681360704772
:109C700001600B6843604A68934204BF002343605D
:109C8000704700BF436843B1026891680B4443606A
:109C90005268934204BF00234360704730B4184DAC
:109CA000A5F59472AB1ADB1003EBD3735B1002EBD8
:109CB000C30152F83330984228BF0C4605D311E057
:109CC00052F8333098420CD221468B1ADB1003EB4A
:109CD000D3735B108A4202EBC304F1D3094830BC52
:109CE00070470D46984204D904F10802AA42D9D31C
:109CF000F4E76068034B002808BF1846EFE700BF91
:109D00001CF60200E0F4020010B44FF080414FF066
:109D100080520020C1F80C015E4BC1F81001C1F85F
:109D20003805D2F80414C3F82015D2F80814C3F883
:109D30002415D2F80C14C3F82815D2F81014C3F85F
:109D40002C15D2F81414C3F83015D2F81814C3F82F
:109D50003415D2F81C14C3F84015D2F82014C3F8F7
:109D60004415D2F82414C3F84815D2F82814C3F8BF
:109D70004C15D2F82C14C3F85015D2F83014C3F88F
:109D80005415D2F83414C3F86015D2F83814C3F857
:109D90006415D2F83C04C3F86805D2F840043E4983
:109DA000C3F86C050968D2F84424C3F87025082963
:109DB00024D04FF08043D3F80024D20744BF6FF083
:109DC0000102C3F80024354AD2F8883043F4700306
:109DD000C2F88830BFF34F8FBFF36F8F4FF010235F
:109DE000D3F80022002A23DBD3F80432002B1FDB38
:109DF0002B4B2C4A1A605DF8044B70472A4B1B68AA
:109E0000002BD6D129482A4A2A4C04602A492B4BD8
:109E1000FB20C2F818050A681B68294822F00F02C7
:109E200003F00F0313434FF400720B600260C0E7AE
:109E3000244B0122C3F80425D3F80024002AFBD0C8
:109E40004FF0102312221F49C3F80022D1F800342A
:109E5000002BFBD04FF0102212211A4BC2F8041233
:109E6000D3F80024002AFBD000221649C3F80425A9
:109E7000D1F80034002BFBD0BFF34F8F0749124BB2
:109E8000CA6802F4E0621343CB60BFF34F8F00BF98
:109E9000FDE700BF00C000403001001000ED00E011
:109EA0002C2200200090D003340100108C5600407A
:109EB00000F0004048810300E40E0040580200100A
:109EC0004096024000E001400400FA0510B570B170
:109ED00001280BD10D4C2369A0703BB1D3E90023BD
:109EE0000120226198472369002BF7D110BD074C50
:109EF000A36801226270002BF8D0D3E90023002070
:109F0000A2609847A368002BF7D1EFE7042C00204C
:109F100070B910B5074CA368012262703BB1D3E958
:109F200000230020A2609847A368002BF7D110BD42
:109F3000704700BF042C002030B5012883B01CD02E
:109F400015D3032811D100F02DF902A800231F4CCE
:109F500000F8013DFDF7DAFBE368013BE360E568EB
:109F600065B39DF80700FDF7F7FB03B030BD184B54
:109F70000122C3F8802003B030BD02A80023134C97
:109F800000F8013DFDF7C2FB237853B1E3689DF86B
:109F9000070001330122E360A270FDF7DDFB03B08F
:109FA00030BD0C486360A3602361E36000F0ECF80F
:109FB00004F0C0FF30B101232370E7E700F01EF981
:109FC000A570CEE700F0EEF8F5E700BF042C002006
:109FD00000E100E0CD9E020038B50C4C237873B947
:109FE0000B486360A3602361E36000F0CDF8054691
:109FF00004F0A0FF30B101232370284638BD852529
:10A00000284638BD00F0CEF8F5E700BF042C00204C
:10A01000CD9E020030B5194CA37883B0054693B1AC
:10A0200010B143680120984702A8002300F8013DC1
:10A03000FDF76CFBE3689DF807000133E360FDF773
:10A040008BFB03B030BD02A803F0FF0200F8012D26
:10A05000FDF75CFB65B1226942B1954208D0134619
:10A0600001E09D4204D01B68002BFAD12A602561D3
:10A07000E368002BDED100F0A9F8DBE7042C002018
:10A0800008B504F057FF28B94FF08043D3F81804FF
:10A09000C0F3004008BD00BF30B585B00478094A60
:10A0A000094B45688DF80040047AC068039053F866
:10A0B000213001958DF8084052F8211068469847E4
:10A0C00005B030BD182C0020202C002030B585B004
:10A0D000047845688DF80040D0E90240064A074BF5
:10A0E000039053F8213001958DF8084052F8211063
:10A0F0006846984705B030BD182C0020202C002061
:10A100002DE9F043DFF8748006784B7F08F80630BD
:10A110000D46074696460FCD89B06C460FC495E8AC
:10A120000F003D78DFF85890DFF858C018F8055058
:10A1300049F826E084E80F004CF82600049665B143
:10A14000BEF1000F0B4A694607F1040008BF002268
:10A1500000F0CCFE09B0BDE8F083BEF1000F064A66
:10A16000694607F10C0008BF002200F04FFC09B05F
:10A17000BDE8F08399A00200CDA00200B42F00201A
:10A18000202C0020182C0020054A13792BB901211E
:10A19000106053711846117170478520704700BFD9
:10A1A000282C0020084B1A68D20706D40122C021AF
:10A1B00083F80013C3F880211A604FF08043012216
:10A1C000C3F81825704700BF00E100E010B4094B48
:10A1D000094A0021196083B01B680193019C4FF06C
:10A1E000804102200123C1F80403136003B05DF82D
:10A1F000044B70470401004008000040044B01225A
:10A200001A604FF08042D2F81834DB03FBD4704759
:10A210000C00004010B5154B1A6882B07AB10021CD
:10A22000134A19601B68507900934FF08041012355
:10A23000009CC1F8083310B91168537188470D4B61
:10A240001A6882B100221A601B6801934FF08042A5
:10A250000221074B0198C2F808131B68012002B0C5
:10A26000BDE81040184702B010BD00BF000100401B
:10A27000282C0020040100402DE9F047002388B07D
:10A28000CDE90233CE4A1668012E00F03B821E460D
:10A29000CC4B1A68012A00F02782CB4B1A68012A9E
:10A2A00000F01482C94B1A68012A00F00182C84BE1
:10A2B0001A68012A00F0EE81C64B1A68012A00F0E4
:10A2C000DB81C54B1A68012A00F0C881C34B1A68AC
:10A2D000012A00F0B581C24B1A68012A0FD1002271
:10A2E0001A601B6801934FF0A042019BD2F8102521
:10A2F000BC4B0292D3F81035039346F0004616F09B
:10A30000FF0F1AD0B84F00240125A30003F18043AA
:10A310002E4203F5C0434FEA45050BD0D3F8100594
:10A3200057F82420D3F81015C0F30520C1F30141DC
:10A3300002B190470134082CE7D1002E02DB08B0AF
:10A34000BDE8F087A84CA74F4FF0FF33CDE90633A7
:10A3500094F960300DF1100800225D1CC8F804204B
:10A3600004924FF0010600F0F4805FFA83FC2CF0B9
:10A37000C00008AB4FEAD00903EB090E0CF007034D
:10A380001EF8082C06FA03F312EA030521D022185E
:10A390004FEA9C1192F9302054F82220002A00F054
:10A3A0002981032900F028811F2800F2F980054641
:10A3B0004FF0A04C0CEB850C1EF8185CDCF800E7A5
:10A3C0001D40CEF3014E40F0DF80BEF1030F00F0E0
:10A3D000BF8194F96130581C32D0DBB223F0C00049
:10A3E00008AA4FEAD00E02EB0E0C03F007011CF88E
:10A3F000082C06FA01F912EA090F21D0221899094E
:10A4000092F9302054F82220002A00F0FB80032922
:10A4100000F0FB801F2800F2E98003464FF0A04EB9
:10A420000EEB83031CF818ECD3F800C71EEA090FE3
:10A43000CCF3014C40F0B880BCF1030F00F0AE81CA
:10A4400094F96230591C30D0DBB223F0C00008AA66
:10A450004FEAD00E02EB0E0C03F007011CF8082C9B
:10A4600006FA01F912EA090F1FD02218990992F988
:10A47000302054F82220002A00F0D880032900F070
:10A48000D8801F287CD803464FF0A04E0EEB8303E4
:10A490001CF818ECD3F800C71EEA090FCCF3014CE6
:10A4A00064D1BCF1030F00F0658194F963305A1C4C
:10A4B00034D0DBB223F0C00008AA4FEAD00E02EB82
:10A4C0000E0C03F007021CF8081C06FA02F21142F7
:10A4D00024D004EB0009990999F9309054F8299097
:10A4E000B9F1000F00F09880032900F098801F2830
:10A4F0008BBFBE464FF0A04E03F01F0303460EEB8A
:10A5000083031CF818ECD3F800C71EEA020FCCF343
:10A51000014C20D1BCF1030F00F00181002D3FF46C
:10A520000EAF4FF0A0430299D3F81035D7F810259D
:10A53000994203D1039991423FF401AFDDE904014F
:10A54000CDE9023294F960305D1CCDE906017FF45B
:10A550000CAF00253DE7BCF1020FDFD1032900F06D
:10A560003481B9F1000F40F0F180D7E7BCF1020F60
:10A570009BD1032900F02681002A96D0904794E7CA
:10A5800003F01F03BE4681E7BEF1020FE1D10329AC
:10A5900000F021810025002A3FF41BAF904718E707
:10A5A0000CF01F05BC4605E7BCF1020F7FF448AF75
:10A5B000032900F00D81002A3FF442AF90473FE7A6
:10A5C0000061004004610040086100400C610040EF
:10A5D0001061004014610040186100401C6100409F
:10A5E0007C61004000030050302C002003F01F036A
:10A5F000BE4615E70329ACD118F809501D4308F8E9
:10A600000950D1E603297FF41BAF18F80EA04AEADF
:10A61000090A08F80EA0FDE603297FF47FAF18F8B9
:10A620000EA04AEA020A08F80EA060E703297FF4A8
:10A630003CAF18F80EA04AEA090A08F80EA020E775
:10A64000664AD2F8042317067FF545AE00221A6049
:10A650001B680093009B46F080063CE65F4AD2F8F8
:10A66000042352067FF532AE00221A601B68009365
:10A67000009B46F0400629E6584AD2F8042391068A
:10A680007FF51FAE00221A601B680093009B46F006
:10A69000200616E6514AD2F80423D0067FF50CAE08
:10A6A00000221A601B680093009B46F0100603E628
:10A6B0004A4AD2F8042314077FF5F9AD00221A6044
:10A6C0001B680093009B46F00806F0E5434AD2F869
:10A6D000042355077FF5E6AD00221A601B6800933E
:10A6E000009B46F00406DDE53C4AD2F804239707B8
:10A6F0007FF5D3AD00221A601B680093009B46F0E3
:10A700000206CAE53549D1F8041311F0010104D05D
:10A71000136013680093009BBAE50E46B8E5032961
:10A720007FF41FAF4FF4003CD3F8002722F44032EF
:10A73000C3F80027D3F80027013542EA0C02EDB236
:10A74000C3F80027B9F1000F3FF4EBAEC847E5E6C8
:10A7500003297FF420AF4FF40035DCF8003723F4F1
:10A760004033CCF80037DCF800372B43CCF8003707
:10A77000012510E703297FF4FFAE4FF4003ED3F824
:10A7800000C72CF4403CC3F800C7D3F800C701351C
:10A790004EEA0C0CEDB2C3F800C7EDE603297FF4D6
:10A7A0000AAF4FF4003ED3F800C72CF4403CC3F886
:10A7B00000C7D3F800C701354EEA0C0CEDB2C3F860
:10A7C00000C7F8E64FF4403ED9E74FF4403CABE712
:10A7D0004FF4403EE7E74FF44035BEE700600040ED
:10A7E000014B1B68184700BF9C2C0020104B98425F
:10A7F00001D00020704730B583B002A8002300F8D4
:10A80000013D0D46FCF782FF0A4B1C7934B19DF8DF
:10A810000700FCF7A1FF112003B030BD01229DF815
:10A8200007001D601A71FCF797FF2046F4E700BF90
:10A83000002000409C2C0020034B984203D1034B86
:10A8400000221A601A717047002000409C2C0020E2
:10A8500030B56C4AD2F8043399058BB066D5D2F87E
:10A860002431002B62D00023C2F82431D2F82431E5
:10A8700003934FF40171644B0398C2F8081393F8E3
:10A88000291009B9012151605E4902228DF8182072
:10A89000D1F88024C1F880249869D96809920022EF
:10A8A000CDE90710C3E90622D3E9001406A8A047A2
:10A8B000544AD2F81C31BBB1534B186A59698842CB
:10A8C00069D350480022C0F81C21D0F81C01019027
:10A8D000019849B198688DF8182008915A6107903D
:10A8E000D3E9001206A89047464AD2F84431DBB1BA
:10A8F0000021454BC2F84411D2F8440193F82910C5
:10A900000090009809B1012111609A6962B100229A
:10A91000586AD9689A610122CDE907108DF818208C
:10A9200006A8D3E9001290470BB030BD354AD2F8E3
:10A9300004335B07BCD5D2F80831002BB8D0324BBA
:10A94000996900293CD00021C2F80811D2F80811F9
:10A9500004910499D868596AD2F8182542545A6A61
:10A96000996901325A625A6A8A42A1D1DA69196830
:10A97000002A2ED0D8685D6A1C699A61079000226F
:10A980000120DC60DA615A628DF8180008955B6876
:10A9900006A898478CE793F8280000F0FF040028E9
:10A9A0008FD1C2F81C41D2F81C11029102999C6807
:10A9B000186A196A205C01311962C2F81C0593E714
:10A9C000C2F80811D2F8080105900598D2F81825A8
:10A9D000C9E793F8292012B90A4A01205060094AB0
:10A9E0004FF40170C2F80803586ADA68089000242E
:10A9F000012007928DF818005A689C6106A89047BC
:10AA000056E700BF00200040A42C00202DE9F041B3
:10AA1000DFF8E48107792C2606FB078682B096F8DA
:10AA20002A30002B40F0A1800D4604466E49006894
:10AA30001646FFF7DBFE002840F093802B68591C78
:10AA400019D01F2B4FF001028ABF68494FF0A04177
:10AA500003F01F0302FA03F3C1F808352B681F2B1C
:10AA600086BF03F01F03614A4FF0A04203F5E07375
:10AA7000032142F823106B685A1C0BD01F2B86BF92
:10AA800003F01F03594A4FF0A04203F5E073002181
:10AA900042F823102368AA69C3F82425297D6B7D19
:10AAA00022680B43C2F86C35D5E900122368C3F85D
:10AAB0001425C3F80C152B7D012B5AD02C2303FB36
:10AAC00007F308EB030256602A6948F80320002EBA
:10AAD00034D022682B7F464D0021C2F81C11D2F8D9
:10AAE0001C2100922268009EC2F84411D2F8441141
:10AAF000226801910199C2F804532168090B4AB2F6
:10AB00005B01002ADBB269DB02F1604202F56142BF
:10AB100082F800332268120B42F3C40323F060432F
:10AB200023F0030303F1604303F5614302F01F02C6
:10AB3000012101FA02F2C3F880211A602C23246853
:10AB400003FB0783002204250121C4F8005583F884
:10AB50002A10C3E9062283F829205A6102B0BDE811
:10AB6000F081112002B0BDE8F081082002B0BDE8FC
:10AB7000F081AB68591C0BD01F2B86BF03F01F035D
:10AB80001A4A4FF0A04203F5E073002142F8231067
:10AB9000EB685A1C1BD01F2B4FF001028ABF1349D0
:10ABA0004FF0A04103F01F0302FA03F3C1F8083588
:10ABB000EB681F2B88BF03F01F0303F5E0738CBF06
:10ABC0000A4A4FF0A042032142F82310EB682268A2
:10ABD000A968C2F80835C2F810156FE7054A01F0F8
:10ABE0000F010A44137695E751A8020000030050B4
:10ABF00080000200FCEC00E0A42C0020F8B53A4FE5
:10AC0000047902682C2303FB047300215B68C2F8FB
:10AC1000001583B10368354AC3F808230368344D2F
:10AC20001B0B5AB25209203203F01F03012101FA13
:10AC300003F345F8223003684FF0FF3CD3F80C656E
:10AC4000D3F81455D3F80825D3F81015C3F814C554
:10AC5000C3F80CC503686645C3F808C5C3F810C53A
:10AC60000CD01F2E86BF06F01F06224B4FF0A043CC
:10AC700006F5E0764FF0020C43F826C06E1C0BD0B0
:10AC80001F2D86BF05F01F051A4B4FF0A04305F599
:10AC9000E075022643F825604D1C0BD01F2986BFA6
:10ACA00001F01F01134B4FF0A04301F5E0710225A5
:10ACB00043F82150531C0BD01F2A86BF02F01F02FD
:10ACC0000C494FF0A04102F5E072022341F8223016
:10ACD0000068FFF7B1FD2C2303FB0474002384F804
:10ACE0002A306360F8BD00BFA42C0020840202005B
:10ACF00000E100E000030050F0B5314E05792C234F
:10AD000003FB056385B05C69002C53D11C6299601C
:10AD100083F828405A610268C2F81C41D2F81C111D
:10AD2000026802910121029F91600268D3F808C075
:10AD3000C2F81C41D2F81C1101910199D3F820E00E
:10AD4000196A5F681CF80EE001311962C2F81CE54F
:10AD500017B1204605B0F0BD1A6A5C6901689442DB
:10AD600003D819E093F828203ABBD1F81C21002A17
:10AD7000F8D0C1F81C71D1F81C210392039AD3F8C2
:10AD800020E01A6A1CF80EE001321A62C1F81CE5D4
:10AD90001A6AA242E9D30168D1F81C31002BFBD01A
:10ADA0000123CB6000202C2303FB056500236B618E
:10ADB00005B0F0BD112005B0F0BD0F20F3E700BFD6
:10ADC000A42C0020F0B5474BD3F8242189B0002AE9
:10ADD00054D00021C3F82411D3F824210292022276
:10ADE0008DF81020029AD3F880043F4AC3F88004FB
:10ADF0000790D3F83C05D3688DF81800C2E9061116
:10AE000005931168536804A89847364BD3F844213A
:10AE1000BAB10020344AC3F84401D3F844419169DF
:10AE20000194019C69B1D3F83C458DF81840D36872
:10AE3000906101240593116853688DF8104004A8AF
:10AE40009847284BD3F82021B2B10021264AC3F8F5
:10AE50002011D3F8204150690094009C60B1D3F8D0
:10AE60004C0593688DF818008DF81010516105930A
:10AE700004A8D2E90013984709B0F0BDD3F8101127
:10AE80000029C2D0C3F81021D3F81011164803913D
:10AE900003998169D3F83C458C42B6D1C569C7682E
:10AEA000D0E90016E4B295B1D3F800C285612CF068
:10AEB0002005C261C3F800520369C36001228DF806
:10AEC000184005978DF8102004A8B0479DE701238E
:10AED00085618DF8184005978DF8103004A8B047AB
:10AEE00093E700BF00200040D02C00202DE9F04364
:10AEF00007797E4E4FEAC70808EB070306EB83038A
:10AF000085B093F82030002B40F0B0800D46044609
:10AF1000774900689146FFF769FC002840F0A2805D
:10AF20002B68591C19D01F2B4FF001028ABF7149A1
:10AF30004FF0A04103F01F0302FA03F3C1F80835F4
:10AF40002B681F2B86BF03F01F036A4A4FF0A042F5
:10AF500003F5E073032142F823106B685A1C0BD0F1
:10AF60001F2B86BF03F01F03624A4FF0A04203F578
:10AF7000E073002142F823102368AA69C3F824254E
:10AF8000297D6A7D23680A43C3F86C25D5E9003121
:10AF90002268C2F80C35C2F814152B7D012B69D03C
:10AFA00008EB07029200B318C3F804902B69B35062
:10AFB000B9F1000F45D021682B7F4F4D0022C1F819
:10AFC0001021D1F8101100912168DDF800C0C1F8FE
:10AFD0002021D1F8201101912168DDF804C0C1F8C9
:10AFE0002421D1F8241102912168DDF808C0C1F8AC
:10AFF0004421D1F84411226803910399C2F8045303
:10B000002168090B4AB25B01002ADBB267DB02F15F
:10B01000604202F5614282F800332268120B42F36B
:10B02000C40323F0604323F0030303F1604303F5FB
:10B03000614302F01F02012101FA02F2C3F88021EC
:10B040001A604744226806EB870600230124082182
:10B0500086F82040C2F80015C6E90633736105B0D2
:10B06000BDE8F083112005B0BDE8F083082005B0ED
:10B07000BDE8F083AB68591C0BD01F2B86BF03F0D3
:10B080001F031C4A4FF0A04203F5E073002142F871
:10B090002310EB685A1C1BD01F2B4FF001028ABFF4
:10B0A00014494FF0A04103F01F0302FA03F3C1F863
:10B0B0000835EB681F2B88BF03F01F0303F5E0730F
:10B0C0008CBF0C4A4FF0A042032142F82310EB68DA
:10B0D0002268A968C2F80835C2F8101560E7074A67
:10B0E00001F00F010A44137697E700BFD02C00202F
:10B0F000C5AD02000003005010030200FCEC00E0AC
:10B10000F8B507793A4C0268FE00F31904EB8303A3
:10B1100000215B68C2F8001583B10368354AC3F8A3
:10B1200008230368344D1B0B5AB25209203203F036
:10B130001F03012101FA03F345F8223003684FF0A1
:10B14000FF3ED3F80CC5D3F81455D3F80825D3F82F
:10B150001015C3F80CE5C3F814E50368F445C3F80B
:10B1600008E5C3F810E50DD0BCF11F0F86BF0CF049
:10B170001F0C224B4FF0A0430CF5E07C4FF0020E69
:10B1800043F82CE06B1C0CD01F2D86BF05F01F056B
:10B190001A4B4FF0A04305F5E0754FF0020C43F851
:10B1A00025C04D1C0BD01F2986BF01F01F01134B7A
:10B1B0004FF0A04301F5E071022543F82150531CE4
:10B1C0000BD01F2A86BF02F01F020C494FF0A0418E
:10B1D00002F5E072022341F822303E4404EB86047B
:10B1E0000068FFF729FB002384F820306360F8BD76
:10B1F000D02C00201003020000E100E0000300500A
:10B2000001F06043B3F1005F2CD1F0B50679234F14
:10B210004FEAC60C0CEB060407EB840483B06369A9
:10B2200013BBA16062610568C5F82031D5F820E143
:10B230000568CDF804E0DDF804E0C5F85831D5F82C
:10B2400058E10568CDF800E0DDF800E0C5F84415E8
:10B25000C5F8482502680121916062683AB1184634
:10B2600003B0F0BD10207047112003B0F0BD03689B
:10B2700000E08AB9D3F82011D3F858210029F8D07A
:10B28000002A14BF0F2000200CEB060307EB8303FA
:10B2900000225A6103B0F0BD0F20F5E7D02C00204A
:10B2A00070B9012A08D0012911D00BD3022907D186
:10B2B000094B00205A707047012907D00246F2E777
:10B2C00007207047044B00209A7070470E22024BF3
:10B2D00000201A70704700BFF42C002010B50388BE
:10B2E000102B07D0112B04D1254B1868013818609A
:10B2F00030B110BD224C216881B10131216010BDF7
:10B3000001220221FFF7CCFF38B3072825D01D4BBF
:10B310001B68002BEDD0BDE81040184701220846FD
:10B32000FFF7BEFF38B1072805D0164B1B6803B1E5
:10B3300098472168E1E7072202210120FFF7B0FFCB
:10B3400008B10728F1D1042202210020FFF7A8FF4D
:10B350000028EED00728E8D1EBE7072202210120E0
:10B36000FFF79EFF08B10728D1D1002108460A2225
:10B37000FFF796FF0028BCD00728C8D110BD00BF3A
:10B38000FC2C0020F82C002038B51F4B1F4C4FF42C
:10B3900080614FF400554FF40040C3F80C15C3F81A
:10B3A0000C55C3F80C05227822B1022A1BD0012AC1
:10B3B0000DD038BDC3F8081515484FF40031FCF71F
:10B3C00015F908B1FBF74AFE0223237038BDC3F814
:10B3D000085500224FF480310D48FCF707F980B979
:10B3E0000023237038BDC3F8080500224FF4003154
:10B3F0000748FCF7FBF808B1FBF730FE0123237088
:10B4000038BDFBF72BFEEBE700030050B62F002002
:10B41000002D002008B54FF400410020FBF7DEF8B6
:10B4200008B1FBF71BFEFBF75FF8FEF7D5FD08B18F
:10B43000FBF714FE0020FEF7EDFDFEF721FE0028CD
:10B44000FBD0FCF76DF808B1FBF708FE204A214855
:10B450000021FCF7B9F808B1FBF700FEFEF7BCFBD2
:10B4600008B1FBF7FBFD1C4A1C4C1D4B1D49A41ADF
:10B47000E40840F20F322404C3F8282744F00504FE
:10B48000C3F834274FF40050C3F83C274FF48065CD
:10B490004FF40042C3F80C55C3F80C05C3F80C2553
:10B4A0002046FBF7FBF820460F49FBF7F7F820464C
:10B4B0000E49FBF7F3F800230D4A18461370FFF707
:10B4C00063FFFBF723FC0028FBD1FEF79BFBF8E7AB
:10B4D00089B30200A4FA0200D0080300F8080300B0
:10B4E0000003005034FA020058FA02007CFA02000D
:10B4F000B62F0020F0B50288112A83B0034649D048
:10B5000036D9122A08D0502A04D16C4DC188EA8954
:10B51000914251D003B0F0BD694C8288218891429C
:10B52000F8D1E1896589B1F5FA7F24BF6FF4F9702C
:10B530000E18588938BF002685424FD8A589854204
:10B540004CD39B89B34249D301F2F311994245D3BD
:10B550005A4B5B694FF480712181002BDAD00121B5
:10B56000ADF806208DF8041001A8984703B0F0BD8F
:10B57000102ACFD1C27B012ACCD1514C21884FF661
:10B58000FF7291423CD04D4B9B69002BC2D00420EE
:10B590009847BFE74A4C828823889A42BAD16068AC
:10B5A000FCF77AF818B1454B9B6903B198474FF601
:10B5B000FF73238003B0F0BD028A022AAAD1404C57
:10B5C00086882788B742A5D1123000F0B5F9002847
:10B5D00056D16068FCF760F870B99BE7374D267A62
:10B5E0006068D5E90131002E08BF19460023637257
:10B5F000FBF7FCFF00288DD0AB69002BB5D189E7A4
:10B60000304D8288228003CDC4F80E10E689C4F83C
:10B610000A00B6F5FA7F28BF6FF4F9754FF0000104
:10B62000588AB4F80AC0217228BF7119234D844585
:10B63000EF8919D8B4F80CC0844515D39B8A8B4286
:10B6400012D306F2F3169E420ED301216172002F2F
:10B650007FF460AF6B69002B3FF45CAF8DF8041092
:10B66000ADF8062001A880E700236372002F7FF465
:10B6700051AF60686968FBF7B9FF0028BCD149E7A2
:10B68000637A63B9D5E90131267A60683A46002EBB
:10B6900008BF1946FBF7AAFF0028ADD13AE76B694E
:10B6A00000222272002B3FF435AF0122ADF8066074
:10B6B0008DF8042001A898472CE700BF202D00201A
:10B6C0003C2D0020502D00202DE9F0470388B0F8D4
:10B6D0000490112B98B059D01A2B804647D0102BCC
:10B6E00002D018B0BDE8F087394A936818A8DB4348
:10B6F00040F8603D5168FDF78DF9009B0193019B77
:10B7000063B300273C46214601A8FDF713F928B191
:10B7100018AB03EB4703013723F8284C0134142CF2
:10B72000F1D10D970DAE0FCE02AC0FC40FCE0FC4EA
:10B7300096E8070084E8070087B10DF10A0A254E54
:10B740000AEB47073AF8025F234C204629460434A7
:10B75000FDF7E6F8A642F8D1BA45F3D1B9F1130FD7
:10B760001BD90420FBF77AFC18B0BDE8F087047AF7
:10B770001A482409012C494620D9FDF7B7F8022CB4
:10B78000494617481ED0FDF7B1F8AAE749461548C3
:10B79000FDF7C6F818B0BDE8F08749461148FDF737
:10B7A000A5F849460C48FDF7A1F898F80F30012B91
:10B7B00097D049460C48FDF799F892E7FDF7B0F8A5
:10B7C00007484946FDF7ACF818B0BDE8F08700BF60
:10B7D000582D0020D02D00205C2D0020682D002049
:10B7E0006C2D0020602D0020642D0020132801D92D
:10B7F0000020704701460148FDF79CB85C2D0020F1
:10B80000132801D90020704710B5014604460748A7
:10B81000FDF790F808B9002010BD21460448FDF757
:10B8200089F8002814BF0220012010BD5C2D0020E3
:10B83000642D0020132801D90020704710B501465F
:10B8400004460648FDF776F808B9002010BD2146E9
:10B850000348BDE81040FDF76DB800BF5C2D002027
:10B86000682D002070B50C4C054620460E46FDF7AD
:10B8700061F808B1132D01D9002070BD2946201DA3
:10B88000FDF758F80028F7D0B01D04EB80002946DA
:10B89000BDE87040FDF74EB8582D0020F8B50F4CAC
:10B8A0000546204617460E46FDF744F808B1132D0D
:10B8B00000D9F8BD2946201DFDF73CF80028F8D036
:10B8C000B01D04EB800029461FB9BDE8F840FDF724
:10B8D00027B8BDE8F840FDF709B800BF582D002093
:10B8E000F0B5144C054683B00F462046294616464F
:10B8F000FDF720F818B90025284603B0F0BD04353F
:10B9000004EB8504A3680193002FF4D0019B002B66
:10B91000F1D000252C46214601A8FDF70BF8314651
:10B9200010B1A0B2B84701350134142CF3D1284628
:10B9300003B0F0BD582D0020007800F001007047E2
:10B94000A0DF704710B582B004460422684600218B
:10B9500003F0D4FB084B02AA1B6842F8043D694679
:10B960000123204642F6A624ADF800408DF80230AF
:10B97000FFF7E6FF02B010BDA8FA020070B5012182
:10B9800086B005463A48FDF723F8BFF35F8F08B14C
:10B9900006B070BD0446284600F054FC1128064647
:10B9A0005FD012D986283CD043F20203984214D1CA
:10B9B000304B224628461978FFF770FFBFF35F8FA0
:10B9C0002B4B00221A6006B070BD30B9294B0246DD
:10B9D00019782846FFF762FFDAE73046FEF75EF98E
:10B9E000254C264B2649E41AE408240402462B463B
:10B9F00044F00100FBF780F8002407232846CDE936
:10BA000000440296ADF80250CDE9034405948DF848
:10BA1000003000F0C1FEADF80400684602F0B4F852
:10BA2000C6E7164B144817490094C01AC008000412
:10BA300006232A4640F002008DF80030ADF802508F
:10BA4000CDE90144CDE903440594FAF7D5FFBDF8EB
:10BA5000020000F0A1FEADF80400684602F094F880
:10BA6000A6E7044B284619780122FFF717FFA5E740
:10BA7000D02D0020D62D002038090300D008030067
:10BA8000ECFA0200B4FA020070B54FF6FF728CB007
:10BA900000249042CDE90044CDE90244CDE90444BC
:10BAA000ADF8020001D10CB070BD054600F034FCC9
:10BAB0000B28064644D00FD911280BD043F20203BD
:10BAC000984218D122462B4B28461978FFF7E6FEFC
:10BAD0000CB070BD0122F6E768B90E23BDF8020074
