:020000022000DC
:106000000000042079630200616302006363020000
:10601000656302006763020069630200000000001C
:106020000000000000000000000000006B630200A0
:106030006D630200000000006F63020071630200E4
:1060400065C50200736302006DD202007363020033
:10605000736302007363020085CF02007363020062
:1060600073630200736302007363020073630200D0
:1060700073630200736302007363020073630200C0
:1060800073630200E582020073630200736302001F
:106090002583020021470300E94C030073630200DB
:1060A0007363020073630200736302007363020090
:1060B0007363020073630200000000000000000030
:1060C0007363020073630200736302007363020070
:1060D0007363020073630200736302007363020060
:1060E0007363020073630200736302000000000028
:1060F00000000000736302000000000073630200F0
:10610000000000000000000000000000000000008F
:10611000000000000000000000000000000000007F
:10612000000000000000000000000000000000006F
:10613000000000000000000000000000000000005F
:10614000000000000000000000000000000000004F
:10615000000000000000000000000000000000003F
:10616000000000000000000000000000000000002F
:10617000000000000000000000000000000000001F
:10618000000000000000000000000000000000000F
:1061900000000000000000000000000000000000FF
:1061A00000000000000000000000000000000000EF
:1061B00000000000000000000000000000000000DF
:1061C00000000000000000000000000000000000CF
:1061D00000000000000000000000000000000000BF
:1061E00000000000000000000000000000000000AF
:1061F000000000000000000000000000000000009F
:10620000364937480A1A02D0072291438D4635494C
:1062100035480A1A06D00722914381F309880222E1
:1062200082F3148831483249324A00F045F8324846
:106230003249334A00F040F832483349334A00F0DB
:106240003BF833483349344A00F036F83348344990
:10625000344A00F031F834483449354A00F02CF81B
:1062600034483549354A00F027F835483549002289
:1062700000F02DF834483549002200F028F8344861
:106280003449091A082903DB002202600430016046
:10629000314A90471F482049884205D0026804309F
:1062A00003B4904703BCF7E700208646EC46002085
:1062B00000212A4A9047FEE7884207D0521A05D0AB
:1062C000037801300B700131013AF9D170478842EF
:1062D00002D002700130FAE770470000000004208D
:1062E00000E003200000042000000420908C030044
:1062F00024220020C0220020D8630200D8630200BC
:1063000082530300908C03002422002024220020CA
:10631000CC540300CC540300CC540300CC540300F1
:10632000CC540300CC540300CC540300CC540300E1
:10633000908C03002C8D0300C0220020C02200207E
:10634000C0220020F4300020F4300020F43000207F
:10635000F4300020F4500020A163020021F8020074
:10636000FEE7FEE7FEE7FEE7FEE7FEE7FEE7FEE705
:10637000FEE7FEE7704700BF1048804710484FF027
:106380000701884385460F4880470F48016841F45C
:1063900070010160BFF34F8FBFF36F8FFFF730BF06
:1063A0000A480B490B4A884207D0521A05D0037895
:1063B00001300B700131013AF9D170477563020069
:1063C000000004201DB9020088ED00E0B85403006D
:0863D00010220020242200200D
:1063D80000B5A1B00590049103920293049805F0CA
:1063E80028F8039B1593029B169300231793002309
:1063F8008DF8603000231993229B1A9300231F9372
:106408000FA91F9B0822049805F0ECF808231F9396
:10641800119B1293BDF84030ADF84C30BDF84230B6
:10642800ADF84E3000238DF851309DF83C3003F024
:106438000303DBB2012B26D10F9BC3F395231C93D7
:106448009DF83C30C3F3C203DBB28DF85030BDF881
:106458003C30C3F38313DBB21B931B9B9A0009A93F
:106468001F9B049805F0BEF81B9B9B001F9A1344C2
:106478001F9312AA09A915AB009313461B9A1C98DF
:1064880001F012F82FE09DF83C3003F00303DBB273
:10649800022B28D1BDF83E30C3F389139BB21E935B
:1064A8009DF83C30C3F3C203DBB28DF850301E9B1D
:1064B800082B28BF08231D9307A91F9B1D9A049822
:1064C80005F090F81F9A1D9B13441F931E9A1D9B5D
:1064D800D31A1E9315AB12AA07A81D9901F086F8C6
:1064E8001E9B002BE3D1049804F0B2FF00BF21B03B
:1064F8005DF804FB00B583B00190019B1B781A4638
:106508000C4B9B5C002B05D0019B0433184608F00C
:1065180021F90BE0019B1B781A46064B9B5C002B6C
:1065280004D1019B0C33184607F0D6FA00BF03B01C
:106538005DF804FBCC2A002000B587B003900291D7
:1065480013468DF8073000230593039B1B781A46E2
:10655800114B9B5C002B09D0039B04339DF807204B
:106568000299184608F024F905900FE0039B1B7860
:106578001A46094B9B5C002B08D1039B0C339DF8F2
:1065880007200299184607F01DFB0590059B184641
:1065980007B05DF804FB00BFCC2A002082B0019050
:1065A8000091034B01221A7000BF02B0704700BF70
:1065B8000023002030B58DB003468DF807301A4B04
:1065C80002AC1D460FCD0FC495E80F0084E80F00FC
:1065D800062302934FF0FF3303934FF0FF330493E6
:1065E8004FF0FF3305934FF0EB7308939DF8073096
:1065F800002B01D00D4A00E0002202AB19460C48DE
:1066080005F0A2FD0B900B9B0A930A9B002B04D06C
:10661800084A43210A9801F0ABF8074A9DF8073069
:10662800137000BF0DB030BD34550300A5650200DE
:1066380024220020CC5403000123002000B583B09D
:1066480001238DF807309DF807301846FFF7B2FF91
:1066580000BF03B05DF804FB00B589B00390029158
:106668000192019B8DF81F30124B00221A709DF881
:106678001F301A4602991048FFF75EFF0690069BE6
:106688000593059B002B04D00C4A5321059801F073
:106698006FF800BF0A4B1B78002B07D0054B1B78FF
:1066A800DBB283F00103DBB2002BF3D100BF09B0EA
:1066B8005DF804FB0023002024220020CC540300B2
:1066C8000123002000B585B003900291054B00938B
:1066D8004023054A02990398FFF77AFE00BF05B0E8
:1066E8005DF804FB61660200C022002082B00190C0
:1066F80000BF02B07047000000B583B001900548A4
:10670800FFF7F8FE0020FFF755FF00BF03B05DF864
:1067180004FB00BF2422002082B00190019BDB68AB
:1067280001225A7100BF02B07047000000B583B063
:106738004FF0FF330193FFF781FF0421084800F071
:10674800CFFD0190019B002B03DA0649482003F096
:106758008EFA0348FFF7E0FF00BF03B05DF804FBC3
:10676800A85403007455030000B583B0019000914C
:10677800019B1B681B6800990198984700BF03B0EC
:106788005DF804FB00B583B00190019B1B685B6852
:106798000198984700BF03B05DF804FB00B583B0CB
:1067A8000190019B1B689B680198984700BF03B044
:1067B8005DF804FB82B001900B468DF80330019B15
:1067C800DB689DF803201A7100BF02B0704782B0E1
:1067D8000190019BDB681B79184602B0704782B0B4
:1067E8000190019BDB6801225A7100BF02B070471B
:1067F80082B00190019BDB685B79184602B0704754
:1068080000B585B001900091154BFF229A60144B9A
:1068180000221A60124B00225A60114B0022C3F862
:1068280018240F4B0022C3F814240D4B002283F8C0
:1068380020240C4804F062FD0390039B002B01D038
:10684800039B08E0084804F087FF084A084BD31A5E
:10685800DB0802930023184605B05DF804FB00BF6F
:106868006C240020E4530300E0550300A8540300FF
:10687800F8530300024A034BD31ADB081846704743
:10688800A8540300F853030000B587B001900B46E5
:106898008DF803309DF80330002B1FD0FFF7EAFF77
:1068A80004900023059313E0059B9B000E4A1344B4
:1068B8000393039B1B881A46019B1B689A4204D1C9
:1068C800019B059A1A60002309E0059B0133059393
:1068D800059A049B9A42E7D3052300E00023184653
:1068E80007B05DF804FB00BF2422002000B585B086
:1068F80001900B468DF803309DF8032001AB11463B
:106908001846FFF7C1FF0346002B07D1019BDB00A8
:10691800054A13440393039B1B6800E000231846B1
:1069280005B05DF804FB00BFF853030084B0019084
:106938000B468DF80330019BDB00174A1344029382
:106948009DF80330013B032B1CD801A252F823F019
:1069580069690200716902007969020083690200AD
:1069680002238DF80F3011E004238DF80F300DE06D
:10697800029B1B798DF80F3008E0029B5B798DF83C
:106988000F3003E000238DF80F3000BF9DF80F3063
:10699800184604B0704700BFF853030084B0019054
:1069A800009100238DF80F30019B1B7803F004033E
:1069B800DBB2002B24D0019B1B78C3F30103DBB2AD
:1069C800012B02D0022B0CD017E0009B1B68019A08
:1069D8001288C2F38312D2B213449A1C009B1A6025
:1069E8000BE0009B1B68019A5288C2F3891292B28D
:1069F80013449A1C009B1A6000BF01238DF80F30C6
:106A08009DF80F30184604B07047000000B58BB0F1
:106A18000023ADF826303E4803F087FB3D4803F0DD
:106A280084FB3D4B5B6804933B4B9B680693049A3D
:106A3800069B134002339B00374A134404330893E0
:106A480004AB19460898FFF7A9FF0346002B09D0A5
:106A5800049A069B134002339B002F4A13440433C5
:106A68000893EDE700BF0023079311E0049B5A1C2D
:106A78000492069A1340079A920001A90A442649EB
:106A880002339B000B445B681360079B0133079339
:106A9800079B012BEAD99DF80430C3F30103DBB24D
:106AA800012B10D0022B1CD1BDF80A30ADF82630CE
:106AB800BDF80630C3F389139BB203339A08049BCD
:106AC8001344049313E0BDF80A30ADF82630BDF83E
:106AD8000430C3F38313DBB21A46049B13440493B4
:106AE80005E00E494FF4BF7003F0C1F800BF094834
:106AF80003F027FB0590059B002B02D0049B064A58
:106B08005360BDF8263018460BB05DF804FB00BF93
:106B180084280020802800206C240020F0550300E1
:106B280000B585B00021074803F040FA0390039BA5
:106B38000293029B83F310030193019B184605B04F
:106B48005DF804FB8828002000B589B00390029105
:106B580001920093039B1B0C0793FFF7E1FF06903C
:106B6800FFF788FE0246079B934204D3214940F26F
:106B7800A31003F07CF8069B1904009B5A1C0A9B7F
:106B88001340079A0A431C4902339B000B445A607E
:106B9800009A0A9B134002339B00174A134404339C
:106BA8000593039B03F00703D9B2059A137861F3A1
:106BB800C5031370019B03F00F03D9B2059A13881C
:106BC80061F389131380029BC3F31501059A1368B7
:106BD80061F39F231360059A1378012161F3010380
:106BE8001370059A13786FF38203137000BF09B00E
:106BF8005DF804FBF05503006C24002000B58DB04F
:106C08000390029113468DF80730039B02330A93D1
:106C180001238DF8273000238DF81B300DF11B035D
:106C2800184601F0BFFC404B1A68029B1A603E4BA5
:106C38009A683D4B59683C4B1B68CB1A1344013387
:106C48000B9314E00121394803F03FFAFFF7DEFE09
:106C580007900799354803F038FA334B9A68324B56
:106C68005968314B1B68CB1A134401330B930A9AAA
:106C78000B9B9A42E6D89DF82730002B48D000237A
:106C880005939DF80730002B17D09DF8143001228A
:106C980062F301038DF814309DF8143043F00403B7
:106CA8008DF81430039B03F00F03DAB2BDF81430EB
:106CB80062F38913ADF8143016E09DF814300222FF
:106CC80062F301038DF814309DF8143043F0040387
:106CD8008DF81430039BC3F309039AB2BDF816303C
:106CE80062F38F13ADF816300F4B1A680E4B9B6882
:106CF800134002339B000C4A134404330893059A4B
:106D0800089B1A60084B1A680A9B1344064A1360CA
:106D18009DF81B30184601F05BFC9DF8273018469B
:106D28000DB05DF804FB00BF6C240020882800200B
:106D380000B58BB005900491039202931F4B9B689A
:106D4800079306AB012219460298FFF757FF03463F
:106D5800002B24D0069B023309930023089311E0EB
:106D6800089B9B00039A1A44099B591C099107998F
:106D78000B401268114902339B000B445A60089B70
:106D880001330893089A029B9A42E9D3069A079B13
:106D980000931346029A04990598FFF7D5FE074B0E
:106DA80093F82034002B05D000BF00F093F8034679
:106DB800002BFAD100BF0BB05DF804FB6C24002057
:106DC80000B583B00190009100230022009901983A
:106DD800FFF7AEFF00BF03B05DF804FB00B587B056
:106DE800039002910192019B059305AA0123029940
:106DF8000398FFF79DFF00BF07B05DF804FB00B5DF
:106E080087B00390029101920093019B0493009B29
:106E1800059304AA022302990398FFF789FF00BF8C
:106E280007B05DF804FB00B589B0039002910192A8
:106E38000093019B0593009B06930A9B079305AA61
:106E4800032302990398FFF773FF00BF09B05DF8A9
:106E580004FB00B589B00390029101920093019B55
:106E68000493009B05930A9B06930B9B079304AA24
:106E7800042302990398FFF75BFF00BF09B05DF890
:106E880004FB00B58BB00390029101920093019B23
:106E98000593009B06930C9B07930D9B08930E9BF1
:106EA800099305AA052302990398FFF741FF00BF3C
:106EB8000BB05DF804FB0000054B5A68044B1B68D7
:106EC8009A420CBF01230023DBB21846704700BF6B
:106ED8006C24002000B599B0FFF7EEFF0346002BA5
:106EE80001D00023BCE19A4B0022C3F81824BFF359
:106EF8004F8F974B5B680493954B9B681093049A4C
:106F0800109B134002339B00914A1344043311939E
:106F1800002317930023169300230F9304AB1946FD
:106F28001198FFF73BFD0346002B19D0884BD3F887
:106F38001834002B14D1864B1A68049B9A4205D842
:106F4800834B1B68824A5360002389E1049A109B93
:106F5800134002339B007E4A134404331193DDE748
:106F68000023159311E0049B5A1C0492109A1340B5
:106F7800159A920001A90A44754902339B000B44F3
:106F88005B681360159B01331593159B012BEAD998
:106F98009DF8043003F00303DBB2022B40F09C8021
:106FA800BDF80630C3F389139BB20D93BDF80630C4
:106FB800C3F389139BB2502B28BF50239BB20C9369
:106FC8000C9BC3F309039AB2BDF8063062F38F1322
:106FD800ADF806300C9B08330B939DF80430C3F3CF
:106FE800C203DBB20F930B995A4804F092F9179039
:106FF800179B002B00F0D080179804F01AFA01A90B
:10700800169B0822179804F0CFFA169B083316939C
:10701800049BDA43109B134001339B000A930C9A9C
:107028000A9B9A4242D90A9B002B08D0049A109BCB
:10703800134002339B00464A1344043300E0464B96
:1070480008930A9B002B02D00A9BDBB201E00C9B41
:10705800DBB28DF81F300A9B002B01D03E4B00E0BD
:10706800002306930A9B002B06D00C9BDAB20A9BDE
:10707800DBB2D31ADBB200E000238DF817309DF89D
:107088001F20169B0899179804F08EFA9DF81F3058
:10709800169A13441693069B002B16D09DF81720BA
:1070A800169B0699179804F07FFA0EE0049A109B35
:1070B800134002339B00264A134404330993169B5A
:1070C8000C9A0999179804F06FFA0D9B03339A08E4
:1070D800049B134404935FE09DF8043003F003031A
:1070E800DBB2012B58D1BDF80430C3F38313DBB2F4
:1070F800062B28BF0623DAB2BDF8043062F38913E1
:10710800ADF80430BDF80430C3F38313DBB20233A7
:107118000E939DF80430C3F3C203DBB20F930E9BAA
:107128009B0019460B4804F0F4F81790179B002BA6
:1071380032D0179804F07DF901A9169B08221798F8
:1071480004F032FA169B08331693002315931AE0BD
:107158006C240020E453030078240020049B5A1C6C
:107168000492109A134002339B003F4A1344191D9E
:10717800169B0422179804F017FA169B04331693EB
:10718800159B01331593BDF80430C3F38313DBB2A9
:107198001A46159B9342E1D3179B002B40D0324BE4
:1071A800D3F810341493304BD3F81834002B1BD079
:1071B800179804F04DF94DE000238DF84F301498DE
:1071C800FFF716FB0346002B02D001238DF84F3042
:1071D8009DF84F30002B03D017991498FFF7C4FA85
:1071E800149BDB681B681493149B002BE4D117983D
:1071F80004F02EF900238DF803300DF1030318462F
:1072080001F0D0F9184BD3F81834002B02D1049BA5
:10721800154A53609DF80330184601F0D9F919E072
:10722800114BD3F81034129306E01298FFF7B6FA10
:10723800129BDB681B681293129B002BF5D10B4A3B
:107248000B4BD31ADB081B0443F002030949184609
:10725800FFF7B6FDFFF730FE034683F00103DBB20C
:10726800184619B05DF804FB6C2400202054030074
:10727800F85303005456030000B585B00023039368
:1072880023E0164BD3F81034029301238DF807300E
:107298000FE00298FFF79BFA03461A46039B9342B6
:1072A80003D100238DF8073006E0029BDB681B68DA
:1072B8000293029B002BECD19DF80730002B01D0E4
:1072C800039B07E0039B01330393039B092BD8DD42
:1072D8004FF0FF33184605B05DF804FB6C2400201E
:1072E80000B585B001900B468DF80330FFF7C4FF59
:1072F8000390039BB3F1FF3F01D1039B22E0039B63
:10730800DBB219460198FFF755FA104BD3F8103441
:10731800002B08D10D4A019BC2F81034019BDB6891
:1073280000221A600DE0094BD3F81034DA68019B8B
:10733800DB6812681A60054BD3F81034DB68019AD1
:107348001A60039B184605B05DF804FB6C24002006
:1073580000B583B00C4BD3F8103401930A4B0122CB
:1073680083F8202409E00198FFF739FA0198FFF71C
:1073780009FA019BDB681B680193019B002BF2D182
:1073880000BF03B05DF804FB6C24002082B00190BC
:10739800009100BF02B0704710B584B0039002910D
:1073A800039BDB88002B0AD0039BDB881A461F4B04
:1073B800009313461E4A1F49029803F001F8039BE5
:1073C8001B7A052B2ED0039B5B7A002B12D0039BD4
:1073D8009B881A46039B1B7A19461046FFF7A6FAA4
:1073E80003461A46144B53F822301A46134902989A
:1073F80002F0E6FF039B1B6819460298FFF7C6FFD9
:10740800039B1B7A1A460E4B53F82240039B9B881A
:1074180000211846FFF76AFA0346224609490298EE
:1074280002F0CEFF00BF04B010BD00BF88560300B5
:1074380098560300D056030054220020E856030053
:1074480040220020EC56030000B585B0039002915D
:1074580013468DF80730039B1B7A052B0FD0039B2F
:107468005B7A002B06D00D4B1B681A460C49029814
:1074780002F0A6FF0B49029802F0A2FF07E09DF870
:107488000730002B03D00749029802F099FF0298B1
:1074980002F074FF00BF05B05DF804FB5422002021
:1074A800E8560300F856030030B58BB007900691F4
:1074B800059204930E9B1B7B8DF827300E9B0022B0
:1074C8001A730E990498FFF767FF059B062B7FD860
:1074D80001A252F823F000BFFD74020007750200F4
:1074E800177502002B7502004975020071750200BC
:1074F800A175020007990E9802F062FF69E0069BE9
:107508001B681A4607990E9802F05AFF61E0069B1D
:107518001A68069B04331B6807990E9802F050FFFF
:1075280057E0069B1A68069B04331968069B0833C4
:107538001B6800930B4607990E9802F041FF48E03C
:10754800069B1968069B04331868069B08331B685A
:10755800069A0C3212680192009303460A4607996C
:107568000E9802F02DFF34E0069B1868069B043342
:107578001C68069B08331B68069A0C321268069929
:107588001031096802910192009323460246079937
:107598000E9802F015FF1CE0069B1C68069B04333E
:1075A8001D68069B08331B68069A0C3212680699F8
:1075B800103109680698143000680390029101920E
:1075C80000932B46224607990E9802F0F9FE00E038
:1075D80000BF00220E990498FFF736FF0E9B9DF816
:1075E80027201A7300BF0BB030BD00BF00B587B0AD
:1075F8000390029101920093029B082B60D8009B94
:107608001B7B8DF81330009B00221A730099019898
:10761800FFF7C2FE0023059314E0059A029B9A42E5
:1076280009D2039A059B13441B781A4626490098E9
:1076380002F0C6FE03E02549009802F0C1FE059B52
:1076480001330593059B072BE7D92149009802F0E0
:10765800B7FE0023059326E0059A029B9A421BD2A7
:10766800039A059B13441B788DF812309DF812304D
:107678007E2B0AD89DF8123018460DF0B7FD034648
:10768800002B02D09DF8123000E02E231A46114933
:10769800009802F095FE03E00F49009802F090FE72
:1076A800059B01330593059B072BD5D9012200992A
:1076B8000198FFF7C9FE009B9DF813201A7300E09C
:1076C80000BF07B05DF804FBFC5603000457030035
:1076D800085703000C5703001057030086B00390A7
:1076E8000291019201238DF817309DF817301F4A37
:1076F800039B13601D4A029B53601C4A019B9360C5
:10770800039B44F20102934212D044F202029342D4
:1077180021D1019B154AD360144BDB681B881A469C
:10772800124B9A61114BDB685B68104AD36112E017
:10773800019B0E4A13610D4B1B699B680B4A5361F1
:107748000A4B1B691B68094A9361084B1B695B68F4
:10775800064AD36100BF72B600BF9DF81730DBB28E
:10776800002BFAD162B600BF06B0704790280020FF
:1077780000B583B002900091019244F20100714675
:107788006A4600F003F803B000BD00BF30B58BB007
:1077980007900691059272B6FFF7DAFD00BFFFF772
:1077A80099FB0346002BFAD1079B41F20102934251
:1077B8001BD041F20102934202D8012B09D05FE0AD
:1077C80044F2010293422ED044F20202934218D0AE
:1077D80056E0394A394BD31ADB081B0443F001033E
:1077E80037491846FFF7ECFA57E0334A334BD31AB8
:1077F800DB081B0443F0010332491846FFF7E0FA9F
:107808004BE0059B09932C4A2C4BD31ADB081B042D
:1078180043F00100099B5B681A46099B1B882A49AB
:10782800FFF7EDFA39E0059B0893234A234BD31A57
:10783800DB081B0443F00104089B9D68089B9B68B8
:10784800184604F003F803461846089B5B68194677
:10785800089B1B68069A02920193009103462A46E8
:107868001A492046FFF70DFB134A144BD31ADB08BD
:107878001B0443F0010316491846FFF7A1FA0CE070
:107888000D4A0E4BD31ADB081B0443F00103069A7A
:1078980010491846FFF7A2FA00BF0F4B1B6803F008
:1078A8000103002B00D000BE059A06990798FFF740
:1078B80015FF00BF0BB030BD20540300F853030080
:1078C8001457030034570300585703007457030034
:1078D8009C570300B0570300F0ED00E082B0034668
:1078E8008DF807309DF8073003F01F0205499DF910
:1078F80007305B09012000FA02F241F8232000BF9B
:1079080002B0704700E100E082B003468DF807300E
:107918009DF8073003F01F0206499DF907305B09FF
:10792800012000FA02F2203341F8232000BF02B000
:10793800704700BF00E100E082B003468DF80730D1
:107948009DF8073003F01F0206499DF907305B09CF
:10795800012000FA02F2403341F8232000BF02B0B0
:10796800704700BF00E100E082B003468DF80730A1
:107978009DF8073003F01F0206499DF907305B099F
:10798800012000FA02F2603341F8232000BF02B060
:10799800704700BF00E100E082B0034600918DF817
:1079A80007309DF90730002B0CDA009BDAB20C493E
:1079B8009DF8073003F00F03043B5201D2B20B4489
:1079C8001A7609E0009BDAB206499DF907305201A0
:1079D800D2B20B4483F8002300BF02B0704700BF47
:1079E80000ED00E000E100E000B585B00190019BEA
:1079F800002B0AD0074B43F001030393019B9B0123
:107A08000293039B0298984700E000BF05B05DF819
:107A180004FB00BFD057030000B583B00190064AAD
:107A2800019BC2F8083506211120FFF7B5FF00BFFA
:107A380003B05DF804FB00BF0010014008B50D4B12
:107A48004FF48032C3F844230A4B4FF48032C3F812
:107A580004231120FFF788FF1120FFF73FFF054B94
:107A680001221A602F20FFF7BFFF034B01221A7073
:107A780000BF08BD00100140CE29002008B5112024
:107A8800FFF742FF0E4B4FF48032C3F848230C4BEC
:107A98004FF48032C3F80823094B01225A602F2083
:107AA800FFF7A2FF064B01229A60064B00221A60DC
:107AB8002F20FFF799FF044B00221A7000BF08BD62
:107AC80000100140C0290020CE290020024BD3F825
:107AD80004351846704700BF0010014082B001907D
:107AE8000091019A009BD31A23F07F43184602B0F5
:107AF8007047000082B00190034A019BC2F84035EC
:107B080000BF02B0704700BF0010014086B001906E
:107B1800284B1B68002B03D1264A019B136045E0C4
:107B2800019B1A68234B1B681B689A4210D8214B8B
:107B38001B681968019B1A681E4B1B688A1A1A6011
:107B48001C4B1A68019BDA611A4A019B13602DE0ED
:107B5800019B1B680393174B1B680593154B1B6808
:107B6800049309E0049B1B68039AD31A0393049BAC
:107B78000593049BDB690493049B002B04D0049BAE
:107B88001B68039A9A42EDD8049B002B05D0049BEE
:107B98001A68039BD21A049B1A60019B039A1A6005
:107BA800019B049ADA61059B019ADA6100BF06B06D
:107BB800704700BFBC29002000B587B001902A4B50
:107BC8001B680393284B1B680593059B049308E0E7
:107BD800049A019B9A4208D0049B0593049BDB6995
:107BE8000493049B002BF3D100E000BF049B002BFF
:107BF80001D1002333E0059A049B9A4214D11A4B11
:107C08001B68DB69184A1360174B1B68002B0BD1E4
:107C1800164B01229A60164B00221A60154B01225E
:107C28001A702F20FFF7E0FE049B1B680293049B49
:107C3800DA69059BDA61059BDB690493049B002BD9
:107C480005D0049B1A68029B1A44049B1A60064BD1
:107C58001B68039A9A4214BF01230023DBB218461B
:107C680007B05DF804FB00BFBC29002000100140EC
:107C7800C0290020CF29002008B51120FFF75CFE9D
:107C880000BF08BD08B51420FFF756FE00BF08BDA9
:107C980000B583B00190019B5B69019A9269104617
:107CA800984700BF03B05DF804FB000000B585B03D
:107CB8002B4B1B68002B4ED000230193FFF706FFC8
:107CC8000246284B1B6819461046FFF707FF02902B
:107CD800234B1B6803931DE0039B1B68029A9A427F
:107CE8001CD3039B1B68029AD31A0293039B1B683D
:107CF800019A13440193039B0093039BDB6903934D
:107D0800009B1B7C002B05D0009B00221A74009856
:107D1800FFF7BEFF039B002BDED100E000BF124B34
:107D28001A78124B1B789A420CD1104B1B780133EE
:107D3800DAB20E4B1A700D4B1B78022B02D10B4B8B
:107D480000221A70094B1B781946094A019B42F810
:107D58002130FFF797FF00BF05B05DF804FB00BFB7
:107D6800BC290020C0290020CC290020CD290020D2
:107D7800C429002082B00190184B1A78184B1B7840
:107D88009A4223D0154B1B780133DAB2134B1A7081
:107D9800124B1B78022B02D1104B00221A700F4B8A
:107DA8001B781A460F4B53F82220019B1A60019B3F
:107DB8001A680D4B1B6813440B4A13600A4B1B6867
:107DC80023F07F43084A1360012303E0019B00224C
:107DD8001A600023184602B0704700BFCC29002063
:107DE800CD290020C4290020C029002088B0039094
:107DF800029101920023079338E0204B1B680693F9
:107E0800069B1B68039A9A4206D2069B1A68039B34
:107E1800D21A069B1A602DE0069B1B68039AD31A98
:107E28000393069B1B68079A13440793069B00223B
:107E38001A60124B1B680593069BDB690F4A136097
:107E4800069BDB68002B11D0029A079B134423F092
:107E58007F42069B5A60069BDA68069B9A60019BE4
:107E68001A68069BDA61019B059A1A60034B1B6826
:107E7800002BC2D100BF08B0704700BFBC2900204A
:107E880000B589B0019000238DF81F30664B1B6840
:107E98000593AAE0019B002B05D0019B0693069B46
:107EA800DB69019361E0614B1B781A4613465B005E
:107EB8001344DB005D4A1344043304935B4B1B7883
:107EC8000133DAB2594B1A70584B1A78574B9B78D2
:107ED8009A4202D1554B00221A70049B5B680693A4
:107EE800049B1B78022B04D0032B1BD0012B1FD023
:107EF8001DE0049B5B681846FFF75EFE0346002BF7
:107F080002D001238DF81F30069B00221A746CE002
:107F1800454B1B680393039B00221A74039BDB6980
:107F2800414A1360404B1B68002BF1D15DE05CE0D7
:107F380000BF069B1B7C002B00D056E0049B9A6870
:107F4800069B5A60049BDA68069B9A60049B1A6930
:107F5800069BDA60049B5A69069B9A61344B1B782E
:107F6800002B02D0069B00225A60069B5A68314BB0
:107F78001B68D31A23F07F432F4A93420ED8069BDF
:107F88005A682C4B1B6819461046FFF7A7FD024696
:107F9800069B9B681A44069B1A6017E0254B1A68D3
:107FA800069B5B6819461046FFF798FD0290069BF2
:107FB8009B68029A9A4206D2069B9A68029BD21A3A
:107FC800069B1A6002E0069B00221A60069B0022AC
:107FD8005A60069B00229A60069B01221A74069B2F
:107FE8000022DA610698FFF791FD019B002B7FF4D0
:107FF80051AF0E4B1A780D4B5B789A427FF44AAF1B
:108008009DF81F30002B04D1074B1B68059A9A4234
:1080180001D0012300E0002303F00103DBB218467E
:1080280009B05DF804FB00BFBC290020B02800207F
:10803800CF290020C0290020FEFF7F0010B588B09E
:108048000190274B1B68002B44D0254B1B681B68ED
:108058000793FFF73BFD0690224B1B680593059994
:108068000698FFF73BFD0346033304931E4B1B782A
:1080780083F00103DBB2002B01D0FFF7DFFC049A89
:10808800079B934238BF1346059A13440593059BF3
:1080980023F07F4305930598FFF72CFDFFF716FDA6
:1080A800039006990398FFF719FD0346DC1C06990F
:1080B8000598FFF713FD03469C420DD9FFF706FD0F
:1080C80003461846FFF716FD2F20FFF78DFCFFF734
:1080D800D3FD01E0FFF7D2FC00BF08B010BD00BF20
:1080E800BC290020C0290020CE29002000B587B077
:1080F8000023019300238DF81730194B1B68049354
:10810800184B1B6803936B461846FFF733FE03466C
:108118008DF80B309DF80B30002B08D0009B01AA7E
:1081280004991846FFF762FE01238DF81730019B6A
:108138001846FFF7A5FE0346002B02D001238DF851
:1081480017309DF81730002B02D00398FFF776FF01
:10815800054B00221A7000BF07B05DF804FB00BF92
:10816800C0290020BC290020CF29002082B0034666
:108178008DF80730034A9DF80730537000BF02B0EE
:10818800704700BFB028002084B00190144B5B7882
:1081980001338DF80F30124B9B789DF80F209A42CF
:1081A80002D100238DF80F300D4B1B789DF80F205E
:1081B8009A4201D100230FE0019B9DF80F201A700D
:1081C800074B5B781A4613465B001344DB00044AEE
:1081D800134404330293029B184604B0704700BF4F
:1081E800B028002000B589B0039002910192009355
:1081F8000023079300238DF816300DF11603184657
:1082080000F0D0F90DF117031846FFF7BDFF0690EF
:10821800069B002B02D10423079318E0069B01223A
:108228001A70069B039A5A60FFF750FC0246069B99
:108238009A60069B029ADA60069B019A1A61069B6D
:10824800009A5A619DF817301846FFF78FFF9DF87E
:108258001630184600F0BCF9079B002B01D1FFF738
:1082680011FD079B184609B05DF804FB00B587B0FF
:1082780001900B468DF803300023059300238DF8F9
:108288000E300DF10E03184600F08CF90DF10F03B6
:108298001846FFF779FF0490049B002B02D10423B2
:1082A80005930BE0049B9DF803201A70049B019A28
:1082B8005A609DF80F301846FFF758FF9DF80E30AA
:1082C800184600F085F9059B002B01D1FFF7DAFC71
:1082D800059B184607B05DF804FB000008B50E4B77
:1082E8000022C3F840210C4B0022C3F844210A4B5A
:1082F8000022C3F84821084B0022C3F84C21064B42
:108308000022C3F80021044B0022C3F80421FFF720
:10831800CDFC00BF08BD00BF0010014008B5FFF745
:10832800E5FE00BF08BD000008B5FFF7A7FB134B2B
:1083380000221A70114B00225A70104B0B229A70AF
:108348000F4B00221A600F4B00221A700E4B0022AE
:108358001A701420FFF708FB06211420FFF71CFBF6
:108368001420FFF7BBFA0020FFF756FBFFF7AEFB20
:108378000246064B1A600023184608BDB0280020A4
:10838800BC290020CC290020CD290020C0290020AC
:1083980086B003900B4601928DF80B30134B9B78F7
:1083A800002B01D108231EE0019B002B01D10723DC
:1083B80019E0039B002B01D1072314E0039B1B68E2
:1083C8001B7C002B01D008230DE0039B1B68059341
:1083D800059B00221A74059B9DF80B205A74059B77
:1083E800019A5A610023184606B07047B028002049
:1083F80000B587B0039002910192039B0593144B3B
:108408009B78002B01D108231EE0039B002B01D190
:10841800082319E0029B042B01D8072314E0059BCD
:108428005B69002B01D108230EE0059B5B7C012BC7
:1084380001D1029B00E000230493019B049A029956
:108448000598FFF7CFFE0346184607B05DF804FB12
:10845800B028002000B585B00190019B03930D4B17
:108468009B78002B01D1082310E0019B002B03D03F
:10847800039B5B69002B01D1082307E0039B0022C3
:108488001A7402210398FFF7F1FE0346184605B057
:108498005DF804FBB028002008B5FFF717FB03467A
:1084A800184608BD00B583B0019000910099019865
:1084B800FFF714FB0346184603B05DF804FB82B0CF
:1084C800EFF310830093009B019372B6019B18464B
:1084D80002B0704762B600BF7047000000B585B0B3
:1084E8000190FFF7ECFF0390164B9B68002B1BD104
:1084F800144B01229A60144BD3F88020134B13407D
:10850800104A1360104B114AC3F880200E4BD3F861
:1085180084300C4A53600C4B4FF0FF32C3F8842070
:10852800019B00221A7002E0019B01221A70039B32
:10853800002B01D1FFF7CEFF0023184605B05DF8E8
:1085480004FB00BFD029002000E100E0FC06FFBDCD
:1085580000B585B003468DF80730104B9B68002B9B
:1085680016D09DF80730002B12D1FFF7A8FF039013
:108578000B4A0A4B1B681360094A084B5B68536037
:10858800064B00229A60039B002B01D1FFF7A2FF44
:108598000023184605B05DF804FB00BFD029002071
:1085A80000E100E000B583B0019000F02BF803462D
:1085B800012B03D00549432001F059FB0198FFF72F
:1085C8008DFF00BF03B05DF804FB00BFD857030060
:1085D80000B583B003468DF8073000F013F8034662
:1085E800012B03D00649512001F041FB9DF80730CB
:1085F8001846FFF7ADFF00BF03B05DF804FB00BFEE
:10860800D857030084B0EFF305830193019BC3F3AC
:1086180008030393039B002B0DD1EFF314830093FE
:10862800009B0293029B03F00103002B0CBF012364
:108638000023DBB200E00123184604B0704782B083
:108648000190019B03F00303002B0CBF01230023BF
:10865800DBB2184602B0704700B585B00190002320
:1086680003930EE00A4A039B52F82330002B05D0EF
:10867800074A039B52F8233001989847039B01331C
:108688000393039B032BEDD900BF05B05DF804FBF2
:10869800E829002082B001900091019B1B78013BE2
:1086A800052B61D801A252F823F000BFCD86020045
:1086B800D5860200FB8602002D8702004D87020046
:1086C80069870200009B00221A704EE0009B01227D
:1086D8001A70019B1A89009B9A81019B9A88009BBA
:1086E800DA81019BDA68009B9A60009B00221A7469
:1086F8003BE0009B02221A70019B1A89009B9A8119
:10870800019B9A88009BDA81019BDA68009B9A603A
:10871800019B9B7D062B0CBF01230023DAB2009B33
:108728001A7422E0009B03221A70019BDA88009BCE
:108738009A81019B1A89009BDA81019BDA68009B68
:108748009A6012E0009B04221A70019BDA88009B51
:108758009A81009B0022DA81009B00229A6004E043
:10876800009B05221A7000E000BF00BF02B07047EE
:1087780084B001900091019B0393039A009B9A4255
:1087880006D2039B1B68B3F1FF3F01D0012300E031
:10879800002303F00103DBB2184604B0704782B02F
:1087A8000190019B5B8803339B00019A1344184690
:1087B80002B0704700B583B0019000910198FFF7AF
:1087C800EEFF0246009B934201D202230CE0019B7C
:1087D8009B884FF6FF72934203D0019B1B88002BA6
:1087E80001D1012300E00023184603B05DF804FB23
:1087F80000B583B00190019B002B13D00D4BDB68B3
:108808001A46019B93420DD30A4B1B691A46019BDA
:10881800934207D80198FFF712FF0346002B01D0B7
:10882800012300E0002303F00103DBB2184603B084
:108838005DF804FB1022002082B003460A46ADF81A
:1088480006301346ADF80430BDF806201349134628
:108858009B0013449B000B4408331A88BDF804306E
:108868001344ADF80430BDF806200C4913469B00AC
:1088780013449B000B440A331A88BDF80430134490
:10888800ADF80430BDF8043040F2FF32934294BF93
:1088980001230023DBB2184602B070470C2A0020DF
:1088A80084B0019000910A2303930023ADF80A30A5
:1088B80027E0BDF80A20174913469B0013449B0084
:1088C8000B4404331B68009A9A4215D9BDF80A2054
:1088D800104913469B0013449B000B4404331B6848
:1088E80003F58053009A9A4206D200230393019B12
:1088F800BDF80A201A8008E0BDF80A300133ADF847
:108908000A30BDF80A30012BD3D9039B184604B0AE
:10891800704700BF0C2A002082B001900091009B94
:108928009B7D022B09D9019B1A89009BDB88134484
:108938009BB203339AB2019B1A81019B5A89009B0F
:10894800DB88D31A9BB2033B9AB2019B5A8100BFC2
:1089580002B0704700B583B0074B1B681946002367
:1089680000930823054A064802F028F903461846EA
:1089780003B05DF804FB00BF342A002090580300C0
:108988001022002000B585B00390039900230093BE
:108998000823044A044802F011F90346184605B0B2
:1089A8005DF804FB985803001022002000B585B03C
:1089B80003460091ADF8063000238DF80F30BDF85E
:1089C80006300333ADF80A30BDF80A3040F2FD3204
:1089D800934201D909234AE00023ADF80C303BE06B
:1089E800BDF80C20244913469B0013449B000B44FC
:1089F8001B78002B2BD1BDF80A20BDF80C3011468E
:108A08001846FFF719FF0346002B20D001238DF8E5
:108A18000F30009BBDF80C201A80BDF80C201649B9
:108A280013469B0013449B000B440A331988BDF876
:108A38000C20BDF80A300B4498B20F4913469B002E
:108A480013449B000B440A3302461A8008E0BDF821
:108A58000C300133ADF80C30BDF80C30012BBFD908
:108A68009DF80F30002B01D0002300E007231846A3
:108A780005B05DF804FB00BF0C2A002082B0034655
:108A88000A46ADF806301346ADF80430BDF80420A8
:108A98000D4913469B0013449B000B440A331A8864
:108AA800BDF80630D31A9BB2BDF80420033B98B238
:108AB800054913469B0013449B000B440A330246A6
:108AC8001A8000BF02B070470C2A002008B50121A7
:108AD800024801F0FAFA0346184608BDF8290020B2
:108AE80000B585B003460091ADF80630BDF8062004
:108AF800234913469B0013449B000B4404331B6813
:108B080003F580530293009B1B680393039B002B80
:108B180004D00398FFF743FE039024E0BDF8062035
:108B2800174913469B0013449B000B4404331B68EE
:108B38000833039317E002990398FFF73BFE0346B7
:108B4800012B09D0022B0CD0002B00D00BE0009B8E
:108B5800039A1A6001230EE00398FFF720FE0390A2
:108B680001E0002307E002990398FFF701FE03469E
:108B7800002BE0D10023184605B05DF804FB00BFC8
:108B88000C2A002000B585B001900091019B5B681C
:108B98001846FFF72DFE0346002B19D0019B1A89B2
:108BA800244B1B899A4213D1019B1A68019B5B686D
:108BB8009B689A420CD1019B5B6819460098FFF7A5
:108BC8006FFE0346002B0CBF01230023DBB22CE011
:108BD800009B00221A8023E00023029310E0029BEE
:108BE8000393039B9A68019B1B689A4208D1029AD7
:108BF800019B5A600F4B1A89019B1A81012314E0CB
:108C0800009B1B8802AA11461846FFF769FF034616
:108C1800002BE4D1009B1B8801339AB2009B1A8079
:108C2800009B1B88012BD7D90023184605B05DF897
:108C380004FB00BF3C2A002000B587B003900291D6
:108C480001920093304B1B78DBB283F00103DBB257
:108C5800002B01D0022353E0019B002B02D0009B84
:108C6800002B48D105234BE0009B9B881946274AD7
:108C78000B469B000B449B0013441B78002B33D1FD
:108C880024E0009B1B680593039B002B06D0059BE3
:108C98009A88039B1B889A4200D017E0029B002BFE
:108CA80006D0059B1A88029B1B889A4200D00DE0CB
:108CB800059B9A68019B1A60009B1A68019B5A6081
:108CC800134B1A89019B1A81002319E0009B9B888A
:108CD800009A11461846FFF703FF0346002BD0D130
:108CE800009B00221A6000E000BF009B9B880133B4
:108CF8009AB2009B9A80009B9B88012BB4D90A23C7
:108D0800184607B05DF804FBDC2900200C2A002077
:108D18003C2A002000B585B00190084B01991846FF
:108D280001F031F803901C22002103980CF0C2FADC
:108D3800039B184605B05DF804FB00BFFC29002022
:108D480000B583B00190044B0199184601F034F83E
:108D580000BF03B05DF804FBFC29002000B583B018
:108D68000190054B0199184601F03AF80346184658
:108D780003B05DF804FB00BFFC29002000B583B0F8
:108D88000190044B0199184601F043F800BF03B065
:108D98005DF804FBFC29002008B50A4B1B68002B72
:108DA80004D1094940F27A2000F061FF0121054809
:108DB80001F0A3F90346002B14BF01230023DBB203
:108DC800184608BDE42900203C58030000B587B0C8
:108DD80003900291039B02229A750299039B1A1D24
:108DE800002300930423074801F0E8FE0590059B43
:108DF800002B01D1002300E00E23184607B05DF8D0
:108E080004FB00BF1022002000B587B00390029138
:108E1800039B1B69002B01D0032200E00122039B66
:108E28009A75029B08331946039B03F10C02002331
:108E380000930423064801F0C1FE0590059B002B12
:108E480001D1002300E00E23184607B05DF804FBAB
:108E58001022002000B587B003900291039B1B7875
:108E6800032B01D1052200E00622039B9A75029B81
:108E780004331946039B03F10802002300930423DB
:108E8800064801F09BFE0590059B002B01D10023AD
:108E980000E00E23184607B05DF804FB10220020FE
:108EA80000B587B003900B46ADF80A30039900234C
:108EB800009304230C4A0D4801F080FE0590059BA1
:108EC800002B01D00E230BE0BDF80A2008491346F9
:108ED8009B0013449B000B44103301221A7000239B
:108EE800184607B05DF804FBA058030010220020C4
:108EF8000C2A002000B589B0019002AB00221A604C
:108F08005A609A60019BDB6802930DF1160202AB6E
:108F180011461846FFF736FE0346002B12D0039B76
:108F28000693069B9A88019BDA80069B1A88019B08
:108F38001A81039BBDF8162011461846FFF7B0FFAB
:108F4800079001E00A230793079B184609B05DF8CC
:108F580004FB000000B587B00190019B981D02AA90
:108F68000D4B0021FFF768FE0590059B002B08D1EB
:108F7800039A094B9B8819461046FFF791FF059005
:108F880004E00822002104480CF094F9059B1846D7
:108F980007B05DF804FB00BF4C2A002000B587B07D
:108FA80003900291039B01229A75029B0C33184689
:108FB800039B1A69039BDB889900002300930B46E7
:108FC8000146074801F0FAFD0590059B002B01D1E9
:108FD800002300E00E23184607B05DF804FB00BF2D
:108FE8001022002082B0184B1B8901339AB2164B0D
:108FF8001A81154B00225A80134B00221A73002342
:10900800ADF8063018E0BDF80620104913469B005D
:1090180013449B000B441A78BDF80630002A0CBF95
:1090280001220022D1B2084A13440A469A72BDF8B6
:1090380006300133ADF80630BDF80630012BE2D911
:1090480000BF02B0704700BF3C2A00200C2A002055
:1090580084B0019000238DF80F300023ADF80C3058
:1090680031E0BDF80C301C4A13449B7A002B25D004
:10907800BDF80C30184A134400229A72BDF80C202F
:10908800164913469B0013449B000B440C331B6882
:10909800002B13D1BDF80C20104913469B00134434
:1090A8009B000B4410331B78002B07D0019BBDF8A5
:1090B8000C201A8001238DF80F3008E0BDF80C3021
:1090C8000133ADF80C30BDF80C30012BC9D99DF82F
:1090D8000F30184604B070473C2A00200C2A0020A4
:1090E80008B5084B05221A70074B02229A80064BD6
:1090F8001B68194600230122044801F041FE03467B
:10910800184608BD3C2A0020342A002010220020DE
:1091180000B583B0164B5B88ADF80230BDF802206D
:10912800144913469B0013449B000B440C331B68E3
:10913800002B14D10E4B04221A70BDF802200D49E1
:1091480013469B0013449B000B4404331B681946C9
:1091580000230122084801F013FE019002E0FFF706
:10916800BFFF0190019B184603B05DF804FB00BFE8
:109178003C2A00200C2A00201022002000B587B0CD
:10918800114B5B680593114B1A68104B9B889B0029
:1091980013440493059B5B880333ADF80E300A4BE8
:1091A80003221A700499084B5A68BDF80E309800CB
:1091B800002300930346064801F000FD03461846C5
:1091C80007B05DF804FB00BF3C2A0020342A0020C9
:1091D8001022002000B583B00A4B5B880A49184664
:1091E800FFF77EFC0346002B03D0FFF7C7FF019073
:1091F80002E0FFF78DFF0190019B184603B05DF870
:1092080004FB00BF3C2A0020402A002008B50A4B76
:1092180006221A70084B5B881946084A0B469B00C1
:109228000B449B00134404331B681846FFF7AAFB42
:109238000346184608BD00BF3C2A00200C2A00201F
:1092480008B5054B07221A70034B00225A60FFF736
:1092580081FB0346184608BD3C2A002008B50D4886
:10926800FFF7F6FE034683F00103DBB2002B0BD0B9
:10927800094B00221A70084B00225A80064B002224
:109288005A6041F61D5302E0FFF7A4FF0346184653
:1092980008BD00BF3E2A00203C2A002082B0094BAE
:1092A8005B680193019B5B880333ADF80230064B82
:1092B8009A88BDF8023013449AB2034B9A8000BFD3
:1092C80002B070473C2A0020342A002082B0184B94
:1092D8001B680193174B5B881946174A0B469B007E
:1092E8000B449B00134404331B68114A1360114B51
:1092F8005B881946104A0B469B000B449B0013449D
:109308000433019A1A600B4B5B881946084B9888FE
:10931800094A0B469B000B449B0013440833024642
:109328001A80034B02229A8000BF02B0704700BF28
:10933800342A00203C2A00200C2A002008B51A4BA9
:109348001B78072B2CD801A252F823F07593020042
:10935800A9930200A9930200819302008D93020051
:109368009993020099930200A1930200FFF73AFE35
:109378000D4B01221A7014E0FFF790FF0A4B0222EE
:109388001A700EE0FFF7A2FF074B06221A7008E0DA
:10939800054B07221A7004E0034B01221A7000E003
:1093A80000BF00BF08BD00BF3C2A002000B587B041
:1093B800019000910F230593019B002B04D0624B71
:1093C80000225A600123BBE0009B1B79032B00F2AB
:1093D800AB8001A252F823F0F1930200FF93020040
:1093E8008D940200AD940200009B01221A71FFF7D0
:1093F800B1FA05909BE000238DF813300023ADF8F7
:1094080010302BE0BDF81020504913469B00134440
:109418009B000B441B78022B1BD1BDF810204B4935
:1094280013469B0013449B000B4400221A7001232F
:109438008DF81330BDF81020444913469B0013449F
:109448009B000B4404331B681846FFF79BFA0590F2
:1094580008E0BDF810300133ADF81030BDF8103019
:10946800012BCFD99DF8133083F00103DBB2002B19
:109478005CD0354B01221A70334B00225A6041F6FA
:109488001D535DE0009B00221A71314B02229A8025
:109498002F4B1B681946002301222E4801F070FC4F
:1094A800059044E0009B00221A71294B1B6818465E
:1094B800FFF768FA0590284B5B88ADF80E30244B0F
:1094C8001B680293BDF80E20204913469B001344E5
:1094D8009B000B4404331B681D4A1360BDF80E2023
:1094E8001A4913469B0013449B000B440433029A09
:1094F8001A60BDF80E20164B9888144913469B0035
:1095080013449B000B44083302461A80104B022276
:109518009A80BDF80E200D4913469B0013449B000A
:109528000B4400221A7002E000BF00E000BF059B58
:10953800002B04D0044B00225A600E2300E00023C5
:10954800184607B05DF804FBDC2900200C2A00202F
:10955800342A0020102200203C2A002000B587B0C1
:1095680001900091009B9B8A1A4613469B00134466
:109578009B003A4A13440493019B002B05D00099A1
:109588000498FFF7C9F9012363E0049B5A68049B18
:109598001B899B0013440393009B9B7D062B4DD88E
:1095A80001A252F823F000BFF395020017960200BB
:1095B800FF9502000B960200CD950200239602004B
:1095C8003D960200264B00225A60009B9B69244A64
:1095D800136024492248FFF7D5FA034683F00103B4
:1095E800DBB2002B01D00A2333E003990098FFF780
:1095F800EDFB059025E003990098FFF705FC059021
:109608001FE003990098FFF7C9FC059019E003993A
:109618000098FFF71FFC059013E0009B06229A753F
:109628000F4B5A680F4B1B8819461046FFF738FC3A
:10963800059006E041F61D53059302E00F230593BC
:1096480000BF059B002B03D000990498FFF764F92D
:10965800059B184607B05DF804FB00BF0C2A0020E4
:10966800542A0020602A002000B585B0019000919E
:10967800019B002B01D0012323E0009B1B79012BC8
:109688000BD0022B14D0002B16D1009B02221A718A
:109698000098FFF72FFC039012E00098FFF75AFCA0
:1096A8000390039B0A2B0AD141F61D53039306E04E
:1096B80041F61D53039303E00F23039300E000BF1B
:1096C800039B184605B05DF804FB000000B585B0A3
:1096D8000190019B002B01D001233BE01F4B1B7B1A
:1096E800002B03D01D4B00221A7301E0FFF726FE62
:1096F8001A4B1B78013B062B28D801A252F823F0FD
:10970800259702002D970200359702003D97020029
:1097180055970200459702004D970200FFF79EFDFE
:10972800039016E0FFF756FD039012E0FFF726FDC1
:1097380003900EE0FFF7ECFC03900AE0FFF766FDEC
:10974800039006E0FFF77CFD039002E00F230393EC
:1097580000BF039B184605B05DF804FB3C2A0020B7
:1097680000B589B001903F4B1B68002B05D13E48DE
:10977800FFF7F4FA02463B4B1A603A4B1B68002B82
:1097880004D13A4940F2825000F071FA354B1B6817
:109798001B78013B052B2CD801A252F823F000BFFF
:1097A800C1970200D1970200D1970200E197020009
:1097B800E1970200F19702002A4B1B6819460198AD
:1097C800FFF7F4FD019017E0264B1B681946019836
:1097D800FFF7C4FE01900FE0224B1B681946019861
:1097E800FFF742FF019007E00198FFF76FFF019034
:1097F80002E00F23019300BF019B002B2BD003AB8A
:1098080000221A605A609A60DA601A61019B41F678
:109818001D52934201D0019B00E000230493114B99
:109828001B6803AA11461846FEF734FF03AB184617
:10983800FEF712FF0B4B00221A60002301930A481F
:10984800FFF79CFAFFF7A8FA034683F00103DBB29F
:10985800002B02D187E700BF00E000BF00BF09B0BE
:109868005DF804FB642A0020682A00203C580300A5
:1098780008B50121054800F010FC0346002B02D171
:109888000020FFF76DFF00BF08BD00BFE4290020DE
:1098980000B583B00190019B5B681846FFF760FF35
:1098A80000BF03B05DF804FB00B58BB003900291D4
:1098B80001928DF803300023ADF824300023ADF871
:1098C8002630514B1B78DBB283F00103DBB2002B4F
:1098D80001D0022393E0029B002B01D105238EE0E7
:1098E800029B1B884FF6FF72934203D0029B5B8852
:1098F800002B01D1042382E0029B5B681846FEF727
:109908009EFE034683F00103DBB2002B01D0032344
:1099180075E0019B002B11D1029B9B68ADF82630A6
:109928000DF11A02BDF8263011461846FFF73EF829
:109938000890089B002B09D0089B60E0019B1B88BE
:10994800ADF81A30019B5B88ADF8263005AB184698
:10995800FFF7E0F90790079B002B09D1BDF81A2003
:10996800BDF8263011461846FFF788F8082346E068
:10997800079B9DF803201A70079B00229A75BDF873
:109988001A20079B9A82029B5A68079B1A61FFF765
:109998009DF80246079BDA60029B1A88079B1A818A
:1099A800029B5A88079B9A80079BBDF82620DA807D
:1099B8009DF80330032B06D1079B04229A75039B5D
:1099C8001A68079B9A61079BBDF824205A8105AB4A
:1099D8001846FFF7B5F9039B002B0DD0039B002217
:1099E8005A60079BDA68039B1A60039B00229A72ED
:1099F800064B1A89039B1A81FFF73AFF0023184682
:109A08000BB05DF804FB00BFDC2900203C2A0020D5
:109A180000B585B001900091019B002B02D0009BFE
:109A2800002B01D1052329E00DF10A0319460198FD
:109A3800FFF7A8F80346002B1FD0019B5B68039330
:109A4800BDF80A301A4613469B0013449B0008339E
:109A58000C4A134404330121184600F036FB009BDE
:109A6800039A1A60019B5B6803F10C02009B5A6021
:109A7800019B01229A72002300E00A23184605B0D0
:109A88005DF804FB0C2A002000B585B00190019B0D
:109A9800002B01D1052339E00DF10A03194601987D
:109AA800FFF770F80346002B2DD0BDF80A30194691
:109AB800184A0B469B000B449B0013440C331B684D
:109AC800002B1DD0019B9B7A002B19D0BDF80A30C2
:109AD8001A46104913469B0013449B000B440C3351
:109AE8001B68591E0B4813469B0013449B000344F4
:109AF8000C331960019B00229A720023039304E03F
:109B08000623039301E00A230393039B184605B039
:109B18005DF804FB0C2A002000B583B00190009189
:109B28000223002200990198FFF7BEFE034618465B
:109B380003B05DF804FB00B583B001900091019B70
:109B4800002B01D1052306E0032300220099019888
:109B5800FFF7AAFE0346184603B05DF804FB0000B1
:109B680000B585B00346ADF80630184B1B78DBB25C
:109B780083F00103DBB2002B01D0022322E0BDF801
:109B880006304FF6FF72934201D104231AE002AB6C
:109B98001846FFF7BFF80390039B002B01D1082359
:109BA80010E0039B05221A70039B01221A71039B84
:109BB800BDF80620DA8002AB1846FFF7C1F8FFF7B8
:109BC80057FE0023184605B05DF804FBDC29002089
:109BD80000B585B0029201930346ADF80E300B46EE
:109BE800ADF80C3003A90DF10E00019B029AFFF7A6
:109BF80023F80346184605B05DF804FB00B585B0A8
:109C0800034602910192ADF80E300DF10E01019B51
:109C1800029A0020FFF710F80346184605B05DF8D1
:109C280004FB00B585B0034602910192ADF80E30F1
:109C38000DF10E00019B029A0021FEF7FDFF03467D
:109C4800184605B05DF804FB82B001900091019BB5
:109C5800002B02D0009B002B01D1052304E0019BBF
:109C68001A68009B1A600023184602B0704700B5B6
:109C780085B003460091ADF80630BDF80630ADF862
:109C88000830009B039302AB1A46002144F20200FD
:109C9800FDF77CFD00BF05B05DF804FB86B00190C0
:109CA8000091019B53E8011F8AB2D8890244988920
:109CB800824228BF121A1889824202BFBFF32F8F2F
:109CC800002307E0C2EA010243E801200028E9D1A5
:109CD8004FF001038DF80F30059002910492029A1B
:109CE800009B1A609DF80F30DBB2184606B070472B
:109CF80084B00190019951E8013FC3EA034341E868
:109D08000132002AF7D10392029300BF04B07047D2
:109D180086B001900091019B53E8021F1FFAA1F23F
:109D2800D888824202BFBFF32F8F00230DE0D88965
:109D380002449889824228BF121AC1EA024243E8C3
:109D480002200028E8D14FF001038DF80F3005906C
:109D580002910492029A009B1A609DF80F30DBB2C0
:109D6800184606B0704784B00190019951E8023F47
:109D7800C3EA234341E80232002AF7D1039202934F
:109D880000BF04B0704700B585B001900091009BFA
:109D980019460198FFF782FF0346002B07D0019B65
:109DA8001B68009A128813440393039B00E0002366
:109DB800184605B05DF804FB00B583B0019000912A
:109DC800009B1A88009B5B889A4204D10198FFF790
:109DD8008FFF012300E00023184603B05DF804FB61
:109DE80000B585B001900091009B19460198FFF7D6
:109DF8008FFF0346002B07D0019B1B68009A5288EF
:109E080013440393039B00E00023184605B05DF854
:109E180004FB00B583B001900091009B1A88009B59
:109E28005B889A4204D10198FFF79DFF012300E067
:109E38000023184603B05DF804FB00B585B0019017
:109E48000091009B5B099B00019AD018009B03F0CE
:109E58001F03012202FA03F3194600F0D6F8039013
:109E680000BF05B05DF804FB00B583B00190009118
:109E7800009B5B099B00019AD018009B03F01F030D
:109E8800012202FA03F3194600F0A7F80246009BE4
:109E980003F01F0322FA03F303F00103002B14BF9E
:109EA80001230023DBB2184603B05DF804FB00B5BC
:109EB80085B001900091009B5B099B00019AD01826
:109EC800009B03F01F03012202FA03F3DB43194648
:109ED80000F0CBF8039000BF05B05DF804FB82B03A
:109EE80001900091009B5B099B00019A13441A683A
:109EF800009B03F01F0322FA03F303F00103002B76
:109F080014BF01230023DBB2184602B0704700B526
:109F18008BB001900091002309933BE0099B9B00C3
:109F2800019A13441B68DB430693069B93FAA3F339
:109F38000593059BB3FA83F3089323E0099B5B0120
:109F4800089A13440793079A009B9A421ED20799CE
:109F58000198FFF789FF034683F00103DBB2002B6A
:109F680001D0079B1EE0099B9B00019A13441B68C4
:109F7800DB430493049B93FAA3F30393039BB3FA81
:109F880083F30893089B1F2BD8D900E000BF099BD7
:109F980001330993009B013B5B090133099A9A42FB
:109FA800BCD3009B18460BB05DF804FB10B487B017
:109FB80001900091019B009A53E8004F104643E836
:109FC800000191F0000FF7D1059404900391059BCF
:109FD800184607B05DF8044B704710B487B001907D
:109FE8000091019B009A53E8004F44EA020043E8BD
:109FF800000191F0000FF6D1059404900391059BA0
:10A00800184607B05DF8044B704710B487B001904C
:10A018000091019B009A53E8004F44EA020043E88C
:10A02800000191F0000FF6D1059404900391049B70
:10A03800184607B05DF8044B704710B487B001901C
:10A048000091019B009A53E8004F04EA020043E89C
:10A05800000191F0000FF6D1059404900391059B3F
:10A06800184607B05DF8044B704710B487B00190EC
:10A078000091019B009A53E8004F04EA020043E86C
:10A08800000191F0000FF6D1059404900391049B10
:10A09800184607B05DF8044B704710B487B00190BC
:10A0A8000091019B009A53E8004F04EB020043E83B
:10A0B800000191F0000FF6D1059404900391059BDF
:10A0C800184607B05DF8044B704710B487B001908C
:10A0D8000091019B009A53E8004F04EB020043E80B
:10A0E800000191F0000FF6D1059404900391049BB0
:10A0F800184607B05DF8044B704710B487B001905C
:10A108000091019B009A53E8004FA4EB020043E83A
:10A11800000191F0000FF6D1059404900391049B7F
:10A12800184607B05DF8044B704700B583B001903E
:10A1380001210198FFF769FF0346184603B05DF84F
:10A1480004FB00B583B0019000210198FFF775FF6B
:10A158000346184603B05DF804FB000000B583B061
:10A1680001900B468DF80330019B002B03D1084961
:10A17800E820FFF77CFD019BDA689DF80330019920
:10A18800098A01FB03F31344184603B05DF804FB86
:10A19800A458030000B583B001900091019B002BE7
:10A1A80003D10849F520FFF762FD009B019AD268A8
:10A1B8009B1A019A128AB3FBF2F3DBB2184603B07A
:10A1C8005DF804FBA458030000B585B00190019B1D
:10A1D800002B01D10E234DE0019B1B68002B03D1FE
:10A1E8002649FF20FFF743FD019B5B68002B04D144
:10A1F80022494FF48070FFF73AFD019B9B68002BC2
:10A2080004D11E4940F20110FFF731FD019BDB68C4
:10A21800002B04D119494FF48170FFF728FD019BE9
:10A228001B8A002B04D1154940F20310FFF71FFDCC
:10A23800019B9B681A46019B5B68D31A8DF80F3007
:10A24800019B1B68019A52681A6007E0019B1A6813
:10A258001368591C11609DF80F201A709DF80F3073
:10A268005A1E8DF80F20002BF0D1019B1B6800228D
:10A278001A710023184605B05DF804FBA4580300C2
:10A2880000B585B00190019B002B04D120494FF403
:10A298009270FFF7ECFC0023039300238DF80A303B
:10A2A8000DF10A031846FEF77DF9019B1B681A6831
:10A2B800019B5B689A4220D9019B1B681A68013A86
:10A2C8001A601B681B7819460198FFF747FF03902F
:10A2D800019B9B681A46019B1B681B68D31A8DF863
:10A2E8000B30019B1B681B799DF80B209A4204D9FF
:10A2F800019B1B689DF80B201A719DF80A301846BF
:10A30800FEF766F9039B184605B05DF804FB00BF2D
:10A31800A458030010B584B001900091019B002B54
:10A3280004D1154940F24710FFF7A1FC009B002B10
:10A3380004D111494FF4A470FFF799FC009B0393D3
:10A3480000238DF80B300DF10B031846FEF72AF9A0
:10A35800019B1B681C68621C1A6003990198FFF72F
:10A3680019FF034623709DF80B301846FEF730F9A5
:10A3780000BF04B010BD00BFA458030000B583B0EF
:10A388000190019B002B03D10C493120FFF76FFC92
:10A39800019B9B68002B0CD0019B5B69019A10699B
:10A3A800019A1168019A92689847019B00229A6065
:10A3B80000E000BF03B05DF804FB00BF04590300D0
:10A3C8000EB400B584B00190019B002B03D118494D
:10A3D8004220FFF74CFC019B5B69002B03D1144919
:10A3E8004320FFF744FC019B1B68002B03D1104955
:10A3F8004420FFF73CFC019B5B68002B03D10C4910
:10A408004520FFF734FC059B002B0AD0002303935B
:10A4180006AB039303AB1A460599019800F0B0F90F
:10A4280000E000BF04B05DF804EB03B0704700BF64
:10A438000459030000B583B001900B468DF8033032
:10A44800019B1A68019B9B68581C019988601344FA
:10A458009DF803201A70019B9A68019B5B689A42D9
:10A4680002D30198FFF78AFF00BF03B05DF804FB31
:10A4780000B587B0039002910192009300230593E1
:10A48800009B03F00103002B24D00BE0029B013357
:10A498000293059B013305939DF8133019460398E1
:10A4A800FFF7C8FF029B1B788DF813309DF8133017
:10A4B800002BEBD106E0019B013B0193202103987F
:10A4C800FFF7B8FF019A059B9A422ED9019B002BF2
:10A4D800F1D12AE0029B002B0BD002980AF01DFF55
:10A4E800059006E0019B013B019320210398FFF7AB
:10A4F800A1FF019A059B9A420FD9019B002BF1D12C
:10A508000BE0029B01330293059B013305939DF8F1
:10A51800133019460398FFF78DFF029B1B788DF8BF
:10A5280013309DF81330002BEBD100BF07B05DF856
:10A5380004FB000000B589B00390029101920093DA
:10A54800029B07930123069307E0079A019BB2FB3E
:10A55800F3F30793069B01330693079A019B9A42EC
:10A56800F3D2009A069B9A4201D9009B06930B9B53
:10A5780003F00103002B22D10A9B002B1FD00B9B59
:10A5880003F00203002B06D0009B002B03D13023DD
:10A598008DF8173002E020238DF8173008E00A9B69
:10A5A800013B0A939DF8173019460398FFF742FFBD
:10A5B8000A9B002B03D0069A0A9B9A42EFD30123E9
:10A5C8000793009B012B03D9009B013B009309E0F3
:10A5D800029A079BB2FBF3F30493049A019B9A42F5
:10A5E80000D205E0079B019A02FB03F30793E8E713
:10A5F800029A079BB2FBF3F30493049B079A02FBAE
:10A6080003F3029AD31A0293154A049B13441B7846
:10A6180019460398FFF70EFF079A019BB2FBF3F365
:10A628000793079B002BE3D10B9B03F00103002B3F
:10A6380011D00A9B002B0ED006E00A9B013B0A931F
:10A6480020210398FFF7F6FE0A9B002B03D0069AF9
:10A658000A9B9A42F1D300BF09B05DF804FB00BF22
:10A66800B459030000B589B0059004910392029390
:10A67800049B002BB8BF5B4206930123079307E0B6
:10A68800039B069A92FBF3F30693079B0133079308
:10A69800039B069A9A42F3DA029A079B9A4201D9D7
:10A6A800029B07930A9B002B0AD0049B002B04DB18
:10A6B8000B9B03F00403002B02D00A9B013B0A9377
:10A6C8000B9B03F00203002B02D0029B002B16D039
:10A6D8000B9B03F00103002B11D10A9B002B0ED01A
:10A6E80006E00A9B013B0A9320210598FFF7A2FE8A
:10A6F8000A9B002B03D0079A0A9B9A42F1D3049B2A
:10A70800002B07DA049B5B4204932D210598FFF781
:10A7180091FE08E00B9B03F00403002B03D02B21D0
:10A728000598FFF787FE0B9B03F00203002B19D057
:10A738000B9B03F00103002B14D1029B002B11D1BA
:10A748000A9B002B0ED006E00A9B013B0A9330219E
:10A758000598FFF76FFE0A9B002B03D0079A0A9B08
:10A768009A42F1D304990B9B01930A9B0093029B95
:10A77800039A0598FFF7DEFE00BF09B05DF804FBF9
:10A7880000B58FB0059004910392059B002B04D16E
:10A79800C8494FF4A270FFF76AFA059B5B69002B62
:10A7A80004D1C4494FF4A370FFF761FA059B1B68F5
:10A7B800002B04D1BF4940F24710FFF758FA059B18
:10A7C8005B68002B04D1BB494FF4A470FFF74FFA24
:10A7D800049B002B00F0ED81049B1B788DF837302B
:10A7E800049B013304939DF83730002B00F0D88187
:10A7F8009DF83730252B40F0C78100230A930123A9
:10A808000C93049B1B788DF837309DF837302D2B2F
:10A8180004D0302B0AD02B2B10D017E00A9B43F022
:10A8280001030A93049B0133049312E00A9B43F04B
:10A8380002030A93049B013304930AE00A9B43F042
:10A8480004030A93049B0133049302E000230C934E
:10A8580000BF0C9B002BD4D1002309939DF83730FF
:10A868002A2B0CD1039B1B68191D039A11601B68C6
:10A87800099A13440993049B013304931AE0049B37
:10A888001B788DF837309DF837302F2B12D99DF86B
:10A898003730392B0ED8049B01330493099A134699
:10A8A8009B0013445B001A469DF837301344303B35
:10A8B8000993D3E700230B93049B1B788DF837305B
:10A8C8009DF837302E2B1DD1049B01330493049B34
:10A8D8001B788DF837309DF837302F2B12D99DF81B
:10A8E8003730392B0ED8049B013304930B9A134647
:10A8F8009B0013445B001A469DF837301344303BE5
:10A908000B93E4E7049B1B788DF837309DF83730BC
:10A918006C2B03D09DF83730682B07D1049B01338B
:10A928000493049B1B788DF83730EFE79DF8373098
:10A93800253B532B00F2238101A252F823F000BFDC
:10A948007DAB020087AB020087AB020087AB020039
:10A9580087AB020087AB020087AB020087AB02001F
:10A9680087AB020087AB020087AB020087AB02000F
:10A9780087AB020087AB020087AB020087AB0200FF
:10A9880087AB020087AB020087AB020087AB0200EF
:10A9980087AB020087AB020087AB020087AB0200DF
:10A9A80087AB020087AB020087AB020087AB0200CF
:10A9B80087AB020087AB020087AB020087AB0200BF
:10A9C80087AB020087AB020087AB020087AB0200AF
:10A9D80087AB020087AB020087AB020087AB02009F
:10A9E80087AB020087AB020087AB020087AB02008F
:10A9F80087AB020087AB020087AB020087AB02007F
:10AA080087AB020087AB020087AB020009AB0200EC
:10AA180087AB020087AB020087AB020087AB02005E
:10AA280087AB020087AB020087AB020087AB02004E
:10AA380087AB020087AB020099AA0200C1AA0200F4
:10AA480087AB020087AB020087AB020087AB02002E
:10AA5800C1AA020087AB020087AB020087AB0200E5
:10AA680087AB020087AB020087AB020049AB02004C
:10AA780087AB020087AB02002DAB020087AB020058
:10AA8800E5AA020087AB020087AB020009AB02000F
:10AA9800039B1B68191D039A11601B680C930C9B80
:10AAA8008DF81F309DF81F3019460598FFF7C2FC36
:10AAB80066E000BF58590300039B1B68191D039AE1
:10AAC80011601B680C930A9B0193099B00930B9BD5
:10AAD8000A220C990598FFF7C5FD51E0039B1B68F6
:10AAE800191D039A11601B680C930C990A9B01931A
:10AAF800099B00930B9B0A220598FFF71BFD3FE07B
:10AB0800039B1B68191D039A11601B680C930C9911
:10AB18000A9B0193099B00930B9B10220598FFF752
:10AB280009FD2DE0039B1B68191D039A11601B6822
:10AB380008930A9B099A08990598FFF799FC1FE062
:10AB4800039B1B68191D039A11601B680C93302125
:10AB58000598FFF76FFC78210598FFF76BFC0C99B7
:10AB68000023019308230093082310220598FFF778
:10AB7800E1FC05E025210598FFF75CFC00E000BF3B
:10AB8800049B0133049305E09DF837301946059876
:10AB9800FFF750FC049B1B78002B7FF41DAE00E0F0
:10ABA80000BF059B1B7B002B04D00598FFF7E6FB35
:10ABB80000E000BF0FB05DF804FB00BF10B586B021
:10ABC8000590049103920293059B002B10D1604AD3
:10ABD800604BD31ADB081B0443F001005E4A5F494F
:10ABE8000E2300930B465E49FCF71DF90E23ABE0DC
:10ABF800039B002B10D1564A564BD31ADB081B0473
:10AC080043F00100574A55490E2300930B46544917
:10AC1800FCF709F90E2397E0059B1B68002B10D160
:10AC28004B4A4C4BD31ADB081B0443F001004E4A35
:10AC38004A49082300930B464949FCF7F4F80823CE
:10AC480082E0029B002B10D1414A424BD31ADB0809
:10AC58001B0443F00100454A4049092300930B4671
:10AC68003F49FCF7E0F809236EE0059B5B685A68EA
:10AC7800029BB3FBF2F102FB01F29B1A002B10D0EE
:10AC8800334A344BD31ADB081B0443F00100384A1B
:10AC98003249092300930B463149FCF7C4F80923CC
:10ACA80052E0049800F01EF90346002B10D1284A00
:10ACB800284BD31ADB081B0443F001002D4A27490F
:10ACC800102300930B462649FCF7ADF810233BE010
:10ACD800039B184600F006F90346002B10D11C4AC6
:10ACE8001C4BD31ADB081B0443F00100224A1B4902
:10ACF800102300930B461A49FCF795F8102323E01C
:10AD0800029A0499059800F0D3F80346002B10D155
:10AD18000F4A104BD31ADB081B0443F00100174AF3
:10AD28000E49102300930B460D49FCF77CF81023BD
:10AD38000AE0059B1B68DC68089B0093029B039A4A
:10AD480004990598A0470346184606B010BD00BFF1
:10AD580038540300F8530300D4590300785B030008
:10AD6800DC590300685A0300105A0300245A0300F0
:10AD7800705A03009C5A0300B45A0300D85A0300BF
:10AD880010B586B00590049103920293059B002BA1
:10AD980010D13E4A3E4BD31ADB081B0443F0010096
:10ADA8003C4A3D490E2300930B463C49FCF73BF8CF
:10ADB8000E2368E0059B1B68002B10D1334A344BE7
:10ADC800D31ADB081B0443F00100354A3249082333
:10ADD80000930B463149FCF726F8082353E0039B00
:10ADE800002B10D1294A2A4BD31ADB081B0443F045
:10ADF80001002C4A2849092300930B462749FCF7F0
:10AE080012F809233FE00499059800F078F8034602
:10AE1800002B10D11D4A1E4BD31ADB081B0443F02C
:10AE28000100214A1C49102300930B461B49FBF7DC
:10AE3800FAFF102327E0059B5B681B68039A02FB57
:10AE480003F31A460499059800F032F80346002BDC
:10AE580010D10E4A0E4BD31ADB081B0443F0010035
:10AE6800124A0D49102300930B460C49FBF7DBFFF0
:10AE7800102308E0059B1B681C69029B039A049930
:10AE88000598A0470346184606B010BD385403007D
:10AE9800F8530300D45903008C5B0300DC5903000A
:10AEA800105A0300245A0300005B0300285B0300C8
:10AEB80084B0039002910192039BDB68029A9A4244
:10AEC80009D3029A019B13445A1E039B1B699A4299
:10AED80001D8012300E0002303F00103DBB2184688
:10AEE80004B0704782B00190019B03F00303002B6C
:10AEF8000CBF01230023DBB2184602B0704782B0B2
:10AF080001900091019B5B681B685A1E009B1340CF
:10AF1800002B0CBF01230023DBB2184602B0704798
:10AF280029DF704700BF184628DF704700BF184662
:10AF380000B589B001900091019B1B689B68002BAC
:10AF480035D002AB00221A605A609A60DA601A6142
:10AF58005A61009B0393019B9B680793019B1B7994
:10AF6800002B02D0012B0DD01AE001238DF80830F8
:10AF7800019B1B690493019BDB680593019B5B693B
:10AF880006930DE002238DF80830019BDB684FF42F
:10AF9800805202FB03F30493019B5B69069300BF95
:10AFA800019B1B689B6802AA1046984700E000BFF7
:10AFB80009B05DF804FB00B587B00190019B5A69A0
:10AFC800019B9B69D31AB3F5805F28BF4FF4805368
:10AFD80005930422059BB3FBF2F3012B38BF012331
:10AFE8000593019B1A69019B9B6913440493019B78
:10AFF800DB681A46019B9B6913440393059A0399DE
:10B008000498FFF78DFF0346184607B05DF804FB68
:10B0180000B583B00190019BDA68019B1B6913445A
:10B028001846FFF781FF0346184603B05DF804FB96
:10B0380008B5034B03491846FEF7EBFE00BF08BDF1
:10B048006C2A0020942A002008B5084B08491846A5
:10B05800FEF7C6FE0246074B1A60064B1B68002B1C
:10B0680014BF01230023DBB2184608BD6C2A002058
:10B07800942A0020902A002000B583B02A4B1B7A1E
:10B08800002B0BD1FFF7E0FF034683F00103DBB28F
:10B09800002B03D0244B00225A6042E0224B0222AC
:10B0A8001A72224B1B681B79002B02D0012B07D088
:10B0B8000DE01E4B1B681846FFF77DFF019009E065
:10B0C8001A4B1B681846FFF7A3FF019002E0032301
:10B0D800019300BF019B002B02D0112B0CD00FE075
:10B0E800114B1B7C83F00103DBB2002B18D000212D
:10B0F800022000F06FF813E00B4B01221A7210E0E7
:10B108000A4B1B6803211846FFF712FF064B002263
:10B118001A72054B00225A60FFF78AFF00BF00E051
:10B1280000BF03B05DF804FB7C2A0020902A0020B1
:10B1380084B001901B4B0022DA60019B1B79002B25
:10B1480002D0012B19D028E0019B5A69019B9B6909
:10B15800D31AB3F5805F28BF4FF480530393019B44
:10B168009A69039B1A44019B9A61019B9A69019B06
:10B178005B699A420ED1012310E0019B1B695A1C9E
:10B18800019B1A61019B1A69019B5B699A4203D171
:10B19800012303E000BF00E000BF0023184604B00D
:10B1A800704700BF7C2A002082B00190084BDB6802
:10B1B8000133074AD360064BDB68082B04D9044BDC
:10B1C8000022DA60012300E00023184602B070472D
:10B1D8007C2A002000B585B001900091019B022BCC
:10B1E80002D0019B032B49D1274B1B7A012B35D069
:10B1F800022B02D0002B43D033E000238DF80F3010
:10B20800019B022B02D0032B09D011E01F4B1B68B6
:10B218001846FFF78DFF03468DF80F3008E01B4BEB
:10B228001B681846FFF7C0FF03468DF80F3000BFB4
:10B238009DF80F30002B13D0134B00221A72134BBA
:10B248001A68019B022B01D1002300E00D23194647
:10B258001046FFF76DFEFFF7EBFE01E000BF00E0D0
:10B2680000BF094B5B7C83F00103DBB2002B02D0EB
:10B27800FFF702FF05E009F0EBFC02E000BF00E089
:10B2880000BF05B05DF804FB7C2A0020902A00204E
:10B2980082B0034600918DF80730064B01225A749C
:10B2A800044B1B7A002B0CBF01230023DBB218468A
:10B2B80002B070477C2A002000B583B00346009195
:10B2C8008DF807309DF80730012B03D09DF8073023
:10B2D800032B0DD1084B00225A749DF80730012B1F
:10B2E8000CBF01230023DAB2034B1A74FFF7C4FE24
:10B2F80000BF03B05DF804FB7C2A002000B583B0D2
:10B3080001900198FEF760FF0346184603B05DF808
:10B3180004FB00B58BB001900091019B1B8A043B94
:10B328000793009A079B1344DA1C079BB2FBF3F3BD
:10B338008DF81B300198FEF7A3FF0590059B002BA5
:10B3480001D1002338E0059B00221A71059B0122D8
:10B358005A71079B9AB2059BDA80059B09939DF861
:10B368001B30013B0493099B019A1A600023089340
:10B378001DE00198FEF784FF0390039B002B0ED07D
:10B38800059B5B790133DAB2059B5A71099B039AD5
:10B398001A60039B019A1A60039B099304E00598BD
:10B3A80000F00EF8002307E0089B01330893089A81
:10B3B800049B9A42DDD3059B18460BB05DF804FB4D
:10B3C80000B58BB00190019B0793079B5B798DF8C3
:10B3D8001B30019B08939DF81B30013B059300230C
:10B3E800099305E0089B1B680893099B013309939F
:10B3F800099A059B9A42F5D3089B1B680493019B05
:10B408000893002309930BE0089B1B680393089992
:10B418000498FEF77FFF039B0893099B0133099368
:10B428009DF81B30099A9A42EED300BF0BB05DF825
:10B4380004FB00B585B00190019B0393039B043383
:10B4480001211846FEF741FE00BF05B05DF804FB78
:10B4580000B587B00190019B0593059B043301213A
:10B468001846FEF74AFE0346039303AB0493049B76
:10B478001B78002B02D10198FFF7A2FF00BF07B08D
:10B488005DF804FB00B591B003900291019200931E
:10B49800039B002B03D14349B620FEF7E8FB039B2F
:10B4A8000993039B0F93099BDB881A46099B5B79D9
:10B4B80003FB02F3043B0893009A089B9A4203D3C8
:10B4C8003849C420FEF7D3FB099BDB880793009B10
:10B4D8001A1D079BB2FBF3F30E93009B0433079AE4
:10B4E800B3FBF2F2079901FB02F29B1A0D93019B41
:10B4F8001A68009B1344089A9A4203D2089A009B40
:10B50800D31A01E0019B1B680C93019B0C9A1A60EB
:10B5180005E00F9B1B680F930E9B013B0E930E9B40
:10B52800002BF6D100230B93079A0D9BD31A0A938D
:10B538000A9A0C9B934228BF13460A932AE0029A60
:10B548000B9B134406930F9A0D9B134404330593E6
:10B558009DF84830002B05D00A9A0599069809F0FD
:10B5680080FE04E00A9A0699059809F07AFE0023FD
:10B578000D930F9B1B680F930C9A0A9BD31A0C937D
:10B588000B9A0A9B13440B93079A0C9B934228BF70
:10B5980013460A930C9B002BD1D100BF11B05DF864
:10B5A80004FB00BFA05B030000B589B005900491BF
:10B5B80003920293039B079307AA00230093029B1D
:10B5C80004990598FFF75EFF079B039A9A4203D0F8
:10B5D8000349F620FEF74BFB00BF09B05DF804FBFA
:10B5E800A05B030000B589B0059004910392029313
:10B5F800039B079307AA01230093029B04990598CC
:10B60800FFF740FF079B039A9A4204D004494FF47E
:10B618008070FEF72CFB00BF09B05DF804FB00BF8B
:10B62800A05B030082B003468DF807309DF8073011
:10B6380003F01F0206499DF907305B09012000FA53
:10B6480002F2603341F8232000BF02B0704700BF08
:10B6580000E100E000B583B00190019B002B03D10D
:10B6680006497220FEF703FB019B00221A60BFF314
:10B678005F8F00BF03B05DF804FB00BF545C03009C
:10B6880041DF704700BF184600B585B000238DF82C
:10B6980003300DF103031846FCF784FFF1EE103A6E
:10B6A8000193019B0393039B23F09F030293029B47
:10B6B800E1EE103ABFF35F8F2620FFF7B3FF9DF846
:10B6C80003301846FCF784FF039B03F00703002BA5
:10B6D80003D004497D20FEF7CAFA00BF05B05DF823
:10B6E80004FB00BF945C030008B5064B00221A70E7
:10B6F8000548FFF7AFFF0549054800F04BF8002360
:10B70800184608BD9C2A0020982A0020F85C0300EF
:10B71800A02A002000B583B0FFF7B6FF09F0B4FAFD
:10B728000346002B0ED0FFF7ABFF0190019B002BC7
:10B738000BD0019B022B08D006494FF4B070FEF7DE
:10B7480096FA02E020BF40BF20BF00BF03B05DF8FB
:10B7580004FB00BF945C030082B00190019B9B68CE
:10B7680000229A60019B9B6800221A61019B9B68DA
:10B7780000225A61019B9B680022DA60019B9B684A
:10B7880000225A60019B9B6800221A6000BF02B029
:10B798007047000000B583B001900091019B002B19
:10B7A80003D110495020FEF762FA009B002B03D109
:10B7B8000C495120FEF75BFA019B009A1A60019B25
:10B7C8001B681A68019B5A60019B5A68019B1B6899
:10B7D8005B689A4202D1019B00225A6000BF03B005
:10B7E8005DF804FB045D030000B583B00190019B84
:10B7F800002B03D114496320FEF739FA019B1B681B
:10B80800002B03D110496420FEF731FA019B5B68D5
:10B81800002B14D0019B5B681A46019B1B689B6830
:10B8280013441A46019B5A60019B5A68019B1B6886
:10B838005B689A4204D1019B00225A6000E000BF75
:10B8480003B05DF804FB00BF045D030000B585B0DC
:10B858000190019800F00EF80390039B002B01D093
:10B86800039B00E0024B184605B05DF804FB00BFDF
:10B878007C5D030086B00190164B0593164B04932C
:10B888001FE0049A059BD31ADB10DA0F13445B10F0
:10B89800DB00059A13440393039B1B680293029AE7
:10B8A800019B9A4202D9039B04930AE0029A019BE6
:10B8B8009A4203D2039B0833059302E0039B5B681B
:10B8C80004E0059A049B9A42DBD30023184606B08D
:10B8D800704700BF7C610300A4620300BFF34F8F71
:10B8E800054BDB6803F4E0620349044B1343CB6068
:10B8F800BFF34F8F00BFFDE700ED00E00400FA053D
:10B90800024B034A1A6000BF704700BF782200202C
:10B918000090D00308B500F025F90346002B0ED09F
:10B928004FF080430022C3F80C214FF080430022DF
:10B93800C3F810214FF080430022C3F8382500F0E7
:10B9480035F90346002B76D04FF080537C4AD3F864
:10B958000434C2F820354FF08053794AD3F80834BC
:10B96800C2F824354FF08053754AD3F80C34C2F826
:10B9780028354FF08053724AD3F81034C2F82C356A
:10B988004FF080536E4AD3F81434C2F830354FF074
:10B9980080536B4AD3F81834C2F834354FF08053CB
:10B9A800674AD3F81C34C2F840354FF08053644AD4
:10B9B800D3F82034C2F844354FF08053604AD3F8A6
:10B9C8002434C2F848354FF080535D4AD3F8283400
:10B9D800C2F84C354FF08053594AD3F82C34C2F88A
:10B9E80050354FF08053564AD3F83034C2F85435A6
:10B9F8004FF08053524AD3F83434C2F860354FF0D0
:10BA080080534F4AD3F83834C2F864354FF0805326
:10BA18004B4AD3F83C34C2F868354FF08053484A53
:10BA2800D3F84034C2F86C354FF08053444AD3F809
:10BA38004434C2F8703500F0DDF80346002B02D01C
:10BA4800404B414A1A6000F0E7F80346002B03D048
:10BA58003E4BFB22C3F8182500F0F0F80346002BF4
:10BA68000AD03B4B1B6823F00F023A4B1B6803F0CC
:10BA78000F03374913430B6000F0F2F80346002B1D
:10BA880003D0354B4FF400721A6000F0FBF8034600
:10BA9800002B0DD04FF08043D3F8003403F001039E
:10BAA800002B05D04FF080436FF00102C3F800244B
:10BAB8002A4BD3F88830294A43F47003C2F88830F7
:10BAC800BFF34F8FBFF36F8F4FF01023D3F80032BF
